:020000040800F2
:10000000000002203D5A0008C9130008CB13000865
:10001000CD130008CF130008D11300080000000022
:10002000000000000000000000000000D3130008E2
:10003000D513000800000000D7130008D9130008EA
:100040008D5A00088D5A00088D5A00088D5A0008F4
:100050008D5A00088D5A00088D5A00088D5A0008E4
:100060008D5A00088D5A00088D5A00088D5A0008D4
:100070008D5A00088D5A00088D5A00088D5A0008C4
:100080008D5A00088D5A00088D5A00088D5A0008B4
:100090008D5A00088D5A00088D5A00088D5A0008A4
:1000A0008D5A00088D5A00088D5A00088D5A000894
:1000B0008D5A00088D5A00088D5A00088D5A000884
:1000C0008D5A00088D5A00088D5A00088D5A000874
:1000D0008D5A0008E11300088D5A00088D5A000857
:1000E0008D5A00088D5A0008000000008D5A000843
:1000F0008D5A00088D5A00088D5A00088D5A000844
:100100008D5A00088D5A00088D5A00088D5A000833
:100110008D5A00088D5A00088D5A00088D5A000823
:100120008D5A00088D5A00088D5A00088D5A000813
:100130008D5A00088D5A00088D5A00088D5A000803
:1001400000000000000000000000000000000000AF
:100150008D5A00088D5A00088D5A00088D5A0008E3
:100160008D5A00088D5A00088D5A00088D5A0008D3
:100170008D5A00088D5A00088D5A000800000000B2
:100180008D5A00088D5A00088D5A00088D5A0008B3
:100190008D5A00088D5A00088D5A00088D5A0008A3
:1001A0008D5A00088D5A00088D5A00088D5A000893
:1001B0008D5A00088D5A00088D5A00088D5A000883
:1001C0008D5A00088D5A00088D5A00088D5A000873
:1001D0008D5A00088D5A00088D5A00088D5A000863
:1001E0008D5A00088D5A00088D5A00088D5A000853
:1001F0008D5A00088D5A00088D5A00088D5A000843
:100200008D5A00088D5A00088D5A00088D5A000832
:100210008D5A00088D5A00088D5A00088D5A000822
:100220008D5A00088D5A00088D5A00080000000001
:100230008D5A00088D5A0008000000008D5A0008F1
:100240008D5A00088D5A00088D5A00088D5A0008F2
:100250008D5A00088D5A00088D5A00088D5A0008E2
:100260008D5A00088D5A00088D5A00088D5A0008D2
:100270008D5A00088D5A00088D5A000800000000B1
:100280008D5A00088D5A00088D5A000800000000A1
:08029000000000008D5A000877
:100298000348044B834202D0034B03B1184770470D
:1002A800280000202800002000000000054806491A
:1002B8000B1AD90F01EBA301491002D0034B03B16C
:1002C8001847704728000020280000200000000080
:1002D80010B5064C237843B9FFF7DAFF044B13B186
:1002E8000448AFF300800123237010BD28000020CC
:1002F80000000000905A000808B5044B1BB10449DF
:100308000448AFF30080BDE80840CFE700000000D4
:100318002C000020905A000870B50D4E0D4D761B2C
:10032800B61006D0002455F8043B01349847A6427D
:10033800F9D1094E094D761B05F0A6FBB61006D07B
:10034800002455F8043B01349847A642F9D170BD02
:10035800E85A0008E85A0008EC5A0008E85A000869
:10036800830730B548D0541E002A3FD0CAB203468E
:1003780001E0013C3AD303F8012B9D07F9D1032C86
:100388002DD9CDB245EA05250F2C45EA054536D9C4
:10039800A4F1100222F00F0C03F1200EE6444FEAFC
:1003A800121C03F1100242E9045542E902551032C9
:1003B8007245F8D10CF1010214F00C0F03EB021294
:1003C80004F00F0C13D0ACF1040323F0030304333F
:1003D800134442F8045B9342FBD10CF003042CB1A4
:1003E800CAB21C4403F8012B9C42FBD130BD6446C1
:1003F8001346002CF4D1F9E703461446BFE71A4622
:10040800A446E0E753B94AB9002908BF00281CBF31
:100418004FF0FF314FF0FF3000F074B9ADF1080C28
:100428006DE904CE00F006F8DDF804E0DDE902230A
:1004380004B070472DE9F047089D04468E46002B0E
:100448004DD18A42944669D9B2FA82F252B101FA80
:1004580002F3C2F1200120FA01F10CFA02FC41EA90
:10046800030E94404FEA1C48210CBEFBF8F61FFA15
:100478008CF708FB16E341EA034306FB07F19942B0
:100488000AD91CEB030306F1FF3080F01F81994263
:1004980040F21C81023E63445B1AA4B2B3FBF8F03D
:1004A80008FB103344EA034400FB07F7A7420AD9C4
:1004B8001CEB040400F1FF3380F00A81A74240F2EC
:1004C80007816444023840EA0640E41B00261DB157
:1004D800D4400023C5E900433146BDE8F0878B428C
:1004E80009D9002D00F0EF800026C5E9000130464B
:1004F8003146BDE8F087B3FA83F6002E4AD18B4225
:1005080002D3824200F2F980841A61EB03030120CE
:100518009E46002DE0D0C5E9004EDDE702B9FFDEBA
:10052800B2FA82F2002A40F09280A1EB0C014FEA65
:100538001C471FFA8CFE0126200CB1FBF7F307FBC2
:10054800131140EA01410EFB03F0884208D91CEB65
:10055800010103F1FF3802D2884200F2CB80434602
:10056800091AA4B2B1FBF7F007FB101144EA0144E1
:100578000EFB00FEA64508D91CEB040400F1FF3170
:1005880002D2A64500F2BB800846A4EB0E0440EA5E
:1005980003409CE7C6F12007B34022FA07FC4CEA67
:1005A800030C20FA07F401FA06F31C43F9404FEA5A
:1005B8001C4900FA06F3B1FBF9F8200C1FFA8CFE6F
:1005C80009FB181140EA014108FB0EF0884202FAC3
:1005D80006F20BD91CEB010108F1FF3A80F0888084
:1005E800884240F28580A8F102086144091AA4B241
:1005F800B1FBF9F009FB101144EA014100FB0EFEC2
:100608008E4508D91CEB010100F1FF346CD28E45F0
:100618006AD90238614440EA0840A0FB0294A1EB81
:100628000E01A142C846A64656D353D05DB1B3EBDE
:10063800080261EB0E0101FA07F722FA06F3F1400E
:100648001F43C5E9007100263146BDE8F087C2F1B5
:100658002003D8400CFA02FC21FA03F3914001432D
:100668004FEA1C471FFA8CFEB3FBF7F007FB103666
:100678000B0C43EA064300FB0EF69E4204FA02F412
:1006880008D91CEB030300F1FF382FD29E422DD965
:10069800023863449B1B89B2B3FBF7F607FB16339A
:1006A80041EA034106FB0EF38B4208D91CEB01011A
:1006B80006F1FF3816D28B4214D9023E6144C91A9A
:1006C80046EA004638E72E46284605E70646E3E6AA
:1006D8001846F8E64B45A9D2B9EB020864EB0C0EB4
:1006E8000138A3E74646EAE7204694E74046D1E7C3
:1006F800D0467BE7023B614432E7304609E7644471
:10070800023842E7704700BFB1F5803F00F0BB8078
:100718004CD8B1F5807F00F0AA8021D8202916D8BE
:10072800002953D001391F2950D8DFE801F08B8EFA
:100738004F914F4F4F944F4F4F4F4F4F4F974F4FF2
:100748004F4F4F4F4F4F4F4F4F4F4F4F4F9A40299B
:1007580000F08A80802902D140F0800070477047FD
:10076800B1F5805F00F0898009D9B1F5804F00F0BC
:100778008780B1F5004F12D140F400407047B1F5C1
:10078800806F77D0B1F5006F02D140F400607047F8
:10079800B1F5007F02D140F4007070477047B1F5A1
:1007A800005F02D140F4005070477047B1F1807F7C
:1007B80075D00CD9B1F1805F77D02CD9B1F1804FC9
:1007C80076D0B1F1004F36D140F000407047B1F516
:1007D800801F5ED008D9B1F5800F5DD0B1F5000F4C
:1007E80012D140F400007047B1F5802F4ED0B1F51A
:1007F800002F02D140F400207047B1F5003F02D12C
:1008080040F4003070477047B1F5001F02D140F442
:10081800001070477047B1F1806F43D0B1F1006F9D
:1008280002D140F000607047B1F1007F02D140F082
:10083800007070477047B1F1005F02D140F000507E
:100848007047704740F00100704740F00200704761
:1008580040F00400704740F00800704740F0100076
:10086800704740F02000704740F04000704740F467
:100878008070704740F48060704740F48050704743
:1008880040F48040704740F48030704740F4802046
:10089800704740F48010704740F48000704740F083
:1008A8008070704740F08060704740F0805070471B
:1008B80040F080407047B1F5803F00F0BB804CD8D5
:1008C800B1F5807F00F0AA8021D8202916D8002908
:1008D80053D001391F2950D8DFE801F08B8E4F9192
:1008E8004F4F4F944F4F4F4F4F4F4F974F4F4F4F83
:1008F8004F4F4F4F4F4F4F4F4F4F4F9A402900F098
:100908008A80802902D16FF3C71070477047B1F50C
:10091800805F00F0898009D9B1F5804F00F08780A9
:10092800B1F5004F12D16FF3CF307047B1F5806F3A
:1009380077D0B1F5006F02D16FF3CB207047B1F5D6
:10094800007F02D16FF3492070477047B1F5005F0F
:1009580002D16FF34D3070477047B1F1807F75D089
:100968000CD9B1F1805F77D02CD9B1F1804F76D016
:10097800B1F1004F36D16FF3DF707047B1F5801FCA
:100988005ED008D9B1F5800F5DD0B1F5000F12D156
:100998006FF3D7507047B1F5802F4ED0B1F5002FC7
:1009A80002D16FF3D3407047B1F5003F02D16FF326
:1009B800514070477047B1F5001F02D16FF3555091
:1009C80070477047B1F1806F43D0B1F1006F02D129
:1009D8006FF3DB607047B1F1007F02D16FF35960AC
:1009E80070477047B1F1005F02D16FF35D707047D7
:1009F80070476FF3000070476FF3410070476FF363
:100A0800820070476FF3C30070476FF3041070479C
:100A18006FF3451070476FF3861070476FF3082027
:100A280070476FF38A2070476FF30C3070476FF38D
:100A38008E3070476FF3104070476FF392407047E5
:100A48006FF3145070476FF3965070476FF3186048
:100A580070476FF39A6070476FF31C7070476FF3BD
:100A68009E70704708B5024B5B68984708BD00BF89
:100A780000000208054B1B6803B1704710B5044C11
:100A880020680421FFF740FE206010BD48000020C8
:100A98004C000020012B09D0002304E011F803C00A
:100AA80000F803C001339A42F8DC704700239A42E9
:100AB8000DDD00B5A2EB030C0CF1FF3C11F803E0CF
:100AC80000F80CE001339A42F4DC5DF804FB70474F
:100AD8000022134604E011F802C06344DBB201327D
:100AE8009042F8DC5842C0B27047000010B5034687
:100AF8000D4C55222270072262700420A07000223B
:100B0800E2702371C3F307226271C3F30742A27133
:100B18001B0EE3712118FFF7DBFF2072FF236372BE
:100B2800024B0A221A8010BD6801002068020020CA
:100B3800064B55221A700621597000229A70DA70F5
:100B48001A71FF225A71024B198070476801002000
:100B58006802002038B5614B5B78032B1CD8DFE8AE
:100B680003F0021C5A9A00245D4B1C605D4D2868F6
:100B78000121FFF7A0FE28605B4B1C605B4B1C80CB
:100B88005B4B1C804FF48372FF215A48FFF7E8FB48
:100B98000121524800F032FA38BD524B1B6813F05D
:100BA800010FF9D0544B18684FF4FA6100F01AFBA2
:100BB80030BB4D4B1B68032BEED94E4BDA789B7834
:100BC80043EA0223494A13800633474A126893428C
:100BD80011D0484B1B78DBB2552BDDD0404C02219D
:100BE8002068FFF791FD2060FFF780FF03213B4855
:100BF80000F004FAD0E70221384800F0FFF9E8E7EE
:100C0800374C08212068FFF77FFD20600321334817
:100C180000F0F4F9C0E7354B1C88384D29462046CA
:100C2800FFF756FF364B18700434043D2B5DDBB2DA
:100C380098421FD12D4B1B8805332E4AD35CDBB25B
:100C4800FF2B1ED1294B1B8804332A4AFF21D1547C
:100C5800234B1B6823B952782A4B53F82230984704
:100C68001F4B1868A0B9FFF763FF03211B4800F06A
:100C7800C5F991E71A4C02212068FFF745FD20606D
:100C8800D8E7174C02212068FFF73EFD2060D9E71E
:100C9800FFF72CFFE9E71C4804F054F82128FAD0A4
:100CA8004FF47A73124A12881849174804F01DFC49
:100CB8000C4B1B6813F0040F08D12021144803F0D3
:100CC80013F80021054800F099F965E7054C2068FC
:100CD8000821FFF719FD2060EFE700BF5000002052
:100CE800480000204C000020600100206C02002019
:100CF8006802002058000020640100205C000020E9
:100D08006A02002000000020D002002068010020B4
:100D18000004025838B52B4B1B685D6A5C6A2A4B85
:100D280000221A7028E00021022000F051F932E078
:100D38002021264802F0D8FF224B1B685C6A31E06C
:100D4800234B1B6813F0080F02D1FFF703FF13E0D2
:100D58000021022000F03CF90EE01E4B1B68B3F1A5
:100D6800FF3F28D000F0DEFD03F0CCFA194B1B68DA
:100D780083F30888FFF776FE134B1B78012BDFD02F
:100D8800022BEAD0002BF7D141F28831284600F037
:100D980029FA0028C7D14FF4FA71204600F022FA48
:100DA8000028C5D10C4B1B68002BE5D00121084653
:100DB80000F00EF9E0E700222021084802F08EFF3B
:100DC800FEE700BF84020020500000200004025803
:100DD8004C000020000002086001002000100258AA
:100DE80010B586B001230293002301930491039068
:100DF8002023059302F038FC694601A802F0C8FDDB
:100E0800044620B902F05EFC204606B010BDFF245F
:100E1800F8E7000038B52C4B1B880F2B13D02B4C50
:100E280001212068FFF770FC2060294B5B68B3F54F
:100E3800003F27D8264B1A68264B9A4229D1234BC4
:100E48001B686BB338BD244D214C0023042229466E
:100E58002046FFF71FFE00230422A918A018FFF759
:100E680019FE0123032205F1080104F10800FFF728
:100E780011FE0023042205F10B0104F10C00FFF719
:100E880009FED2E7114C01212068FFF73DFC2060E4
:100E9800D0E70E4C01212068FFF736FC2060CEE732
:100EA80001210846FFF79CFF30B1084C012120685A
:100EB800FFF72AFC2060C5E7084C20680221FFF7ED
:100EC80023FC2060BEE700BF6C0200204800002021
:100ED80070020020000002085C0000204C00002086
:100EE8002DE9F04104468846164602F0070502F04F
:100EF800BBFBB6F5807F28D833192B44174AB2F8C4
:100F080080204FF6FF718A4206D05AB1144901EA8F
:100F180042221449114400E013498B421BD2002598
:100F28002F4603E01049F8E720340835B5EB960F53
:100F38000CD25FB908EB85022146012002F05AFC69
:100F48000028F1D047F00207EEE7012702F0BAFBCC
:100F58003846BDE8F0810127F8E700BF00E8F11F37
:100F680000FE1F00F0FFFF07F0FF0F0810B5124B3F
:100F78001B6813F0020F18D0104B1868104B1B6831
:100F8800104A128810491844FFF7AAFF30B90D4BD0
:100F98001B880B4A11680B44136010BD0B4C1021C1
:100FA8002068FFF7B1FB2060F1E7084C10212068AA
:100FB800FFF7AAFB2060F0E74C0000207002002039
:100FC800440000206C0200205C0000204800002043
:100FD80000B5084A084BB3F800E093F802C0A2F83D
:100FE80000E082F802C01870597000229A705DF80B
:100FF80004FB00BF54000020500000204378837099
:10100800417070470268114B9A4200D0704710B582
:101018000F4B1A68511C19600E4908780E498854FC
:101028001B68012B05D001220A490C4804F0DCFB9F
:1010380010BD0B4C20680121FFF766FB2060094BAF
:101048001B685A6A084B1A60EDE700BF00100140A0
:10105800600100208002002058000020D0020020FB
:101068004C000020840200206401002072B6FEE7D4
:1010780000B59DB04C22002109A8FFF771F9202284
:10108800002101A8FFF76CF9022003F00FF90023F3
:1010980000931F4BDA6A22F00102DA62DB6A03F07E
:1010A800010300931B4A936923F4404343F48043AC
:1010B8009361936903F440430093009B154B9B692C
:1010C80013F4005FFAD00223099301230C93402301
:1010D8000D930023129309A800F00AFDA0B93F233D
:1010E80001930023029303930493059340220692ED
:1010F8004FF4806207920893012101A801F02CF9AE
:1011080020B91DB05DF804FBFFF7B0FFFFF7AEFF95
:10111800000400580048025808B503F05DF9FFF7CD
:10112800A7FF00F015F800F0C5F800F073F80548BF
:1011380000F008FA01220449044804F055FBFFF7BF
:10114800E9FDFEE78402002080020020D002002092
:101158002DE9F04188B00024039404940594069482
:1011680007941D4BD3F8E02042F01002C3F8E020AA
:10117800D3F8E02002F010020192019AD3F8E0209F
:1011880042F00202C3F8E020D3F8E03003F0020393
:101198000293029BDFF8488001222021404602F09A
:1011A8009DFD0E4D22462021284602F097FD20275E
:1011B8000397012604960594069403A9404602F075
:1011C8007DFC039704960594069403A9284602F02B
:1011D80075FC08B0BDE8F0810044025800040258CC
:1011E800001002580A4B1B685A6A824205D25B6A91
:1011F800181A884207D9012070475B6A181A884272
:1012080003D901207047002070470020704700BFB5
:101218008402002000B589B0002304930593069347
:10122800079301930293039315484FF0804202609D
:101238004FF6FF12426083604FF0FF32C2600361D5
:10124800836100F045FA90B94FF48053049304A9E0
:101258000B4800F07BFA68B900230193039301A9B6
:10126800074800F00FFB40B909B05DF804FBFFF731
:10127800FDFEE9E7FFF7FAFEEEE7FFF7F7FEF3E713
:10128800840200200368B3F1804F00D0704782B019
:10129800074BD3F8E82042F00102C3F8E820D3F85E
:1012A800E83003F001030193019B02B0704700BFCF
:1012B8000044025808B51748174B03604FF4E13350
:1012C800436000238360C36003610C224261836131
:1012D800C36103624362836204F0AEF970B900210E
:1012E8000C4804F0F7FA60B900210A4804F017FB2B
:1012F80050B9084804F0CFFA48B908BDFFF7B6FE60
:10130800EDE7FFF7B3FEEFE7FFF7B0FEF1E7FFF712
:10131800ADFEF2E7D00200200010014010B5B6B0D3
:101328000446002131913291339134913591BC2298
:1013380002A8FFF715F822681E4B9A4201D036B072
:1013480010BD0123029302A801F0A2FA70BB1A4B48
:10135800D3F8F02042F01002C3F8F020D3F8F020C0
:1013680002F010020092009AD3F8E02042F0020244
:10137800C3F8E020D3F8E03003F002030193019BA7
:10138800C0233193022332930024339434940723E7
:10139800359331A9094802F091FB22460121252005
:1013A80000F046F8252000F079F8C8E7FFF75EFE60
:1013B800CDE700BF00100140004402580004025865
:1013C800FEE7FEE7FEE7FEE7FEE770477047704777
:1013D80008B503F02FF808BD08B5024803F08EF8E9
:1013E80008BD00BFD002002082B0074BD3F8F4201C
:1013F80042F00202C3F8F420D3F8F43003F00203F9
:101408000193019B02B07047004402580649CB681B
:1014180023F4E0631B041B0C000200F4E0600343A8
:10142800024A1A43CA60704700ED00E00000FA055E
:1014380000B5174BDB68C3F30223C3F1070CBCF1FB
:10144800040F28BF4FF0040C03F1040EBEF1060F81
:1014580014D9033B4FF0FF3E0EFA0CFC21EA0C01B5
:1014680099400EFA03F322EA03031943002807DB25
:101478000901C9B2074B19545DF804FB0023E9E7D9
:1014880000F00F000901C9B2034B1954F4E700BF7B
:1014980000ED00E000E400E014ED00E0002807DBC8
:1014A80000F01F02400901239340024A42F820300D
:1014B800704700BF00E100E00138B0F1807F0BD237
:1014C8004FF0E0235861054AF02182F823100020EC
:1014D800986107221A6170470120704700ED00E00B
:1014E80010B4036A046A24F001040462846924F0D5
:1014F800F00C4CEA021223F00A030B4382610362E8
:101508005DF8044B704710B4046A24F010040462B8
:101518008469036A24F4704C4CEA023223F0A00375
:1015280043EA0113826103625DF8044B70470000CF
:101538008268034B13400B4343F0070383607047F3
:101548008FFFCFFF90F83D30DBB2012B35D102235E
:1015580080F83D3003681B4AB3F1804F18BF9342AF
:101568001DD0A2F57C42934219D002F580629342C5
:1015780015D002F58062934211D002F57842934269
:101588000DD0A2F56C42934209D002F594329342F1
:1015980005D01A6842F001021A6000207047996865
:1015A800094A0A40062A18BFB2F5803F07D01A68D0
:1015B80042F001021A6000207047012070470020A5
:1015C800704700BF000001400700010030B5036804
:1015D800394A904214BF4FF0000E4FF0010EB0F19F
:1015E800804F14BF72464EF00102AAB9334CA04294
:1015F80014BF00240124324DA8420DD064B904F16F
:10160800804404F58234A04214BF0024012405F567
:101618000065A84200D01CB123F070034C68234336
:1016280012BB264A904214BF00220122244CA04239
:101638001AD0CAB902F1804202F58232904214BF30
:101648000022012204F50064A0420DD062B91D4AAF
:10165800904214BF0022012204F59A34A04203D01C
:1016680012B9194A904204D123F4407CCB6843EA6A
:101678000C0323F080034A69134303608A68C2623B
:101688000A688262114A904214BF73464EF0010301
:1016980063B90C4B984214BF0023012302F5705222
:1016A800904203D013B9084B984201D10B690363E8
:1016B8000123436130BD00BF000001400008004025
:1016C800000400400044014000480140000401407B
:1016D80060B310B5044690F83D3013B3022384F884
:1016E8003D30214651F8040BFFF770FF012384F8C1
:1016F800483084F83E3084F83F3084F8403084F82D
:10170800413084F8423084F8433084F8443084F817
:10171800453084F8463084F8473084F83D3000205E
:1017280010BD80F83C30FFF7ADFDD7E701207047CA
:1017380010B4846824F47F4C42EA03220A4342EA44
:101748000C0282605DF8044B7047000090F83C3052
:10175800012B00F08F8010B50446012380F83C303F
:10176800022380F83D3002689068434B0340936041
:101778000B68702B55D031D8502B6CD00CD9602BFE
:101788002AD1CA6849682068FFF7BDFE6021206831
:10179800FFF7CEFE002035E0402B0AD1CA68496821
:1017A8002068FFF79DFE40212068FFF7C1FE00205A
:1017B80028E05BD8202B07D003D9302B04D0012098
:1017C80020E00BB1102B05D119462068FFF7B0FEB9
:1017D800002017E0012015E0012013E0B3F5005FB9
:1017E8002CD00BD9254A9342EED012D9244A9342E1
:1017F800EAD010329342E7D0012003E0B3F5805FCE
:1018080036D10020012384F83D30002384F83C3091
:1018180010BDB3F5801FD7D0B3F1101FD4D001206D
:10182800F0E7CB684A6889682068FFF781FF22687B
:10183800936843F0770393600020E3E7CB684A6836
:1018480089682068FFF774FF2268936843F480432F
:1018580093600020D6E7CA6849682068FFF740FE11
:1018680050212068FFF764FE0020CBE70120C9E77C
:101878000120C7E7022070478800CEFF2000100033
:101888003000100090F83C30012B45D070B4012393
:1018980080F83C30022380F83D3003685A689C6821
:1018A8001E4E1F4DAB4218BFB34203D122F4700243
:1018B8004D682A4322F070020D682A435A60036873
:1018C800164AB3F1804F18BF934217D0A2F57C4255
:1018D800934213D002F5806293420FD002F58062E2
:1018E80093420BD002F57842934207D0A2F56C429E
:1018F800934203D002F59432934204D124F0800439
:101908008A6814439C60012380F83D30002380F8E6
:101918003C30184670BC70470220704700000140F8
:101928000004014038B5684B1B6803F00F03062B11
:101938000CD8654A136823F00F0343F007031360BC
:10194800136803F00F03072B40F0BA8002F07EFD06
:1019580004465E4A136843F0010313605B4B1B683F
:1019680013F0040F06D102F071FD001B0228F5D90F
:101978000324A6E0554B5A6842F080425A60002280
:101988001A61534B534A1360534A1360534B1868F8
:1019980002F0FAFC044608B1012492E002F056FD78
:1019A80005464A4B1B6913F0380F08D002F04EFD6C
:1019B800401B41F288339842F3D9032481E002F0B6
:1019C80045FD0546414A1168454B0B4013603F4BA6
:1019D8001B6813F4003F06D002F038FD401B642852
:1019E800F5D903246DE002F031FD0546374A136846
:1019F80023F080731360354B1B6813F0007F06D00B
:101A080002F024FD401B0228F5D9032459E002F016
:101A18001DFD05462D4A136823F0806313602B4B88
:101A28001B6813F0006F06D002F010FD401B02285F
:101A3800F5D9032445E002F009FD0546234A136859
:101A480023F080531360214B1B6813F0005F06D00E
:101A580002F0FCFC401B0228F5D9032431E01B4BA3
:101A680000229A61DA611A621E4999621E49D96296
:101A78001E4919635A639963DA6319645A641968C9
:101A880021F4802119601A664FF0FF329A66D3F864
:101A9800D02042F48032C3F8D0200B4B1B6813F0DF
:101AA800080F0ED0084A136823F00F0343F007030A
:101AB8001360136803F00F03072B02D0012400E022
:101AC8000124204638BD00BF0020005200440258BF
:101AD8000090D00320000020240000201C000020DB
:101AE80045EDF6FF000202020000FF01800201013D
:101AF800002800F0188338B50446036813F0010F76
:101B080025D0944A136903F03803926A102B15D034
:101B1800182B0FD06368B3F5803F3FD0002B53D10B
:101B28008C4B1A6822F480321A601A6822F48022D8
:101B38001A6038E002F00302022AEBD1854B1B68D9
:101B480013F4003F03D06368002B00F0EE82236893
:101B580013F0020F00F0A1807E4A1369926A13F015
:101B680038035AD0182B55D0E368002B00F0DE80DC
:101B780078490A6822F0190213430B6002F066FCE8
:101B88000546744B1B6813F0040F40F0AD8002F05B
:101B98005DFC401B0228F4D90320CDE26D4A13688E
:101BA80043F48033136063682BB302F04FFC05469F
:101BB800684B1B6813F4003FC9D102F047FC401B77
:101BC8006428F5D90320B7E2B3F5A02F09D0614BFB
:101BD8001A6822F480321A601A6822F480221A6085
:101BE800E1E75C4B1A6842F480221A601A6842F4F2
:101BF80080321A60D7E702F029FC0546554B1B686E
:101C080013F4003FA3D002F021FC401B6428F5D94F
:101C1800032091E212F0030FA6D14E4B1B6813F07C
:101C2800040F03D0E368002B00F08182494A13684F
:101C380023F01903E1680B43136002F007FC054623
:101C4800444B1B6813F0040F06D102F0FFFB401B46
:101C58000228F5D903206FE202F0FEFB41F20303EC
:101C6800984212D82269402A07D03A494B6823F48F
:101C78007C3343EA02334B600FE0364A536823F45F
:101C88007C3343F40033536007E0324A536823F04F
:101C9800FE43216943EA01635360236813F0100F80
:101CA80000F088802B4A136903F03803926A082BE6
:101CB80056D0182B50D0E369002B00F0B880254A85
:101CC800136843F08003136002F0C0FB0546214B04
:101CD8001B6813F4807F40F0888002F0B7FB401B3C
:101CE8000228F4D9032027E202F0B6FB41F20303ED
:101CF800984212D82269402A07D016494B6823F423
:101D08007C3343EA02334B60C7E7124A536823F433
:101D18007C3343F400335360BFE70E4A536823F023
:101D2800FE43216943EA01635360B6E7094A136831
:101D380023F00103136002F089FB0546054B1B687D
:101D480013F0040FA9D002F081FB401B0228F5D93B
:101D58000320F1E10044025802F00302012AAAD14B
:101D6800A14B1B6813F4807F03D0E369802B40F0FC
:101D7800E08102F071FB41F20303984212D8226A13
:101D8800202A07D098494B6823F0F84343EA826336
:101D98004B600FE0944A536823F0F84343F08043C4
:101DA800536007E0904AD36823F07C53216A43EAE2
:101DB8000163D360236813F0080F60D06369002BB8
:101DC80049D0894A536F43F00103536702F03EFB41
:101DD8000546854B5B6F13F0020F50D102F036FBBE
:101DE800401B0228F5D90320A6E102F035FB41F299
:101DF8000303984212D8226A202A07D07A494B68EE
:101E080023F0F84343EA82634B60D3E7764A53688A
:101E180023F0F84343F080435360CBE7724AD3681A
:101E280023F07C53216A43EA0163D360C2E76E4A18
:101E3800136823F08003136002F008FB05466A4B21
:101E48001B6813F4807FB5D002F000FB401B02280A
:101E5800F5D9032070E1644A536F23F001035367F7
:101E680002F0F4FA0546604B5B6F13F0020F06D0E0
:101E780002F0ECFA401B0228F5D903205CE1236844
:101E880013F0200F29D0A3699BB1574A136843F474
:101E98008053136002F0DAFA0546534B1B6813F4BB
:101EA800005F1AD102F0D2FA401B0228F5D90320AC
:101EB80042E14D4A136823F48053136002F0C6FAD6
:101EC8000546494B1B6813F4005F06D002F0BEFAC2
:101ED800401B0228F5D903202EE1236813F0040FD4
:101EE80021D1636A002B00F026813F4A126902F073
:101EF8003802182A00F0EE80022B79D03A4A13688B
:101F080023F08073136002F0A1FA0446364B1B6875
:101F180013F0007F00F0DC8002F098FA001B022822
:101F2800F4D9032008E1314A136843F4807313603D
:101F380002F08CFA05462D4B1B6813F4807F06D1FE
:101F480002F084FA401B6428F5D90320F4E0A36862
:101F5800012B0AD00BBB244B1A6F22F001021A671F
:101F68001A6F22F004021A6704E01F4A136F43F045
:101F780001031367A36833B302F068FA05461A4BE6
:101F88001B6F13F0020FACD102F060FA401B41F254
:101F980088339842F3D90320CEE0052B09D0124BA1
:101FA8001A6F22F001021A671A6F22F004021A67E8
:101FB800E0E70D4B1A6F42F004021A671A6F42F0FD
:101FC80001021A67D6E702F041FA0546064B1B6F75
:101FD80013F0020F85D002F039FA401B41F2883322
:101FE8009842F3D90320A7E0004402580048025859
:101FF800594A136823F08073136002F027FA0546E4
:10200800554B1B6813F0007F06D002F01FFA401BE7
:102018000228F5D903208FE04F4B996A4F4A0A40AE
:10202800A16AE06A41EA00110A439A62226B013A06
:10203800C2F30802616B0139490289B20A43A16BF4
:102048000139090401F4FE010A43E16B013909066B
:1020580001F0FE410A431A63DA6A22F00102DA62E9
:10206800596B3F4A0A40A16C42EAC1025A63DA6AD4
:1020780022F00C02216C0A43DA62DA6A22F00202C8
:10208800616C0A43DA62DA6A42F48032DA62DA6A46
:1020980042F40032DA62DA6A42F48022DA62DA6AF8
:1020A80042F00102DA621A6842F080721A6002F0A5
:1020B800CDF90446284B1B6813F0007F06D102F0C7
:1020C800C5F9001B0228F5D9032035E0002033E0CC
:1020D800002031E0204A916A106B012B2DD001F0CD
:1020E8000303A26A93422AD1C1F30511E36A994214
:1020F80027D1C0F30802236B013B9A4223D1C0F3D6
:102108004622636B013B9A421FD1C0F30642A36B80
:10211800013B9A421BD1C0F30660E36B013B984236
:1021280017D1002008E001207047012004E00120B9
:1021380002E0012000E0002038BD0120FCE701207A
:10214800FAE70120F8E70120F6E70120F4E701208B
:10215800F2E70120F0E700BF004402580CFCFFFF43
:102168000700FFFF744B1B6903F03803102B00F0C6
:10217800DE80182B10D00BB1704870476E4B1B686F
:1021880013F0200F00F0D5806B4B1868C0F3C10026
:102198006B4B23FA00F0704710B4674A916A01F05C
:1021A8000301946AC4F30510D36A03F0010C536B5E
:1021B800C3F3CC030CFB03F307EE903AF8EE677A0F
:1021C80014F47C7F00F09380012965D0022900F087
:1021D8009180E1B107EE100AF8EE476A9FED596A5F
:1021E80086EE267A544B1B6BC3F3080306EE903A2F
:1021F800F8EE666A9FED546A67EE867A76EEA77AFD
:10220800F7EE006A77EEA67A27EE277A60E0136881
:1022180013F0200F23D011461268C2F3C102484BB5
:10222800D34007EE103AF8EE476A07EE100AB8EE08
:10223800476A86EE867A0B6BC3F3080306EE903A7C
:10224800F8EE666A9FED406A67EE867A76EEA77AC0
:10225800F7EE006A77EEA67A27EE277A38E007EEDF
:10226800100AF8EE476A9FED396A86EE267A324BF5
:102278001B6BC3F3080306EE903AF8EE666A9FED0F
:10228800326A67EE867A76EEA77AF7EE006A77EE1C
:10229800A67A27EE277A1BE007EE100AF8EE476ABF
:1022A8009FED286A86EE267A234B1B6BC3F308033F
:1022B80006EE903AF8EE666A9FED236A67EE867A34
:1022C80076EEA77AF7EE006A77EEA67A27EE277AF7
:1022D800194B1B6BC3F34623013307EE903AF8EE14
:1022E800677AC7EE276AFCEEE67A17EE900A5DF881
:1022F800044B704707EE100AF8EE476A9FED146A20
:1023080086EE267A0C4B1B6BC3F3080306EE903A55
:10231800F8EE666A9FED0C6A67EE867A76EEA77A23
:10232800F7EE006A77EEA67A27EE277AD0E7094813
:1023380070470348704700BF0044025800093D0039
:102348000090D0030024744A000000390024744C23
:1023580020BCBE4B40787D01002800F0328170B56A
:102368000D4604469B4B1B6803F00F038B420BD2B0
:10237800984A136823F00F030B431360136803F0A4
:102388000F038B4240F01F81236813F0040F0CD019
:102398002269914B9B6903F070039A4205D98E49D3
:1023A8008B6923F070031A438A61236813F0080FBE
:1023B8000CD06269884BDB6903F070039A4205D937
:1023C8008549CB6923F070031A43CA61236813F067
:1023D800100F0CD0A269804BDB6903F4E0639A42CA
:1023E80005D97D49CB6923F4E0631A43CA612368A0
:1023F80013F0200F0CD0E269774B1B6A03F07003CF
:102408009A4205D974490B6A23F070031A430A6289
:10241800236813F0020F0CD0E2686F4B9B6903F03E
:102428000F039A4205D96C498B6923F00F031A43AD
:102438008A61236813F0010F41D0674A936923F436
:102448007063A1680B4393616368022B0AD0032B66
:1024580027D0012B2CD0604A126812F0040F06D145
:102468000120ADE0126812F4003F00F0AE805A4936
:102478000A6922F0070213430B6101F0E7FF0646E1
:10248800554B1B6903F038036268B3EBC20F16D0D3
:1024980001F0DCFF801B41F288339842F0D9032019
:1024A8008EE04D4A126812F0007FE0D1012087E0EB
:1024B800494A126812F4807FD9D1012080E023684C
:1024C80013F0020F0CD0E268434B9B6903F00F0333
:1024D8009A4205D240498B6923F00F031A438A6157
:1024E8003C4B1B6803F00F03AB420AD9394A136807
:1024F80023F00F032B431360136803F00F03AB4261
:1025080065D1236813F0040F0CD02269324B9B6904
:1025180003F070039A4205D22F498B6923F07003A8
:102528001A438A61236813F0080F0CD062692A4B9A
:10253800DB6903F070039A4205D22749CB6923F07F
:1025480070031A43CA61236813F0100F0CD0A269F4
:10255800214BDB6903F4E0639A4205D21E49CB693B
:1025680023F4E0631A43CA61236813F0200F0CD0E8
:10257800E269194B1B6A03F070039A4205D21649A7
:102588000B6A23F070031A430A62FFF7EBFD124946
:102598008B69C3F30323114AD35C03F01F03D840AC
:1025A8008B6903F00F03D35C03F01F0320FA03F3D6
:1025B8000B4A13600B4B18600B4B186801F0E4FED4
:1025C80070BD012070470120FAE70120F8E70120DB
:1025D800F6E700BF0020005200440258D05A000815
:1025E80024000020200000201C00002008B5FFF770
:1025F800B9FD0B4A9369C3F303230A49CB5C03F083
:102608001F0320FA03F3926902F00F02885C00F0BE
:102618001F0023FA00F0044A1060044A136008BD42
:1026280000440258D05A000824000020200000204E
:1026380008B5FFF7DBFF054BDB69C3F30213044A58
:10264800D35C03F01F03D84008BD00BF0044025804
:10265800D05A000808B5FFF7C9FF054BDB69C3F37B
:102668000223044AD35C03F01F03D84008BD00BF0F
:1026780000440258D05A0008404B9B6A03F00303F9
:10268800032B79D070B505460E463C4A136823F0F3
:102698008063136001F0DAFE0446384B1B6813F0C0
:1026A800006F06D001F0D2FE031B022BF5D90320E0
:1026B80070BD324B9A6A22F47C32296842EA0132B0
:1026C8009A626A68013AC2F30802A96801394902A4
:1026D80089B20A43E9680139090401F4FE010A4391
:1026E80029690139090601F0FE410A439A63DA6A49
:1026F80022F0C00269690A43DA62DA6A22F020022B
:10270800A9690A43DA62DA6A22F01002DA62D96B3E
:102718001B4A0A40E96942EAC102DA63DA6A42F00E
:102728001002DA62C6B91A46DB6A43F40023D362A0
:10273800124A136843F08063136001F087FE044671
:102748000E4B1B6813F0006F14D101F07FFE001BC5
:102758000228F5D90320ABE7012E05D0074AD36A32
:1027680043F40013D362E3E7044AD36A43F48013C3
:10277800D362DDE700209BE7012070470044025840
:102788000700FFFF404B9B6A03F00303032B79D03C
:1027980070B505460E463C4A136823F08053136013
:1027A80001F054FE0446384B1B6813F0005F06D056
:1027B80001F04CFE031B022BF5D9032070BD324BF0
:1027C8009A6A22F07C72296842EA01529A626A681F
:1027D800013AC2F30802A9680139490289B20A43D9
:1027E800E9680139090401F4FE010A43296901393C
:1027F800090601F0FE410A431A64DA6A22F44062CB
:1028080069690A43DA62DA6A22F40072A9690A433A
:10281800DA62DA6A22F48072DA62596C1B4A0A4078
:10282800E96942EAC1025A64DA6A42F48072DA62F9
:10283800C6B91A46DB6A43F48003D362124A1368A6
:1028480043F08053136001F001FE04460E4B1B68F1
:1028580013F0005F14D101F0F9FD001B0228F5D92F
:102868000320ABE7012E05D0074AD36A43F08073F3
:10287800D362E3E7044AD36A43F40003D362DDE793
:1028880000209BE701207047004402580700FFFF23
:10289800F8B50446036813F0006F30D0436EB3F503
:1028A800001F26D00ED8EBB1B3F5801F07D1022147
:1028B8000430FFF7E1FE054645B12E4621E001262A
:1028C80035461EE0B3F5401F09D10025954A136D22
:1028D80023F44013616E0B431365002611E00126B3
:1028E80035460EE08F4AD36A43F40033D36200259D
:1028F800ECE702212430FFF745FF0546DCE7002618
:102908003546236813F4807F14D0636D042B30D8C8
:10291800DFE803F0032228080800824AD36A43F458
:102928000033D36245BB7F4A136D23F00703616D03
:102938000B431365236813F4007F2FD0A36D802BFE
:1029480049D01ED8002B40D0402B17D10021201D84
:10295800FFF792FE054619E00021201DFFF78CFEC7
:102968000546DFE7002104F12400FFF70BFF0546C9
:10297800D8E701263546DDE72E46DBE70126354652
:102988000CE0C02B02D0B3F5807F1BD155BB654A44
:10299800136D23F4E073A16D0B431365236813F4DF
:1029A800806F45D0D4F8A430B3F5800F38D01ED846
:1029B80083B3B3F5001F17D10021201DFFF75CFE7C
:1029C80005461AE001263546E8E7564AD36A43F435
:1029D8000033D362DAE7002104F12400FFF7D2FEC6
:1029E8000546D3E72E46D9E70126354620E0B3F55C
:1029F800C00F02D0B3F5000F09D1C5B9494A936D8C
:102A080023F46003D4F8A4100B43936510E0012667
:102A180035460DE0434AD36A43F40033D362ECE70A
:102A2800002104F12400FFF7ADFE0546E5E72E4638
:102A3800236813F4006F23D0D4F8A830B3F1007FD3
:102A480041D00DD8002B38D0B3F1807F05D10021BB
:102A5800201DFFF711FE054608E0012635460FE068
:102A6800B3F1407F02D0B3F1806F23D1002D31D173
:102A78002C4A936D23F0E063D4F8A8100B439365B8
:102A8800236813F0007F2ED0A36C202B3FD026D8CC
:102A980033B1102B20D1234AD36A43F40033D362D5
:102AA800002D3AD11F4AD36C23F03003A16C0B439D
:102AB800D36418E001263546E2E71A4AD36A43F49C
:102AC8000033D362D2E7002104F12400FFF75AFE55
:102AD8000546CBE72E46D3E70126354603E0302BE3
:102AE800DED001263546236813F4805F2BD0E36DD2
:102AF800B3F5005F4CD017D8002B43D0B3F5805FF7
:102B08000DD10021201DFFF7B7FD054612E0022177
:102B1800201DFFF7B1FD0546C2E72E46E3E7012673
:102B2800354610E000440258B3F5405F02D0B3F5D3
:102B3800804F24D1002D32D1754A136D23F4E04320
:102B4800E16D0B431365236813F4005F37D0236EE0
:102B5800B3F5003F51D027D83BB1B3F5803F20D122
:102B68000121201DFFF788FD0546002D4CD1684A3C
:102B7800136D23F4E023216E0B4313651FE0012638
:102B88003546E0E7624AD36A43F40033D362D1E7BB
:102B9800002104F12400FFF7F5FD0546CAE72E469B
:102BA800D1E7012635460AE0B3F5802FDDD0B3F52D
:102BB800A02FDAD0B3F5403FD7D001263546236899
:102BC80013F4804F30D0D4F8AC30B3F1005F44D068
:102BD8001FD83BB1B3F1805F18D10121201DFFF749
:102BE8004BFD0546002D3FD1494A936D23F0E04344
:102BF800D4F8AC100B43936516E0012104F12400CE
:102C0800FFF7C0FD0546B0E72E46D8E70126354652
:102C18000AE0B3F1804FE5D0B3F1A04FE2D0B3F1B1
:102C2800405FDFD001263546236813F4004F09D0F2
:102C3800E36EB3F1805F19D0B3F1005F24D0D3B154
:102C480001263546236813F0807F32D0636C032B4E
:102C580059D8DFE803F026215226012104F1240087
:102C6800FFF790FD0546BDE72E46DDE7284AD36A03
:102C780043F40033D3626DB9254A136D23F04053F2
:102C8800E16E0B431365DDE70121201DFFF7F4FC1E
:102C98000546F0E72E46D5E71D4AD36A43F40033CC
:102CA800D3629DBB1A4AD36C23F00303616C0B43B8
:102CB800D364236813F4800F2CD1236813F0010F19
:102CC80000F0A380A36F282B00F29D80DFE803F0BB
:102CD8008B9B9B9B9B9B9B9B869B9B9B9B9B9B9B61
:102CE800949B9B9B9B9B9B9B8B9B9B9B9B9B9B9B43
:102CF8008B9B9B9B9B9B9B9B8B000221201DFFF723
:102D0800BBFC0546CDE701263546D2E72E46D0E77F
:102D1800004402588F4A136843F48073136001F02B
:102D280095FB07468B4B1B6813F4807F05D101F098
:102D38008DFBC01B6428F5D90325002D4AD1864B8D
:102D48001B6FD4F8B020534013F4407F0CD0824B53
:102D58001A6F22F44072196F41F480311967196FA4
:102D680021F4803119671A67D4F8B030B3F5807F41
:102D780015D08DBBD4F8B03003F44072B2F5407F63
:102D88001ED0754A136923F47C53136172490B6F83
:102D9800D4F8B020C2F30B0213430B678DE701F0A0
:102DA80055FB07466C4B1B6F13F0020FE1D101F086
:102DB8004DFBC01B41F288339842F3D90325D8E76D
:102DC8006548026922F47C52644901EA13131343EB
:102DD8000361DBE72E4670E72E466EE70121201DD2
:102DE800FFF74AFC0546E5B95B4A536D23F0380303
:102DF800A16F0B43536508E0012104F12400FFF79C
:102E0800C1FC0546EFE701263546236813F0020F9B
:102E180016D0636F052B27D8DFE803F00A051F0AD1
:102E28000A0A2E46F1E70121201DFFF725FC054679
:102E3800EDB9494A536D23F00703616F0B4353659E
:102E4800236813F0040F22D0D4F89030052B43D810
:102E5800DFE803F0140F3B141414012104F12400DB
:102E6800FFF790FC0546E3E701263546E8E72E46DE
:102E7800E6E70121201DFFF7FFFB05467DBB364A2B
:102E8800936D23F00703D4F890100B4393652368E0
:102E980013F0200F33D0D4F88C30B3F1005F4CD04E
:102EA80022D83BB1B3F1805F1BD10021201DFFF771
:102EB800E3FB0546002D47D1274A536D23F0E04335
:102EC800D4F88C100B43536519E0012104F1240058
:102ED800FFF758FC0546D1E701263546D7E72E46C9
:102EE800D5E7012635460AE0B3F1804FE2D0B3F1C9
:102EF800A04FDFD0B3F1405FDCD001263546236810
:102F080013F0400F37D0D4F89830B3F5006F52D093
:102F180026D83BB1B3F5806F18D10021201DFFF7EB
:102F2800ABFB0546002D4DD10B4A936D23F4E053BE
:102F3800D4F898100B4393651DE0022104F1240096
:102F4800FFF720FC0546B5E72E46D8E701263546AB
:102F580011E000BF0048025800440258CFFFFF00AC
:102F6800B3F5805FDED0B3F5A05FDBD0B3F5406F7B
:102F7800D8D001263546236813F0800F32D0D4F814
:102F88009C30B3F5804F00F09D8020D83BB1B3F55D
:102F9800005F19D10021201DFFF76EFB0546002DAB
:102FA80040F09780A54A936D23F46043D4F89C10B1
:102FB8000B43936516E0022104F12400FFF7E2FBBE
:102FC8000546AFE72E46D6E7012635460AE0B3F5B3
:102FD800004FE4D0B3F5204FE1D0B3F5C04FDED0B9
:102FE80001263546236813F0080F0CD0D4F880303A
:102FF800B3F5805F6FD0914A536D23F44053D4F8F2
:1030080080100B435365236813F0100F0CD0D4F8CD
:103018009430B3F5807F67D0884A936D23F440736A
:10302800D4F894100B439365236813F4002F0BD046
:10303800D4F8A030B3F5803F6ED0B3F5003F61D02F
:10304800002B5AD001263546236813F4802F0CD064
:10305800D4F88430B3F5001F76D0B3F5401F69D09B
:10306800B3F5801F61D001263546236813F4803FED
:1030780007D0E36C002B70D0B3F5803F7BD00126DE
:103088003546236813F0005F7DD1236813F4003FB1
:1030980000F08680E36FB3F5807F00F0C6807CD9AE
:1030A800B3F5007F03D0B3F5407F40F0BC80002D1E
:1030B80040F0C180614A536D23F44073E16F0B43C4
:1030C80053656DE0022104F12400FFF75BFB054620
:1030D80065E72E4686E7022104F12400FFF752FB3C
:1030E800002888D0012686E7022104F12400FFF792
:1030F80049FB002890D001268EE70021201DFFF70C
:10310800BBFA05467DB94D4A936D23F44033D4F894
:10311800A0100B43936597E7022104F12400FFF701
:1031280031FB0546EEE72E468EE7444AD36A43F460
:103138000033D3627DB9414A536D23F44013D4F868
:1031480084100B43536590E7012104F12400FFF735
:1031580019FB0546EEE72E4687E7384AD36A43F45B
:103168000033D3626DB9354AD36C23F48033E16CF4
:103178000B43D36485E70221201DFFF77DFA05463E
:10318800F0E72E467DE7022104F12400FFF7FAFA62
:1031980000283FF47AAF012677E7002B87D0012675
:1031A800236813F4801F06D0244A136D23F00043CC
:1031B800216F0B431365236813F0805F07D01F4A04
:1031C800136923F48043D4F8B4100B4313612368C4
:1031D80013F4001F06D0194A136D23F08073A16EF3
:1031E8000B431365236813F0804F09D0134B1A69FA
:1031F80022F400421A611A69D4F8B8100A431A6115
:103208002368002B1CDB236813F4000F07D00B4A3C
:10321800536D23F44003D4F888100B43536506B16B
:1032280001263046F8BD0126BAE7044AD36A43F4BA
:103238000033D3623BE72E46B2E700BF0044025892
:10324800034AD36C23F04053216D0B43D364DAE770
:103258000044025808B5FFF7C9F9054B1B6AC3F3C8
:103268000213044AD35C03F01F03D84008BD00BF13
:1032780000440258D05A000810B5774A916A946AF7
:10328800C4F3053ED36AC3F3001CD36BC3F3CC036A
:103298000CFB03F314F47C3F00F0D88001F0030129
:1032A80007EE903AF8EE677A012965D0022900F016
:1032B800B080E1B107EE10EAB8EE477A9FED676A91
:1032C800C6EE076A644B9B6BC3F3080307EE103A1C
:1032D800B8EE477A9FED626A67EE867A77EE277ACC
:1032E800B7EE007A77EE877A66EEA76A60E0136831
:1032F80013F0200F23D011461268C2F3C102594BB4
:10330800D34007EE103AB8EE477A06EE90EAB8EEE8
:10331800666AC7EE066A8B6BC3F3080307EE103ABA
:10332800B8EE477A9FED4E6A67EE867A77EE277A8F
:10333800B7EE007A77EE877A66EEA76A38E007EE8E
:1033480010EAB8EE477A9FED486AC6EE076A424B24
:103358009B6BC3F3080307EE103AB8EE477A9FED6C
:10336800406A67EE867A77EE277AB7EE007A77EECC
:10337800877A66EEA76A1BE007EE10EAB8EE477A8E
:103388009FED366AC6EE076A334B9B6BC3F308039F
:1033980007EE103AB8EE477A9FED316A67EE867A03
:1033A80077EE277AB7EE007A77EE877A66EEA76A25
:1033B800294A936BC3F3462307EE103AB8EE477ACF
:1033C800B7EE006A37EE067AC6EE877AFCEEE77A41
:1033D800C0ED007A936BC3F3064307EE103AB8EEDC
:1033E800477A37EE067AC6EE877AFCEEE77AC0EDC2
:1033F800017A936BC3F3066307EE903AF8EE677AA7
:1034080077EE867A86EEA77ABCEEC77A80ED027AE6
:1034180010BD07EE10EAB8EE477A9FED146AC6EEC3
:10342800076A0D4B9B6BC3F3080307EE103AB8EE1F
:10343800477A9FED0B6A67EE867A77EE277AB7EEC2
:10344800007A77EE877A66EEA76AB1E70023036011
:1034580043608360DCE700BF004402580024744ADC
:10346800000000390090D0030024744C20BCBE4BEF
:1034780010B5774A916A946AC4F3055ED36AC3F3B8
:10348800002C536CC3F3CC030CFB03F314F07C7FC8
:1034980000F0D88001F0030107EE903AF8EE677A61
:1034A800012965D0022900F0B080E1B107EE10EAE9
:1034B800B8EE477A9FED676AC6EE076A644B1B6CE5
:1034C800C3F3080307EE103AB8EE477A9FED626A35
:1034D80067EE867A77EE277AB7EE007A77EE877A04
:1034E80066EEA76A60E0136813F0200F23D0114638
:1034F8001268C2F3C102594BD34007EE103AB8EE36
:10350800477A06EE90EAB8EE666AC7EE066A0B6C72
:10351800C3F3080307EE103AB8EE477A9FED4E6AF8
:1035280067EE867A77EE277AB7EE007A77EE877AB3
:1035380066EEA76A38E007EE10EAB8EE477A9FED24
:10354800486AC6EE076A424B1B6CC3F3080307EED2
:10355800103AB8EE477A9FED406A67EE867A77EEC2
:10356800277AB7EE007A77EE877A66EEA76A1BE0CD
:1035780007EE10EAB8EE477A9FED366AC6EE076A9C
:10358800334B1B6CC3F3080307EE103AB8EE477AC7
:103598009FED316A67EE867A77EE277AB7EE007A82
:1035A80077EE877A66EEA76A294A136CC3F3462337
:1035B80007EE103AB8EE477AB7EE006A37EE067AA9
:1035C800C6EE877AFCEEE77AC0ED007A136CC3F397
:1035D800064307EE103AB8EE477A37EE067AC6EE9B
:1035E800877AFCEEE77AC0ED017A136CC3F30663C1
:1035F80007EE903AF8EE677A77EE867A86EEA77A43
:10360800BCEEC77A80ED027A10BD07EE10EAB8EE7C
:10361800477A9FED146AC6EE076A0D4B1B6CC3F31D
:10362800080307EE103AB8EE477A9FED0B6A67EE8B
:10363800867A77EE277AB7EE007A77EE877A66EEA3
:10364800A76AB1E70023036043608360DCE700BF3B
:10365800004402580024744A000000390090D00346
:103668000024744C20BCBE4B144BDB6813F0010FD4
:1036780009D0124B124A5A6002F188325A60DB684C
:1036880013F0010F14D10D4BD3F80C3113F0010FC7
:1036980010D00A4B0A4AC3F8042102F18832C3F851
:1036A8000421D3F80C3113F0010F05D10020704725
:1036B8000120704700207047012070470020005209
:1036C800230167450D4BDA6842F00102DA60DB68D6
:1036D80013F0010F0DD0094BD3F80C2142F0010271
:1036E800C3F80C21D3F80C3113F0010F03D00020DC
:1036F8007047012070470120704700BF002000522A
:10370800F8B505460E4600F0A1FE0746022E09D080
:10371800042417E000F09AFEC01BA8425ED88DB9B9
:1037280003204CE0304C0DE0304BD3F8103124EA44
:10373800030333F000430CBF012300236BB1B5F141
:10374800FF3FE7D134F00403EED1284B1B6934EA7C
:1037580003030CBF01230023F0E7012E1CD0234BE9
:10376800D3F8103123F0684323F480135B0C5B0417
:1037780043F0004333F0004117D1012E23D01B4BF7
:10378800D3F8103113F4803F2CD0184B4FF480320B
:10379800C3F81421002012E0144B1B6923F068437E
:1037A80023F480135B0C5B04E4E7114882691A4335
:1037B8008261002B04DA0D4BC3F814110120F8BD07
:1037C8000A4A5361FAE7094B1B6913F4803F07D093
:1037D800064B4FF480325A610020F0E70320EEE7F1
:1037E8000020ECE70020EAE70400008000200052F7
:1037F800600300202D4B1B7D012B53D070B50D4667
:1038080014462A4B01221A7501F17843B3F5801F3B
:103818003AD3A1F10161B1F5801F45D20226234BAD
:1038280000229A6131464CF25030FFF769FF38BBED
:10383800012E2BD01E4AD2F80C3143F00203C2F8F5
:103848000C31BFF36F8FBFF34F8F082354F8042B4D
:1038580045F8042B013B13F0FF03F7D1BFF36F8F3B
:10386800BFF34F8F31464CF25030FFF749FF012E1E
:1038780012D00F4AD2F80C3123F00203C2F80C31EF
:103888000A4B00221A7570BD0126C8E7084AD3689A
:1038980043F00203D360D4E7054AD36823F0020358
:1038A800D360EDE7022070470120ECE760030020B9
:1038B8000020005201F00303032B24D011F0010F64
:1038C8000BD01D4BDA6822F03002DA60DA68024366
:1038D800DA60DA6842F08802DA6011F0020F11D07B
:1038E800154BD3F80C2122F03002C3F80C21D3F881
:1038F8000C211043C3F80C01D3F80C2142F08802C4
:10390800C3F80C2170470C4BDA6822F03002DA60F9
:10391800D3F80C2122F03002C3F80C21DA680243F4
:10392800DA60D3F80C211043C3F80C019A6942F00D
:1039380010029A61704700BF0020005210B411F0C5
:10394800010F0CD0114CE36823F4E663E360E368ED
:1039580042EA002C43EA0C0343F08403E36011F0CD
:10396800020F0FD00949D1F80C3123F4E663C1F8EE
:103978000C31D1F80C3142EA00221A4342F0840299
:10398800C1F80C215DF8044B704700BF00200052BD
:10399800F8B5474B1B7D012B00F0888004460F4685
:1039A800434B01221A7500229A61436813F0010FF4
:1039B8000DD10025636813F0020F12D1CDB9236829
:1039C800012B1BD04FF0FF333B60A6684CE0012170
:1039D8004CF25030FFF794FE05460028EAD0012546
:1039E800E8E702214CF25030FFF78AFE0028E5D0C4
:1039F80001252F4B00221A752846F8BD61682069F9
:103A0800FFF758FF636813F0010F12D1636813F0D2
:103A1800020FEED002214CF25030FFF771FE00B1D8
:103A28000125244AD2F80C3123F00803C2F80C31DE
:103A3800DFE701214CF25030FFF762FE00B10125AB
:103A48001C4AD36823F00803D360DFE701214CF256
:103A58005030FFF755FE0546164AD168164B0B4005
:103A6800D3600FE005BB0136E368A2681344B34294
:103A7800BFD9226961683046FFF760FF636813F0B9
:103A8800010FE3D1636813F0020FEBD002214CF26F
:103A98005030FFF735FE0546064AD2F80C11064BA2
:103AA8000B40C2F80C31DDE73E60A2E70225A3E730
:103AB8006003002000200052FBF8FFFFF0B583B040
:103AC80000236BE085685E000324B44025EA040502
:103AD800CC68B4402C438460446824EA0C0C4C68DD
:103AE800C4F300149C4044EA0C04446068E0DD0818
:103AF800083550F8256003F007044FEA840C0F24BA
:103B080004FA0CF426EA040E0C6904FA0CF444EAEC
:103B18000E0440F825406BE0092400E0002404FA74
:103B28000EF42C430CF1020C694D45F82C404FF073
:103B3800B0442568D44325EA02064F6817F4801F6D
:103B480001D042EA05064FF0B0452E606D6804EAE0
:103B580005064F6817F4001F01D042EA05064FF02A
:103B6800B0456E60D5F8845004EA05064F6817F42E
:103B7800003F01D042EA05064FF0B045C5F8846021
:103B8800D5F880502C404E6816F4803F01D042EAA8
:103B980005044FF0B042C2F8804001330A6832FA97
:103BA80003F400F092804FF0010C0CFA03FC1CEABD
:103BB8000202F2D04C6804F00304013C012C81D9C4
:103BC8004C6804F00304032C0CD0C4685D004FF06B
:103BD800030C0CFA05FC24EA0C0C8C68AC4044EA93
:103BE8000C04C4604C6804F00304022C3FF47FAF5B
:103BF80004684FEA430E4FF0030C0CFA0EFC24EA5B
:103C08000C0C4C6804F0030404FA0EF444EA0C04A7
:103C180004604C6814F4403FBFD02E4CD4F8F450E4
:103C280045F00205C4F8F450D4F8F44004F0020456
:103C38000194019C4FEA930C0CF10205244C54F8B2
:103C4800255003F003044FEA840E0F2404FA0EF4FF
:103C580025EA0405204CA0423FF460AF04F58064D7
:103C6800A04222D004F58064A04220D004F58064EC
:103C7800A0421ED004F58064A0421CD004F58064E4
:103C8800A0421AD004F58064A04218D004F58064DC
:103C9800A04216D004F58064A04214D004F58064D4
:103CA800A0423FF439AF0A2439E7012437E7022458
:103CB80035E7032433E7042431E705242FE70624F6
:103CC8002DE707242BE7082429E703B0F0BD00BF40
:103CD8000004005800440258000002580AB18161EB
:103CE8007047090481617047436901EA030221EAC8
:103CF800030141EA024181617047000070B5044642
:103D080000F0A4FB002C00F09181054694F83530B2
:103D1800DBB2022B06D080236365002384F834309D
:103D2800012070BD23688C498C4A934218BF8B428E
:103D380030D0183293422DD0183293422AD01832FC
:103D4800934227D01832934224D01832934221D07C
:103D5800183293421ED002F5567293421AD0183286
:103D6800934217D01832934214D01832934211D08C
:103D7800183293420ED0183293420BD01832934225
:103D880008D01832934205D01A6822F00E021A6041
:103D9800266809E01A6822F01E021A602268536930
:103DA80023F080035361266823686B496B4A93426A
:103DB80018BF8B4242D0183293423FD018329342F8
:103DC8003CD01832934239D01832934236D0183248
:103DD800934233D01832934230D002F55672934250
:103DE8002CD01832934229D01832934226D0183258
:103DF800934223D01832934220D0183293421DD0D8
:103E0800183293421AD01832934217D0544A934228
:103E180014D01432934211D0143293420ED014327B
:103E280093420BD01432934208D01432934205D0F7
:103E38001432934202D01432934204D1226E136892
:103E480023F48073136023684349444A934218BF9C
:103E58008B422FD0183293422CD01832934229D05B
:103E68001832934226D01832934223D01832934204
:103E780020D0183293421DD002F55672934219D0C1
:103E88001832934216D01832934213D01832934204
:103E980010D0183293420DD0183293420AD01832FB
:103EA800934207D01832934204D01A6822F00102D4
:103EB8001A6003E01A6822F001021A60336813F0EE
:103EC800010F0ED000F0C2FA431B052BF6D92023B0
:103ED8006365032384F83530002384F834300120E7
:103EE8001FE723681C491D4A934218BF8B4239D0EB
:103EF8001832934236D01832934233D01832934254
:103F080030D0183293422DD0183293422AD018322A
:103F1800934227D002F55672934223D01832934227
:103F280020D0183293421DD0183293421AD018323A
:103F3800934217D01832934214D01832934211D0BA
:103F4800183293420ED0A16DE36D03F01F020123D6
:103F580093404B600DE000BF100002402800024073
:103F680008540258A16DE36D03F01F023F239340EC
:103F78008B6023682E492F4A934218BF8B4242D048
:103F8800183293423FD0183293423CD018329342B1
:103F980039D01832934236D01832934233D018327F
:103FA800934230D002F5567293422CD01832934285
:103FB80029D01832934226D01832934223D018328F
:103FC800934220D0183293421DD0183293421AD00F
:103FD8001832934217D0184A934214D0143293429D
:103FE80011D0143293420ED0143293420BD01432B3
:103FF800934208D01432934205D01432934202D02F
:10400800143293420BD1636EA26E5A60E36E33B1E1
:104018001A6822F480721A60236F626F5A60012353
:1040280084F83530002084F834007AE6012078E6F8
:10403800100002402800024008540258002800F0EE
:10404800298108B5024690F83530DBB2022B03D03F
:1040580080234365012008BD0368904890498B423E
:1040680018BF83420CBF0121002166D03030834243
:1040780063D01830834260D0183083425DD0183046
:1040880083425AD01830834257D01830834254D0D4
:1040980000F55670834250D0183083424DD0183006
:1040A80083424AD01830834247D01830834244D0E4
:1040B8001830834241D0183083423ED018308342B2
:1040C8003BD0196821F00E0119601368A0F59560BE
:1040D80073498B4218BF83426AD072498B4267D0BA
:1040E80018318B4264D018318B4261D018318B4221
:1040F8005ED018318B425BD018318B4258D001F515
:1041080056718B4254D018318B4251D018318B42A2
:104118004ED018318B424BD018318B4248D01831D1
:104128008B4245D018318B4242D018318B423FD058
:10413800196821F0010119603EE0042082F8350079
:1041480081BB584A93422DD0183293422AD0183254
:10415800934227D01832934224D01832934221D068
:10416800183293421ED002F5567293421AD0183272
:10417800934217D01832934214D01832934211D078
:10418800183293420ED0183293420BD01832934211
:1041980008D01832934205D01A6822F001021A603A
:1041A800002058E71A6822F001021A60002052E73E
:1041B800196821F0010119601368384838498B42A1
:1041C80018BF834242D018318B423FD018318B42FE
:1041D8003CD018318B4239D018318B4236D0183147
:1041E8008B4233D018318B4230D001F556718B4257
:1041F8002CD018318B4229D018318B4226D0183157
:104208008B4223D018318B4220D018318B421DD0DD
:1042180018318B421AD018318B4217D022498B4261
:1042280014D014318B4211D014318B420ED014317A
:104238008B420BD014318B4208D014318B4205D0FD
:1042480014318B4202D014318B4217D1116E0B6896
:1042580023F480730B60906DD36D03F01F0101236D
:104268008B404360536E916E5960D36E33B11968B9
:1042780021F480711960136F516F5960012382F81E
:104288003530002382F83430136D2BB1104698472F
:104298000020E0E6012070470020DCE61000024024
:1042A800280002404000024008540258134BDB68C3
:1042B80013F0040F07D1114BDB6803F007038342A7
:1042C8001AD00120704710B50C4AD36823F00703B1
:1042D8001843D06000F0BAF80446084B5B6813F442
:1042E800005F07D100F0B2F8001BB0F57A7FF4D96F
:1042F800012000E0002010BD00207047004802584F
:104308007047000010B5194B194ADA670024DC67BA
:10431800184AC3F88020C3F8804040F27122C3F8DD
:104328008420C3F88440144AC3F88820C3F888401E
:104338001822C3F88C20C3F88C40104AC3F8902088
:10434800C3F890404FF49B72C3F89420C3F894408C
:104358000B4AC3F89820C3F898400A4AC3F89C202F
:10436800C3F89C40FFF7CCFF204610BD004402581C
:104378003150010023C0000AFF072803FFC3FFE8EC
:104388003330D731AADE2000104B1B780BB901203F
:10439800704710B504464FF47A70B0FBF3F30C4A3B
:1043A8001068B0FBF3F0FDF787F868B90F2C01D956
:1043B80001200AE0002221464FF0FF30FDF738F8CF
:1043C800044B1C60002000E0012010BD18000020F4
:1043D800200000201C00002010B50320FDF716F86F
:1043E800FDF7C0FE0F498B69C3F303230E4AD35C64
:1043F80003F01F03D8408B6903F00F03D35C03F06D
:104408001F0320FA03F3094A1360094B18600F20B1
:10441800FFF7BAFF10B10124204610BD0446FCF78F
:10442800E3FFF9E700440258D05A000824000020AE
:1044380020000020034B1B78034A11680B441360CB
:10444800704700BF180000207C030020014B18684B
:10445800704700BF7C030020014B1868000C7047B0
:104468000010005C026852E8003F23F4907342E8B1
:1044780000310029F6D1026802F1080353E8001F51
:104488000D4B0B40083242E800310029F3D1C36ECE
:10449800012B06D02023C0F888300023C3660367A9
:1044A8007047026852E8003F23F0100342E80031E9
:1044B8000029F6D1EEE700BFFEFFFFEF704708B511
:1044C800026852E8003F23F0400342E80031002927
:1044D800F6D12023C0F8843000234367FFF7EEFFAE
:1044E80008BD704708B5806B0023A0F85E30A0F8BF
:1044F8005630FFF7F6FF08BD7047000070B5044658
:104508000168CB6908688D6840F60F021A4008D127
:1045180013F0200F05D010F0200F34D115F0805F74
:1045280031D12AB1894A2A4033D1894E304230D11B
:10453800E26E012A00F0C38013F4801F03D015F443
:10454800800F40F0928113F0800F07D010F0800F99
:1045580040F0928115F4000F40F08E8113F0400F67
:1045680003D010F0400F40F08E8113F4000F03D0F9
:1045780010F0804F40F08B8113F0807F02D000282C
:10458800C0F2898170BD236F002BFBD0204698476D
:10459800F8E713F0010F09D010F4807F06D0012648
:1045A8000E62D4F88C103143C4F88C1013F0020F4B
:1045B8000BD015F0010F08D0216802260E62D4F83E
:1045C8008C1041F00401C4F88C1013F0040F0BD0C8
:1045D80015F0010F08D0216804260E62D4F88C105B
:1045E80041F00201C4F88C1013F0080F0BD010F042
:1045F800200F00D13AB1226808211162D4F88C202A
:104608000A43C4F88C2013F4006F0CD010F0806FAC
:1046180009D022684FF400611162D4F88C2042F06E
:104628002002C4F88C20D4F88C20002AAAD013F0D9
:10463800200F09D010F0200F02D115F0805F03D0B1
:10464800236F0BB120469847D4F88C2023689B68C9
:1046580013F0400F02D112F0280F29D02046FFF79F
:1046680001FF23689B6813F0400F1DD0226802F1F8
:10467800080353E8003F23F04003083242E80031C2
:104688000029F3D1E36F5BB1324A1A65E06FFFF797
:10469800D5FC00283FF476AFE06F036D984771E7CB
:1046A8002046FFF71EFF6DE72046FFF71AFF69E770
:1046B8002046FFF716FF0023C4F88C3062E713F09A
:1046C800100F3FF439AF10F0100F3FF435AF10233F
:1046D8000B6223689B6813F0400F00F08E80E26F36
:1046E80013681D481D498B4218BF834238D01831C2
:1046F8008B4235D018318B4232D018318B422FD0B3
:1047080018318B422CD018318B4229D018318B426A
:1047180026D001F556718B4222D018318B421FD01A
:1047280018318B421CD018318B4219D018318B426A
:1047380016D018318B4213D018318B4210D0183153
:104748008B420DD05B689BB20CE000BF01000010EB
:1047580020010004ED440008100002402800024037
:104768005B689BB2002B3FF40DAFB4F85C10994224
:104778007FF608AFA4F85E30D369B3F5807F31D0F7
:10478800226852E8003F23F4807342E80031002990
:10479800F6D1226802F1080353E8003F23F0010331
:1047A800083242E800310029F3D1226802F10803F7
:1047B80053E8003F23F04003083242E80031002963
:1047C800F3D12023C4F888300023E366226852E836
:1047D800003F23F0100342E800310029F6D1E06FD2
:1047E800FFF78CFAB4F85C10B4F85E309BB2C91AC3
:1047F80089B22046FFF780FEC4E6B4F85C10B4F82E
:104808005E309BB2C91A89B2B4F85E309BB2002BF5
:104818003FF4B8AE00293FF4B5AE226852E8003F35
:1048280023F4907342E800300028F6D1226802F1A0
:10483800080353E8000F1A4B0340083242E80030DF
:104848000028F3D12023C4F888300023E3662367C7
:10485800226852E8003F23F0100342E800300028A5
:10486800F6D12046FFF748FE8CE64FF480130B6222
:10487800204601F00DF885E6636F002B3FF482AE09
:10488800204698477EE62046FFF719FE7AE620463E
:1048980001F000F876E6204600F0FBFF72E600BF64
:1048A800FEFFFFEF08B5B0F86030D0F88820222A64
:1048B80005D00268936943F00803936108BD026854
:1048C800516ADBB2826D0B401370836D01338365CF
:1048D800B0F85E309BB2013B9BB2A0F85E30B0F8F6
:1048E8005E309BB2002BE9D1026852E8003F23F406
:1048F800907342E800310029F6D1026802F10803FA
:1049080053E8003F23F00103083242E80031002950
:10491800F3D12023C0F8883000230367C36E012B2E
:1049280016D10023C366026852E8003F23F0100343
:1049380042E800310029F6D10368DA6912F0100F55
:1049480001D010221A62B0F85C10FFF7D5FDB5E768
:10495800FCF758FBB2E708B5B0F86020D0F888300B
:10496800222B05D00268936943F00803936108BDC0
:1049780003685B6A816D13400B80836D0233836526
:10498800B0F85E309BB2013B9BB2A0F85E30B0F845
:104998005E309BB2002BEAD1026852E8003F23F454
:1049A800907342E800310029F6D1026802F1080349
:1049B80053E8003F23F00103083242E800310029A0
:1049C800F3D12023C0F8883000230367C36E012B7E
:1049D80016D10023C366026852E8003F23F0100393
:1049E80042E800310029F6D10368DA6912F0100FA5
:1049F80001D010221A62B0F85C10FFF77DFDB6E70F
:104A0800FCF700FBB3E700002DE9F843B0F860605D
:104A18000368DD69D3F80090D3F80880D0F88820BF
:104A2800222A05D09A6942F008029A61BDE8F88303
:104A38000446B0F8687008E0D4F88C30002B4CD1EC
:104A4800B4F85E309BB2002B4ED0002F00F085806A
:104A580015F0200F00F081802368596AF3B2A26D27
:104A68000B401370A36D0133A365B4F85E309BB29D
:104A7800013B9BB2A4F85E302368DD6915F0070F8F
:104A8800DED015F0010F09D019F4807F06D001227D
:104A98001A62D4F88C301343C4F88C3015F0020F26
:104AA8000BD018F0010F08D0236802221A62D4F83C
:104AB8008C3043F00403C4F88C3015F0040FBBD0DD
:104AC80018F0010FB8D0236804221A62D4F88C3089
:104AD80043F00203C4F88C30AEE72046FFF701FD2F
:104AE8000023C4F88C30ABE7226852E8003F23F477
:104AF800807342E800310029F6D1226802F10803E8
:104B080053E8001F264B0B40083242E800310029C9
:104B1800F3D12023C4F8883000232367E36E012BE8
:104B280003D02046FCF76EFA8FE70023E36622687D
:104B380052E8003F23F0100342E800310029F6D183
:104B48002368DA6912F0100F01D010221A62B4F843
:104B58005C102046FFF7D0FC77E7B4F85E309BB2D4
:104B6800002B3FF463AFB4F868209A427FF65EAF3B
:104B7800226802F1080353E8003F23F0805308320B
:104B880042E800310029F3D1064B2367226852E836
:104B9800003F43F0200342E800310029F6D145E701
:104BA800FEFFFFEFAD4800082DE9F843B0F860605C
:104BB8000368DD69D3F80090D3F80880D0F888201E
:104BC800222A05D09A6942F008029A61BDE8F88362
:104BD8000446B0F8687008E0D4F88C30002B4AD14D
:104BE800B4F85E309BB2002B4CD0002F00F08380CD
:104BF80015F0200F7FD023685B6AA26D33401380C5
:104C0800A36D0233A365B4F85E309BB2013B9BB23F
:104C1800A4F85E302368DD6915F0070FE0D015F0C1
:104C2800010F09D019F4807F06D001221A62D4F846
:104C38008C301343C4F88C3015F0020F0BD018F0E9
:104C4800010F08D0236802221A62D4F88C3043F08E
:104C58000403C4F88C3015F0040FBDD018F0010F10
:104C6800BAD0236804221A62D4F88C3043F00203C5
:104C7800C4F88C30B0E72046FFF733FC0023C4F8B3
:104C88008C30ADE7226852E8003F23F4807342E895
:104C980000310029F6D1226802F1080353E8001F09
:104CA800264B0B40083242E800310029F3D120237B
:104CB800C4F8883000232367E36E012B03D0204615
:104CC800FCF7A0F991E70023E366226852E8003F69
:104CD80023F0100342E800310029F6D12368DA698D
:104CE80012F0100F01D010221A62B4F85C1020469E
:104CF800FFF702FC79E7B4F85E309BB2002B3FF473
:104D080065AFB4F868209A427FF660AF226802F176
:104D1800080353E8003F23F08053083242E800318B
:104D28000029F3D1064B2367226852E8003F43F07D
:104D3800200342E800310029F6D147E7FEFFFFEFE4
:104D48005F490008D0F88420D0F8880010437047E5
:104D580070B586B0044601688368026913434269E6
:104D68001343C26913430868884A024013430B601F
:104D78002268536823F44053E1680B435360A169E8
:104D88002268834B9A4201D0236A19439068814B69
:104D980003400B4393602268D36A23F00F03616AD0
:104DA8000B43D36222687C4B9A4221D07B4B9A42B8
:104DB80000F08C807A4B9A4200F0A280794B9A429C
:104DC80000F0B580784B9A4200F0C880774B9A4241
:104DD80000F0F480764B9A4200F01981754B9A42A4
:104DE80000F02C816A4B9A4200F03F81802333E027
:104DF800714B5B6D03F03803282B65D8DFE813F09F
:104E080029006400640064006400640064006400B5
:104E18004D01640064006400640064006400640080
:104E28002B00640064006400640064006400640093
:104E38005E00640064006400640064006400640050
:104E4800600064006400640064006400640064003E
:104E58006200012300E008234D498A4200F02F81B7
:104E6800E069B0F5004F00F0AF81202B00F2078217
:104E7800202B00F25182DFE813F01E0224024F02B9
:104E88004F0227024F024F024F022C024F024F02DD
:104E98004F024F024F024F024F0231024F024F02A0
:104EA8004F024F024F024F024F024F024F024F0272
:104EB8004F024F024F024F024F023D021023CBE731
:104EC8002023C9E74023C7E78023C5E73A4B5B6D3A
:104ED80003F00703052B11D8DFE813F00600E10003
:104EE80008000A000C000E000023B5E70823B3E70A
:104EF8001023B1E72023AFE74023ADE78023ABE7DA
:104F08002D4B5B6D03F00703052B0ED8DFE803F08C
:104F180003C90507090B00239EE708239CE7102314
:104F28009AE7202398E7402396E7802394E7224BCB
:104F38005B6D03F00703052B0ED8DFE803F003B41D
:104F48000507090B002387E7082385E7102383E774
:104F5800202381E740237FE780237DE7164B5B6DA5
:104F680003F00703052B0ED8DFE803F0039F0507BE
:104F7800090B002370E708236EE710236CE7202352
:104F88006AE7402368E7802366E700BFF369FFCF3D
:104F9800000C0058FFF4FF110010014000440040CD
:104FA80000480040004C0040005000400014014000
:104FB80000780040007C0040004402587D4B5B6D47
:104FC80003F03803282B20D8DFE803F0151F1F1F34
:104FD8001F1F1F1F711F1F1F1F1F1F1F171F1F1F8F
:104FE8001F1F1F1F191F1F1F1F1F1F1F1B1F1F1FD3
:104FF8001F1F1F1F1D0001232EE708232CE7102366
:105008002AE7202328E7402326E7802324E7694B63
:105018005B6D03F00703052B0ED8DFE803F0034AA6
:105028000507090B002317E7082315E7102313E7E3
:10503800202311E740230FE780230DE75D4B5B6DCD
:1050480003F00703052B0ED8DFE803F00335050747
:10505800090B002300E70823FEE61023FCE62023C3
:10506800FAE64023F8E68023F6E603F50E339B6D57
:1050780003F00703052B0ED8DFE803F0031F05072D
:10508800090B0223E8E60823E6E61023E4E62023DA
:10509800E2E64023E0E68023DEE60423DCE60423A0
:1050A800DAE60423D8E60423D6E60423D4E6042368
:1050B800D2E60423D0E60423CEE60423CCE6202B54
:1050C80027D8022BC0F01A81023B1E2B00F2188150
:1050D800DFE813F0500016015600160116011601FC
:1050E8005B001601160116011601160116011601BC
:1050F80060001601160116011601160116011601A7
:1051080016011601160116011601160116011601DF
:105118006C00402B2CD14FF40040626A264B33F8C8
:105128001220B0FBF2F3656805EB4501994200F2E5
:10513800E980B3EB053F00F2E780002633463146AD
:10514800FBF760F9090241EA106100026B08C01818
:105158002A46334641F10001FBF754F9A0F54072A5
:10516800164B9A4200F2D2802368D8603046D4E0C9
:105178000120D2E0FEF76EF80028CED10020CCE066
:1051880003A8FEF779F80498F6E76846FEF770F981
:105198000198F1E7074B1B6813F0200F08D0054B67
:1051A8001B68C3F3C1030648D840E5E70548B4E7E0
:1051B8000348B2E700440258A85A0008FFFC0F0051
:1051C8000090D00300093D00202B15D8202B00F2B9
:1051D8009F80DFE803F031379D9D3A9D9D9D3F9D5F
:1051E8009D9D9D9D9D9D449D9D9D9D9D9D9D9D9D40
:1051F8009D9D9D9D9D9D5000402B1BD1626A4D4BEE
:1052080033F81230B0FBF3F06268530803EB400048
:10521800B0FBF2F0A0F110024FF6EF739A4279D882
:1052280083B223F00F03C0F3420018432368D86009
:10523800002072E0012070E0FDF7FAF90028DDD1C6
:1052480000206AE0FDF706FAF8E703A8FEF714F86D
:105258000498F3E76846FEF70BF90198EEE7364B3A
:105268001B6813F0200F08D0334B1B68C3F3C1032E
:105278003248D840E2E73248C0E73048BEE7402B22
:1052880017D14FF40040626A2A4B33F81230B0FB52
:10529800F3F0636800EB5300B0FBF3F0A0F11002E9
:1052A8004FF6EF739A4242D8236880B2D860002044
:1052B80033E0012031E0FDF7BBF90028E3D10020FD
:1052C8002BE0FDF7C7F9F8E703A8FDF7D5FF049829
:1052D800F3E76846FEF7CCF80198EEE7164B1B6833
:1052E80013F0200F08D0144B1B68C3F3C1031348F5
:1052F800D840E2E71248C6E71048C4E701200CE0AE
:1053080001200AE0012008E0012006E0012004E075
:10531800012002E0012000E001200123A4F86A3006
:10532800A4F8683000232367636706B070BD0120C6
:10533800F3E700BFA85A0008004402580090D003C1
:1053480000093D00836A13F0010F06D00268536814
:1053580023F40033C16A0B435360836A13F0020FCE
:1053680006D00268536823F48033016B0B43536003
:10537800836A13F0040F06D00268536823F480236D
:10538800416B0B435360836A13F0080F06D0026821
:10539800536823F40043816B0B435360836A13F013
:1053A800100F06D00268936823F48053C16B0B4337
:1053B8009360836A13F0200F06D00268936823F481
:1053C8000053016C0B439360836A13F0400F0AD0BB
:1053D8000268536823F48013416C0B435360436C99
:1053E800B3F5801F0BD0836A13F0800F06D00268D4
:1053F800536823F40023C16C0B4353607047026861
:10540800536823F4C003816C0B435360EBE72DE929
:10541800F84305460F4616469946DDF820802C6865
:10542800E46937EA04030CBF4FF0010C4FF0000C9D
:10543800B44557D1B8F1FF3FF1D0FFF707F8A0EB1B
:10544800090040452FD8B8F1000F2CD02B681A68F6
:1054580012F0040FE3D0DA6912F4006FDFD04FF4D2
:1054680000621A622A6852E8003F23F4D07342E8C7
:1054780000310029F6D12A6802F1080353E8003FF9
:1054880023F00103083242E800310029F3D1202338
:10549800C5F88430C5F88830C5F88C30002385F805
:1054A800803003201FE02A6852E8003F23F4D073BD
:1054B80042E800310029F6D12A6802F1080353E8CE
:1054C800003F23F00103083242E800310029F3D1FC
:1054D8002023C5F88430C5F88830002385F880304B
:1054E800032000E00020BDE8F8832DE9F04182B0F8
:1054F8001E46D0F88430202B58D104460D469046DD
:10550800002A18BF002955D090F88030012B53D0BD
:10551800012380F880300023C0F88C302123C0F8A4
:105528008430FEF793FF0746A4F85480A4F8568009
:10553800A368B3F5805F05D04FF00008002384F816
:10554800803012E0236913B14FF00008F6E7A8464F
:105558000025F3E715F8012B23689A62B4F8562062
:1055680092B2013A92B2A4F85620B4F856309BB2DF
:1055780083B100963B46002280212046FFF747FF73
:10558800E0B9002DE6D138F8023B2268C3F30803DE
:105598009362E3E700963B46002240212046FFF74E
:1055A80036FF68B92023C4F8843000E0022002B036
:1055B800BDE8F0810120FAE70220F8E70320F6E7CA
:1055C8000320F4E730B583B004460023C0F88C30DC
:1055D800FEF73CFF05462268126812F0080F0FD14B
:1055E80023681B6813F0040F18D12023C4F88430F3
:1055F800C4F888300020E06684F8800003B030BD2D
:105608006FF07E430093034600224FF400112046BA
:10561800FFF7FDFE0028E3D00320EFE76FF07E439D
:1056280000932B4600224FF480012046FFF7EFFE3F
:105638000028DAD00320E1E778B310B50446D0F8A3
:1056480084300BB32423C4F884302268136823F011
:10565800010313602046FFF77BFB012813D0A36AE0
:10566800BBB92268536823F4904353602268936857
:1056780023F02A0393602268136843F00103136040
:105688002046FFF79FFF10BD80F88030FBF746FEED
:10569800D8E72046FFF756FEE3E7012070470000F1
:1056A80010B48165A0F85C20A0F85E200023036791
:1056B8008368B3F5805F06D0A3B9036973B9FF2384
:1056C800A0F8603014E0036923B940F2FF13A0F892
:1056D80060300DE0FF23A0F8603009E07F23A0F8D8
:1056E800603005E0B3F1805F31D00023A0F860306E
:1056F8000023C0F88C302223C0F88830016801F1FB
:10570800080353E8003F43F00103083141E800343F
:10571800002CF3D1436EB3F1005F22D08368B3F558
:10572800805F49D02C4B0367002380F880300369E1
:10573800002B47D0026852E8003F43F4907342E8D8
:1057480000310029F6D100205DF8044B7047036949
:105758001BB97F23A0F86030CAE73F23A0F8603068
:10576800C6E7B0F868309342D8D88368B3F5805F4D
:105778001CD01A4B0367002380F88030036943B1BB
:10578800026852E8003F43F4807342E80031002980
:10579800F6D1026802F1080353E8003F43F0805352
:1057A800083242E800310029F3D1CCE70369002B25
:1057B800DFD10B4B0367DEE70369002BB2D1094B3E
:1057C8000367B1E7026852E8003F43F0200342E86C
:1057D80000310029F6D1B6E7AD480008114A0008A3
:1057E800B14B00085F49000838B5D0F88830202B45
:1057F80020D1002A18BF00291ED090F88030012B34
:105808001CD0012380F880300023C36603680C4C49
:10581800A3420CD05B6813F4000F08D0046854E866
:10582800003F43F0806344E80035002DF6D1FFF7D0
:1058380037FF00E0022038BD0120FCE70220FAE72C
:10584800000C0058436E2BB90123A0F86A30A0F869
:105858006830704730B403689A68C2F34262996846
:10586800490F094D6B5C1B01084C615C93FBF1F31C
:10587800A0F86A30AB5C1B01A25C93FBF2F3A0F8C2
:10588800683030BC704700BFC85A0008C05A0008CA
:1058980070477047704790F88030012B18D001236B
:1058A80080F880302423C0F8843003681A681968A7
:1058B80021F00101196022F00052002343660168BB
:1058C8000A602022C0F8842080F88030184670478B
:1058D8000220704738B590F88030012B1DD004465F
:1058E800012380F880302423C0F8843003681D68C1
:1058F8001A6822F001021A600268936823F0604374
:1059080019439160FFF79EFF23681D602023C4F8A8
:105918008430002084F8800038BD0220FCE738B5C8
:1059280090F88030012B1DD00446012380F8803088
:105938002423C0F8843003681D681A6822F0010225
:105948001A600268936823F0606319439160FFF757
:1059580079FF23681D602023C4F88430002084F870
:10596800800038BD0220FCE7274AD2F8883043F48B
:105978007003C2F88830254B1B6803F00F03062B11
:1059880006D8224A136823F00F0343F00703136075
:105998001F4B1A6842F001021A6000221A61196846
:1059A8001C4A0A401A60194B1B6813F0080F06D0EE
:1059B800164A136823F00F0343F007031360144BD0
:1059C80000229A61DA611A62134999621349D9620D
:1059D800134919635A639963DA6319645A64196835
:1059E80021F4802119601A660E4B1A680E4B134079
:1059F800B3F1005F03D20D4B0122C3F808210C4B11
:105A080043F2D2021A60704700ED00E00020005215
:105A1800004402587FEDF6EA000202020000FF018E
:105A2800800201010010005C0000FFFF00800051AF
:105A380000400052DFF834D0FFF796FF0C480D49BC
:105A48000D4A002302E0D458C4500433C4188C42D1
:105A5800F9D30A4A0A4C002301E013600432A24237
:105A6800FBD3FAF759FCFBF757FB704700000220FD
:105A78000000002028000020F05A0008280000201C
:105A880080030020FEE70000F8B500BFF8BC08BCA2
:105A98009E467047F8B500BFF8BC08BC9E467047E4
:105AA800010002000400060008000A000C001000B3
:105AB80020004000800000010804020408010101E0
:105AC80001010103070100000000000001020304B6
