:020000040800F2
:1000000000000220B9530008491100084D110008F2
:100010005111000855110008591100080000000096
:100020000000000000000000000000005D1100085A
:100030006111000800000000651100086911000846
:10004000095400080954000809540008095400081C
:10005000095400080954000809540008095400080C
:1000600009540008095400080954000809540008FC
:1000700009540008095400080954000809540008EC
:1000800009540008095400080954000809540008DC
:1000900009540008095400080954000809540008CC
:1000A00009540008095400080954000809540008BC
:1000B00009540008095400080954000809540008AC
:1000C000095400080954000809540008095400089C
:1000D000095400086D11000809540008095400086B
:1000E00009540008095400080000000009540008E1
:1000F000095400080954000809540008095400086C
:10010000095400080954000809540008095400085B
:10011000095400080954000809540008095400084B
:10012000095400080954000809540008095400083B
:10013000095400080954000809540008095400082B
:1001400000000000000000000000000000000000AF
:10015000095400080954000809540008095400080B
:1001600009540008095400080954000809540008FB
:100170000954000809540008095400080000000050
:1001800009540008095400080954000809540008DB
:1001900009540008095400080954000809540008CB
:1001A00009540008095400080954000809540008BB
:1001B00009540008095400080954000809540008AB
:1001C000095400080954000809540008095400089B
:1001D000095400080954000809540008095400088B
:1001E000095400080954000809540008095400087B
:1001F000095400080954000809540008095400086B
:10020000095400080954000809540008095400085A
:10021000095400080954000809540008095400084A
:10022000095400080954000809540008000000009F
:10023000095400080954000800000000095400088F
:10024000095400080954000809540008095400081A
:10025000095400080954000809540008095400080A
:1002600009540008095400080954000809540008FA
:10027000095400080954000809540008000000004F
:10028000095400080954000809540008000000003F
:08029000000000000954000801
:100298000348044B834202D0034B03B1184770470D
:1002A800100000201000002000000000054806494A
:1002B8000B1AD90F01EBA301491002D0034B03B16C
:1002C80018477047100000201000002000000000B0
:1002D80010B5064C237843B9FFF7DAFF044B13B186
:1002E8000448AFF300800123237010BD10000020E4
:1002F800000000000C54000808B5044B1BB1044969
:100308000448AFF30080BDE80840CFE700000000D4
:10031800140000200C54000870B50D4E0D4D761BCE
:10032800B61006D0002455F8043B01349847A6427D
:10033800F9D1094E094D761B05F064F8B61006D0C0
:10034800002455F8043B01349847A642F9D170BD02
:10035800A0540008A0540008A4540008A0540008A1
:10036800844641EA000313F003036DD1403A41D3B8
:1003780051F8043B40F8043B51F8043B40F8043B77
:1003880051F8043B40F8043B51F8043B40F8043B67
:1003980051F8043B40F8043B51F8043B40F8043B57
:1003A80051F8043B40F8043B51F8043B40F8043B47
:1003B80051F8043B40F8043B51F8043B40F8043B37
:1003C80051F8043B40F8043B51F8043B40F8043B27
:1003D80051F8043B40F8043B51F8043B40F8043B17
:1003E80051F8043B40F8043B51F8043B40F8043B07
:1003F800403ABDD2303211D351F8043B40F8043BA7
:1004080051F8043B40F8043B51F8043B40F8043BE6
:1004180051F8043B40F8043B103AEDD20C3205D3B6
:1004280051F8043B40F8043B043AF9D2043208D0AE
:10043800D2071CBF11F8013B00F8013B01D30B8820
:1004480003806046704700BF082A13D38B078DD0FE
:1004580010F003038AD0C3F10403D21ADB071CBFD0
:1004680011F8013B00F8013B80D331F8023B20F83A
:10047800023B7BE7043AD9D3013A11F8013B00F873
:10048800013BF9D20B7803704B7843708B788370FB
:1004980060467047830730B548D0541E002A3FD0C5
:1004A800CAB2034601E0013C3AD303F8012B9D0789
:1004B800F9D1032C2DD9CDB245EA05250F2C45EAF3
:1004C800054536D9A4F1100222F00F0C03F1200ED5
:1004D800E6444FEA121C03F1100242E9045542E9CE
:1004E800025510327245F8D10CF1010214F00C0FCC
:1004F80003EB021204F00F0C13D0ACF1040323F049
:1005080003030433134442F8045B9342FBD10CF019
:1005180003042CB1CAB21C4403F8012B9C42FBD142
:1005280030BD64461346002CF4D1F9E7034614465F
:10053800BFE71A46A446E0E753B94AB9002908BFFD
:1005480000281CBF4FF0FF314FF0FF3000F074B9A6
:10055800ADF1080C6DE904CE00F006F8DDF804E012
:10056800DDE9022304B070472DE9F047089D0446F1
:100578008E46002B4DD18A42944669D9B2FA82F24E
:1005880052B101FA02F3C2F1200120FA01F10CFA8A
:1005980002FC41EA030E94404FEA1C48210CBEFBC2
:1005A800F8F61FFA8CF708FB16E341EA034306FB4B
:1005B80007F199420AD91CEB030306F1FF3080F0DA
:1005C8001F81994240F21C81023E63445B1AA4B227
:1005D800B3FBF8F008FB103344EA034400FB07F7C9
:1005E800A7420AD91CEB040400F1FF3380F00A810A
:1005F800A74240F207816444023840EA0640E41BFF
:1006080000261DB1D4400023C5E900433146BDE8AA
:10061800F0878B4209D9002D00F0EF800026C5E94C
:10062800000130463146BDE8F087B3FA83F6002E64
:100638004AD18B4202D3824200F2F980841A61EBDC
:10064800030301209E46002DE0D0C5E9004EDDE7FA
:1006580002B9FFDEB2FA82F2002A40F09280A1EBE2
:100668000C014FEA1C471FFA8CFE0126200CB1FB37
:10067800F7F307FB131140EA01410EFB03F0884230
:1006880008D91CEB010103F1FF3802D2884200F2BD
:10069800CB804346091AA4B2B1FBF7F007FB10114F
:1006A80044EA01440EFB00FEA64508D91CEB0404ED
:1006B80000F1FF3102D2A64500F2BB800846A4EB48
:1006C8000E0440EA03409CE7C6F12007B34022FA33
:1006D80007FC4CEA030C20FA07F401FA06F31C4362
:1006E800F9404FEA1C4900FA06F3B1FBF9F8200C6F
:1006F8001FFA8CFE09FB181140EA014108FB0EF0B5
:10070800884202FA06F20BD91CEB010108F1FF3A04
:1007180080F08880884240F28580A8F10208614410
:10072800091AA4B2B1FBF9F009FB101144EA01411E
:1007380000FB0EFE8E4508D91CEB010100F1FF34C9
:100748006CD28E456AD90238614440EA0840A0FB61
:100758000294A1EB0E01A142C846A64656D353D037
:100768005DB1B3EB080261EB0E0101FA07F722FA5B
:1007780006F3F1401F43C5E9007100263146BDE884
:10078800F087C2F12003D8400CFA02FC21FA03F3E7
:10079800914001434FEA1C471FFA8CFEB3FBF7F068
:1007A80007FB10360B0C43EA064300FB0EF69E428D
:1007B80004FA02F408D91CEB030300F1FF382FD226
:1007C8009E422DD9023863449B1B89B2B3FBF7F6CE
:1007D80007FB163341EA034106FB0EF38B4208D9A7
:1007E8001CEB010106F1FF3816D28B4214D9023EE8
:1007F8006144C91A46EA004638E72E46284605E706
:100808000646E3E61846F8E64B45A9D2B9EB0208D6
:1008180064EB0C0E0138A3E74646EAE7204694E766
:100828004046D1E7D0467BE7023B614432E7304699
:1008380009E76444023842E7704700BF202915D809
:10084800D1B101391F2917D8DFE801F01A1D162088
:100858001616162316161616161616261616161613
:10086800161616161616161616161617402916D028
:10087800802917D140F08070704740F08060704741
:1008880040F00040704740F08040704740F0005012
:10089800704740F08050704740F00060704740F06B
:1008A80000707047704700BF202915D8D1B10139B1
:1008B8001F2917D8DFE801F01A1D1620161616236F
:1008C80016161616161616261616161616161616B0
:1008D8001616161616161617402916D0802917D17F
:1008E80020F08070704720F08060704720F0004052
:1008F800704720F08040704720F00050704720F08B
:100908008050704720F00060704720F000707047FA
:10091800704700BF0C49FF224FF47A7310B44A7233
:10092800020A0A4C02EB10420C6004BA02EB106295
:100938004C6050FA82F00622404208725DF8044B7F
:10094800034804F071BA00BF58010020550700049D
:10095800B802002070B5C0B015460E464FF480723C
:10096800FF2104466846FFF795FD2A46314668464A
:10097800FFF7F6FC02F072FCB5F5807F23D805F08E
:1009880007022B194FF6FD701344174AB2F880106E
:100998004A1E92B2824220D9144A934213D2D5B148
:1009A800013D04F12003ED0803EB451521466A4695
:1009B8000120203402F0F2FC58B1022402F074FC49
:1009C800204640B070BD012402F06EFC204640B0C5
:1009D80070BDA542EAD10024F6E7054A02EA4121A2
:1009E800044A0A44D9E700BF00E8F11FF0FF0F08E6
:1009F80000FE1F00F0FFFF0701222DE9F047134614
:100A0800A84D86B0A84CA94FDFF8D082A84E6A70CE
:100A1800226852070FD4052BFAD8DFE803F097B401
:100A28005E3B0F0320680421FFF708FF206022685F
:100A38006B785207EFD506B0BDE8F087B7F800C06D
:100A4800BCF1000F00F0EC809A4A002302EB0C0086
:100A580012F8011F0B449042DBB2F9D15B42DBB2C2
:100A68000CF1040C88F8003016F80C209A4204D0D7
:100A780020680221FFF7E2FE20608F4B18680028EB
:100A880000F0B080FFF746FF0021864800F0B0F97B
:100A98006B78BDE7894B4FF4FA61186800F060FA8B
:100AA800002840F090802368990740F1AA80844983
:100AB80096F803E00868B2783B8842EA0E22DFF82D
:100AC80004C203EB4003DCF800000B60911D3A8080
:100AD800814200F0B1806B789AE7784B4FF4FA6165
:100AE800186800F03DFA00286DD1F178B378754A9E
:100AF80043EA01231268991D3B809142EBD10F2BE9
:100B080000F0EE80DFF8B0910121DFF8C8A1D9F834
:100B18000000FFF793FEDAF80430C9F80000B3F5D7
:100B2800003F00F2AE80DAF80020674B9A4204D00A
:100B38000121FFF783FEC9F80000002800F0898032
:100B48000421584800F054F96B7861E74FF0000928
:100B5800594B01212068C3F80090FFF7A5FEDFF884
:100B680064C103464FF48372494630462360A7F8B0
:100B78000090CCF80090FFF78DFC0121494800F067
:100B880037F96B7844E72268D0077FF541AF4B4BC4
:100B98004FF4FA61186800F0E3F9002842D1494B94
:100BA8001B68032B97D93378552B70D17378012B99
:100BB80000F0B6807378042B8DD10321394800F0FA
:100BC80017F96B7824E7DFF8F0900821D9F80000CE
:100BD800FFF734FE034604213248C9F8003000F01C
:100BE80007F978E7394940F2556C4FF47F404FF4E4
:100BF8007A730622C1F800C08880354804F014F9D9
:100C080042E7DFF8B4901021D9F80000FFF716FE8C
:100C18000421C9F80000234800F0EAF86B78F7E6E9
:100C280063461DE7DFF890900821D9F80000FFF728
:100C380005FEC9F8000083E72649086826491844D4
:100C4800FFF788FE00283FF47BAFDFF86C90102197
:100C5800EBE74FF0010A20230190CDF808A0059397
:100C6800CDE903AA02F0FAFA694601A802F062FC8B
:100C7800A0B902F019FB20680221FFF7DFFD206010
:100C88005EE70121FFF7DAFDC9F800004BE72068AD
:100C98000221FFF7D3FD6B782060B9E602F004FB70
:100CA8005146C2E7380000203400002050010020DF
:100CB8004000002043000020300000204C010020AC
:100CC8002C000020480100200000020858010020E4
:100CD800B8020020580200204400002052010020E1
:100CE8007168B368D6F80F2009BADFF848A01BBAB4
:100CF80012BADFF84490CAF800100321CAF80C2091
:100D0800327BD9F800008AF80820B27BCAF8043090
:100D18008AF80A20727B8AF80920044A1160FEE6E4
:100D28000221034800F064F86B7871E65401002052
:100D38003800002058020020300000201F4A0023FD
:100D480012682DE9F0411E4D82B0DFF87C801C4608
:100D58001C4E576A2B70012C0FD0022C14D0002C7B
:100D6800F9D141F28831384600F0FAF808BBD8F8D2
:100D78000030CBB92C78012CEFD1FFF73DFE0021D4
:100D8800022000F023F8F5E7336801330BD000F0B8
:100D980049FD03F017F8336883F3088873680193F3
:100DA800019B9847E6E7FEE70021012000F00EF8D6
:100DB800E0E72146022000F009F8D8E76C0200209D
:100DC800380000200000020848010020064B074AAE
:100DD800B3F800C01870002059709978A2F800C0C4
:100DE80098709170704700BF380000203C000020C8
:100DF800437841708370704730B59DB04C22002114
:100E080009A8FFF747FB2022002101A8FFF742FBB2
:100E1800022002F0B1FF1E4B00211E4A0091D96A40
:100E280021F00101D962DB6A03F0010300939369A1
:100E380023F4404343F480439361936903F44043AC
:100E48000093009B93699B04FCD502230125402451
:100E580009A809930023CDE90C54129300F0B2FDC0
:100E6800034608B172B6FEE73F22294601A8CDE93C
:100E780001234FF48062CDE90333CDE90534CDE990
:100E8800072301F095F808B172B6FEE71DB030BD32
:100E9800000400580048025808B502F0FBFFFFF7AD
:100EA800ABFF00F04BF800F0B7F800F065F8054824
:100EB80000F0E4F901220449044804F047F9FFF777
:100EC8003DFFFEE76C02002068020020B802002007
:100ED800114B02689A4200D07047104B10481A68AC
:100EE800104910B5541C00781C60885419680129F1
:100EF80006D001220A490C48BDE8104004F026B982
:100F08000A4C2068FFF79AFC094A20601268094BCE
:100F1800526A1A60EDE700BF001001404801002046
:100F28006802002040000020B802002034000020A1
:100F38006C0200204C01002072B6FEE7074B82B01D
:100F4800D3F8E02042F00202C3F8E020D3F8E03002
:100F580003F002030193019B02B07047004402585A
:100F6800044B1B685A6A5B6A181A884294BF0020AF
:100F7800012070476C02002010B5002388B0194882
:100F88004FF080444FF6FF114FF0FF320493019366
:100F9800036183610793C0E90041C0E90232CDE9EA
:100FA8000533CDE9023300F019FB88B94FF48053BB
:100FB80004A90C48049300F0B9F980B9002301A9E9
:100FC80008480193039300F03BFB20B908B010BD1B
:100FD800FFF7B2FFEAE7FFF7AFFF08B010BDFFF772
:100FE800ABFFEBE76C0200200368B3F1804F00D041
:100FF8007047084B82B0D3F8E82042F00102C3F8EA
:10100800E820D3F8E83003F001030193019B02B014
:10101800704700BF0044025810B51F4800231F4CFA
:101028004FF4E1310C228360C0E90041C0E9033389
:10103800C0E90523C0E90733C0E9093303F0A0FF7D
:1010480070B90021144804F0F5F888B90021124855
:1010580004F01CF9A0B9104804F0CEF8B8B910BDD6
:10106800FFF76AFF00210C4804F0E4F80028EDD0EF
:10107800FFF762FF0021084804F008F90028EAD0C9
:10108800FFF75AFF044804F0B7F80028E7D0BDE896
:101098001040FFF751BF00BFB80200200010014008
:1010A80030B5B7B000210446BC2207A80691CDE9A7
:1010B8000211CDE90411FFF7EDF91E4B22689A429F
:1010C80001D037B030BD012307A8079301F0F0F92C
:1010D80068BB194B02200024C025D3F8F02002A9D0
:1010E80042F01002C3F8F020D3F8F02002F010020A
:1010F8000092009AD3F8E0200243C3F8E0200722C8
:10110800D3F8E030039003400C4806920193019B0A
:101118000295CDE9044402F0B3FA224601212520C4
:1011280000F04AF8252000F085F837B030BDFFF709
:1011380003FFCEE7001001400044025800040258A3
:10114800FEE700BFFEE700BFFEE700BFFEE700BF07
:10115800FEE700BF704700BF704700BF704700BF81
:1011680002F0C8BE014802F023BF00BFB802002049
:10117800074B82B0D3F8F42042F00202C3F8F420FF
:10118800D3F8F43003F002030193019B02B07047D7
:101198000044025806494FF6FF0C0002054BCA6886
:1011A80000F4E06002EA0C0210430343CB6070478E
:1011B80000ED00E00000FA051B4BDB68C3F30223D7
:1011C80000B5C3F1070E03F1040CBEF1040F28BFEC
:1011D8004FF0040EBCF1060F1AD9033B4FF0FF3C49
:1011E8000CFA03FC22EA0C024FF0FF3C00280CFA30
:1011F8000EFC21EA0C0101FA03F141EA02010ADBC3
:1012080009010A4BC9B2034483F800135DF804FBD3
:1012180000221346E8E700F00F000901044BC9B2A9
:10122800034419765DF804FB00ED00E000E100E0FE
:10123800FCEC00E0002807DB012300F01F01034A53
:1012480040098B4042F82030704700BF00E100E0C1
:10125800431EB3F1807F0CD24FF0E02200200649F4
:101268004FF0F00C5361072381F823C0906113619C
:1012780070470120704700BF00ED00E090F83D3056
:10128800012B3DD10268234B2349B2F1804F18BF8F
:101298009A4230B40CBF01230023204D0224AA42F5
:1012A80008BF43F0010380F83D401D4C8A4208BF47
:1012B80043F001031B4801F58051A24208BF43F0E7
:1012C8000103824208BF43F001038A4208BF43F08A
:1012D800010333B900F57050101AB0FA80F04009D4
:1012E80098B19168104B0B40062B0BD0B3F5803F9B
:1012F80008D01368002043F00103136030BC704726
:1013080001207047002030BC7047136843F0010388
:101318001360F3E7000001400008004000040040AB
:10132800000C0040000401400700010090F83C3028
:10133800012B00F081800246022370B4046801206A
:1013480082F83D3082F83C005A4BA5682B40A360D8
:101358000B68702B00F09C8025D8502B6ED039D9A3
:10136800602B18D1206A4D6820F01000C9682062EF
:101378000020A36923F4704343EA0133216A21F072
:10138800A001A3614C4B41EA05112162A1680B4001
:1013980043F06703A3600121002382F83D1082F81F
:1013A8003C3070BC7047B3F5005F60D033D9434917
:1013B8008B4206D029D942498B4202D010318B4248
:1013C800E9D1A0683C49014000200B4343F00703E2
:1013D800A360E0E7402B23D1236A256A486823F0FD
:1013E8000A0325F00105CE681843334B2562A1692D
:1013F80021F0F00141EA0611A16120620020A168F4
:101408000B4043F04703A360C5E723F01001B1F593
:10141800801FC0D1D5E7B3F5805018BF0120BAE7C7
:10142800B9D8202BCDD003D9302BCAD00120B2E7B0
:1014380033F01001AFD1C4E702207047236A256A50
:10144800486823F00A0325F00105CE6818431A4BB3
:101458002562A16921F0F00141EA0611A16120622B
:101468000020A1680B4043F05703A36093E7D1E93C
:101478000153A0682B43CD6820F47F41002043EA44
:1014880005230B43A360A36843F48043A36082E76A
:10149800D1E90153A0682B43CD6820F47F41002097
:1014A80043EA05230B43A360A36843F07703A360D3
:1014B80071E700BF8800CEFF8FFFCFFF200010002C
:1014C800300010003F4AB0F1804F0368A0EB0202E1
:1014D800B2FA82F230B44FEA521223D012BB3A4C1D
:1014E800A04247D004F58064A04243D004F580644C
:1014F800A04249D004F57844A04245D0334C344A40
:10150800904218BFA0424FD002F5806290424BD063
:101518004D6923F080038C680A682B430360C4621A
:10152800826223E04C6823F070032343294C041B98
:10153800B4FA84F46409CD6823F440732B434D69ED
:1015480023F080032B4303608B68C3620B688362BC
:1015580052B94CB91D4A1E4B984218BF904203D04D
:1015680003F58063984201D10B690363012330BC02
:1015780043617047174C23F070034D68041B2B43DD
:10158800B4FA84F46409D6E74D6823F07003114C6B
:101598002B43114D041BA842B4FA84F44FEA5414A7
:1015A800C9D0002CC7D1A9E7CC6823F440734A6995
:1015B80023438C6823F0800313430A680360C462E2
:1015C8008262C7E70000014000040040004001407B
:1015D8000044014000040140000C004070B310B505
:1015E80090F83D30044603F0FF0213B3214602236E
:1015F80084F83D3051F8040BFFF764FF0123002005
:1016080084F8483084F83E3084F83F3084F840301D
:1016180084F8413084F8423084F8433084F8443008
:1016280084F8453084F8463084F8473084F83D30F3
:1016380010BD80F83C20FFF7D7FCD7E701207047A2
:1016480090F83C30012B4BD003680246022030B49E
:10165800244D82F83D00AB4258689C6829D005F5B6
:101668008065AB4225D0204D20F07000AB4218BFFA
:10167800B3F1804F05F580650CBF4FF0010C4FF0BA
:10168800000CAB4208BF4CF0010C05F58065AB427D
:1016980008BF4CF0010C0D682843144D5860AB424C
:1016A80014BF60464CF0010060B91148834209D06C
:1016B8000DE04D6820F4700028430D6820F070009C
:1016C80028435860896824F080040C439C600023F8
:1016D8000121184682F83D1082F83C3030BC704732
:1016E800022070470000014000040040001800403C
:1016F80000400140454B30B49A6A9C6ADD6A14F494
:101708007C7F596BC4F3051038D0C1F3CC0105F0C8
:10171800010502F0030205FB01F1012A07EE901A08
:10172800B8EEE77A02D0022A4ED04AB307EE900A02
:10173800DFED376AF8EEE77A1B6B86EEA76A9FED56
:10174800355AC3F3080306EE903AF7EE005AF8EE5E
:10175800E66AE7EE056A76EEA56A66EE266A2B4B20
:101768001B6BC3F34623013307EE903AB8EEE77AD2
:10177800C6EE877AFCEEE77A17EE900A30BC70471F
:101788001A68920627D5196807EE900A224AF7EEDA
:10179800005A1B6BC1F3C101F8EEE77A9FED1D5AA1
:1017A800C3F30803CA4006EE903A06EE102AF8EE94
:1017B800E66AB8EEC66AE7EE056A86EE277A76EE3E
:1017C800A56A66EE876ACAE707EE900ADFED136A34
:1017D800F8EEE77AB0E707EE900A9FED115A1B6B17
:1017E800B7EE006AF8EEE77ADFED0A5AC3F30803AA
:1017F800C5EE276A07EE903AF8EEE77AE7EE257A23
:1018080077EE867A66EEA76AA9E700BF0044025819
:101818000024744A000000390090D00320BCBE4B5D
:101828000024744C5D4AF8B5136803F00F03062BC7
:101838000AD8136823F00F0343F0070313601368F3
:1018480003F00F03072B21D1554C02F05FFB05462F
:10185800236843F00103236004E002F057FB401BB8
:10186800022816D823685E07F7D5636800254D4817
:1018780043F080434C4A4D4963604D4B25610068F5
:101888000A601A6002F0E0FA044628B101242046F2
:10189800F8BD03242046F8BD02F038FB404E41F263
:1018A8008837054604E002F031FB431BBB42F0D801
:1018B800336913F0380FF6D102F028FB32683D4B3C
:1018C8000546374F1340336004E002F01FFB401B0E
:1018D8006428DED83B689803F7D402F017FB3B680E
:1018E8002F4E054623F080733B6004E002F00EFBA8
:1018F800401B0228CDD833689901F7D402F006FBC3
:101908003368274F054623F08063336004E002F014
:10191800FDFA401B0228BCD83B681A01F7D402F034
:10192800F5FA3B681E4D064623F080533B6004E001
:1019380002F0ECFA801B0228ABD82B6813F0005396
:10194800F6D11D49AB611D4AEB612B62A9621C49A6
:10195800E9624FF0FF312A636B63AA63EB632A6481
:101968006B642A6822F480222A602B66A966D5F85F
:10197800D0300A4A43F48033C5F8D03013681B07C7
:1019880085D5136823F00F0343F007031360146829
:1019980004F00F04073C18BF012478E70020005228
:1019A80000440258040000200090D00308000020E2
:1019B8000C00002045EDF6FF000202028002010142
:1019C8000000FF01002800F0E881F8B5036804462C
:1019D800D9072ED5A4490A69896A02F03802102A63
:1019E80000F00781182A00F0FF806368B3F5803F94
:1019F80000F02A81002B00F06881B3F5A02F9A4BE4
:101A08001A6800F0698222F480321A601A6822F497
:101A180080221A6002F07AFA934E054605E002F039
:101A280075FA401B642800F24E8133689B03F6D593
:101A380023689D0700F18A80D90633D58A4A13693D
:101A4800926A03F03803082B00F0E380182B00F0AB
:101A5800DB80E369844D002B00F06F812B6843F035
:101A680080032B6002F052FA064605E002F04EFAB7
:101A7800801B022800F227812B68DB05F6D502F0CF
:101A88004BFA41F20303984200F24782226A6B68DC
:101A9800202A23F0F8430CBF43F0804343EA8263D3
:101AA8006B6023681D0716D563696F4D002B00F026
:101AB80022816B6F43F001036B6702F027FA064639
:101AC80005E002F023FA801B022800F2FC806B6F0D
:101AD8009807F6D523689A0616D5A369624D002B98
:101AE80000F01A812B6843F480532B6002F00EFA41
:101AF800064605E002F00AFA801B022800F2E3809D
:101B08002B689F04F6D52368590700F1A380606A03
:101B1800D0B1554D2B6903F03803182B00F0AE8176
:101B28002B68022823F080732B6000F0428102F0BA
:101B3800EDF9044605E002F0E9F9001B022800F27D
:101B4800C2802B689B01F6D40020F8BD464A136971
:101B5800926A13F038032DD1434BE2681B6859078A
:101B680001D5002A4ED0404D2B6823F019031343AA
:101B78002B6002F0CBF9064605E002F0C7F9801B9E
:101B8800022800F2A0802B685B07F6D502F0C4F9A2
:101B980041F20303984200F2F78022696B68402AF9
:101BA80023F47C330CBF43F4003343EA02336B6005
:101BB800236841E7182B00F0E3802B4DE2682B687F
:101BC800002A00F0CC8023F0190313432B6002F0A5
:101BD8009DF9064604E002F099F9801B022872D8A4
:101BE8002B685F07F7D5D1E701F0030102297FF4DD
:101BF800FCAE1D4A126892037FF51BAF6268002A8B
:101C08007FF417AF0120F8BD02F00302012A7FF428
:101C180020AF154B1B68DA0502D5E369802BF1D19B
:101C280002F07AF941F20303984200F2B880226A7E
:101C3800202A00F087810C494B6823F0F84343EAD7
:101C480082634B6023682DE7074A136843F48033A7
:101C58001360DFE6054D2B6843F480732B6002F0B8
:101C680055F9064609E000BF0044025800480258EA
:101C780002F04CF9801B642825D82B68DA05F7D5C3
:101C8800A368012B00F05881002B00F02D81052B53
:101C9800A64B1A6F00F05F8122F001021A671A6FD3
:101CA80022F004021A6702F031F9A04E41F2883797
:101CB800054604E002F02AF9401BB84203D8336F06
:101CC8009B07F7D523E70320F8BD984D2B6823F42D
:101CD80080332B602B6823F480232B6002F016F9E5
:101CE800064604E002F012F9801B6428EBD82B6842
:101CF8009F03F7D49CE66B6F23F001036B6702F038
:101D080005F9064604E002F001F9801B0228DAD83A
:101D18006B6F9907F7D4DDE62B6823F480532B60AB
:101D280002F0F4F8064604E002F0F0F8801B0228FE
:101D3800C9D82B689804F7D4E5E62B6823F080030C
:101D48002B6002F0E3F8064604E002F0DFF8801B9F
:101D58000228B8D82B68DF05F7D42368A2E623F059
:101D680001032B6002F0D2F8064604E002F0CEF838
:101D7800801B0228A7D82B685807F7D423685BE68E
:101D880090077FF41AAFE7E66B68226923F0FE43F9
:101D980043EA02636B6023684EE601207047634A9A
:101DA800216AD36823F07C5343EA0163D360236834
:101DB80078E602F0ABF8064604E002F0A7F8801BCC
:101DC800022880D82B689901F7D4A96A584BA26ACF
:101DD8000B405849554E1343E26A43EA0213AB627B
:101DE800D4E90D32013B013A5B0212049BB202F4C2
:101DF800FE021343226B013AC2F308021343E26B5B
:101E0800013A120602F0FE4213432B63EB6A23F0F9
:101E18000103EB626A6BA36C114041EAC301696379
:101E2800EB6A226C23F00C031343EB62EB6A626CDF
:101E380023F002031343EB62EB6A43F48033EB6253
:101E4800EB6A43F40033EB62EB6A43F48023EB6202
:101E5800EB6A43F00103EB622B6843F080732B605D
:101E680002F054F8044605E002F050F8001B02287E
:101E78003FF629AF33689A01F6D565E60128AA6AC4
:101E88002D6B3FF462AE02F00303A16A8B427FF42C
:101E9800B9AEC2F30512E36A9A427FF4B3AE236B7C
:101EA800C5F30802013B9A427FF4ACAE636BC5F3FD
:101EB8004622013B9A427FF4A5AEA36BC5F30642C6
:101EC800013B9A427FF49EAEE06BC5F3066501388C
:101ED800281A18BF0120F8BD42F480221A601A6837
:101EE80042F480321A6095E5104D41F288372B6F25
:101EF80023F001032B672B6F23F004032B6702F0F9
:101F080005F8064605E002F001F8801BB8423FF6E6
:101F1800DAAE2B6F9807F6D4F9E5EB68226A23F05E
:101F28007C5343EA0263EB602368BBE50044025834
:101F38000CFCFFFF0700FFFF0B4A136F43F0010380
:101F48001367B0E6084A536823F0F84343F0804328
:101F580053602368A6E542F004021A671A6F42F03C
:101F680001021A679FE600BF004402580C4A136931
:101F780003F03803102B04D0182B0DD01BB10948DF
:101F880070470948704713689B0607D513680748C8
:101F9800C3F3C103D8407047FFF7ACBB0348704791
:101FA8000044025800093D0040787D010090D003AC
:101FB800002800F00C818C4A136803F00F038B4251
:101FC8002DE9F04104460D460CD2136823F00F03A7
:101FD8000B431360136803F00F038B4202D00120F8
:101FE800BDE8F08123685F070BD5804920698A69BD
:101FF80002F07002904204D98A6922F0700202430A
:102008008A611E070BD579496069CA6902F07002B6
:10201800904204D9CA6922F070020243CA61D80604
:102028000BD57249A069CA6902F4E062904204D9EA
:10203800CA6922F4E0620243CA6199060BD56B496A
:10204800E0690A6A02F07002904204D90A6A22F032
:10205800700202430A629A0740F1AB806348E16864
:10206800826902F00F02914204D9826922F00F02BC
:102078000A438261D80730D55C4AA168936923F482
:1020880070630B43936161681368022900F0A180B3
:10209800032900F09880012900F0A18058079ED5F7
:1020A800524E41F28838336923F007030B433361FA
:1020B80001F02CFF074605E001F028FFC01B404552
:1020C80000F28B803369626803F03803B3EBC20F08
:1020D800F2D12368990706D5E1684448826902F07D
:1020E8000F028A4269D840490A6802F00F02AA42E0
:1020F8000AD90A6822F00F022A430A600A6802F025
:102108000F02AA427FF46BAF5A070BD537492069F3
:102118008A6902F07002904204D28A6922F0700241
:1021280002438A611F070BD530496069CA6902F00A
:102138007002904204D2CA6922F070020243CA6156
:10214800DE060BD52949A069CA6902F4E06290420B
:1021580004D2CA6922F4E0620243CA619D060BD523
:10216800224AE169136A03F07003994204D2136AA0
:1021780023F070030B431362FFF7F8FE1B4A034674
:102188001B4891699269C1F303211A4D02F00F02AD
:10219800194C415C825C01F01F01184802F01F02D3
:1021A800CB4000682B60D3402360BDE8F04101F0CC
:1021B8004BBEDA073FF560AF95E7826922F00F0260
:1021C800114381618FE79F013FF56AAF07E701205F
:1021D80070479B033FF564AF01E7032000E7DE0586
:1021E8003FF55EAFFBE600BF0020005200440258F6
:1021F80088540008080000200C000020040000207B
:10220800184A38B5136903F03803102B1AD0182B65
:1022180023D0CBB11448134B14499A699B69C2F374
:102228000322134C03F00F03124D8A5CCB5C02F0BF
:102238001F0220FA02F203F01F0022FA00F02A60BF
:10224800206038BD0C48E6E713689B0608D512687D
:102258000A48C2F3C102D040DDE7FFF74BFADAE7DC
:102268000648D8E70044025800093D008854000891
:102278000C0000200800002040787D010090D00369
:1022880008B5FFF7BDFF054B054ADB69C3F3021329
:10229800D35C03F01F03D84008BD00BF00440258B8
:1022A8008854000808B5FFF7ABFF054B054ADB6902
:1022B800C3F30223D35C03F01F03D84008BD00BF5B
:1022C8000044025888540008F8B53A4CA36A03F051
:1022D8000303032B67D0236806460F4623F0806369
:1022E800236001F013FE054604E001F00FFE431BD6
:1022F800022B56D823681A01F7D4A36A326823F44C
:102308007C3343EA0233A362D6E90232013B013A45
:102318005B0212049BB202F4FE0213437268013A94
:10232800C2F3080213433269013A120602F0FE4270
:102338001343A363E36A726923F0C0031343E362A0
:10234800E26AB36922F020021A431B4BE262E26A96
:1023580022F01002E262E16BF2690B4043EAC20329
:10236800E363E36A43F01003E362E36AEFB1012F2A
:102378000CBF43F4801343F40013E3620D4C23684D
:1023880043F08063236001F0C1FD054604E001F0DD
:10239800BDFD401B022804D823681B01F7D5002087
:1023A800F8BD0320F8BD0120F8BD43F40023E36223
:1023B800E4E700BF004402580700FFFFF8B53A4CB5
:1023C800A36A03F00303032B67D0236806460F466E
:1023D80023F08053236001F099FD054604E001F0E5
:1023E80095FD431B022B56D823689A00F7D4A36A9D
:1023F800326823F07C7343EA0253A362D6E90232BF
:10240800013B013A5B0212049BB202F4FE02134341
:102418007268013AC2F3080213433269013A12069C
:1024280002F0FE4213432364E36A726923F44063B3
:102438001343E362E26AB36922F400721A431B4B46
:10244800E262E26A22F48072E262616CF2690B4035
:1024580043EAC2036364E36A43F48073E362E36AB2
:10246800EFB1012F0CBF43F4000343F08073E36224
:102478000D4C236843F08053236001F047FD054667
:1024880004E001F043FD401B022804D823689B00A8
:10249800F7D50020F8BD0320F8BD0120F8BD43F4AE
:1024A8008003E362E4E700BF004402580700FFFF2F
:1024B8002DE9F8430368044613F0006622D0426E03
:1024C800B2F5001F00F0998411D8002A00F00385A6
:1024D800B2F5801F40F0FC8402210430FFF7F4FEBF
:1024E8000646002E40F09184626E236803E0B2F540
:1024F800401F40F0ED84A8480026016D21F44011EA
:102508000A430265DD050AD5626D042A06D8DFE8AC
:1025180012F0AD048C049304E902E9020126354661
:1025280098051BD5A26D802A00F0978400F2EC80F4
:10253800002A00F09483402A40F0ED800021201DFD
:10254800FFF7C2FE23680546002D40F06E839249CE
:10255800A06D0A6D22F4E07202430A6559051FD581
:10256800D4F8A420B2F5800F00F0568400F2D6808B
:10257800002A00F07A83B2F5001F40F0D7800021CE
:10258800201DFFF7A1FE23680546002D40F051836A
:102598008149D4F8A4008A6D22F4600202438A6556
:1025A8001A051FD5D4F8A820B2F1007F00F0658481
:1025B80000F2BF80002A00F05E83B2F1807F40F015
:1025C800C0800021201DFFF77FFE23680546002DEF
:1025D80040F033837049D4F8A8008A6D22F0E06295
:1025E80002438A659F0118D5A26C202A00F0CE8389
:1025F80000F2AA803AB1102A40F0A9806649CA6A56
:1026080042F40032CA62002D40F060836249A06C37
:10261800CA6C22F030020243CA64D8041DD5E26DA8
:10262800B2F5005F00F0108400F29480002A00F0F8
:102638002883B2F5805F40F095800021201DFFF7C8
:1026480043FE23680546002D40F0F1825249E06DB3
:102658000A6D22F4E04202430A6599041AD5226EF3
:10266800B2F5003F00F076837FD84AB1B2F5803FDB
:1026780040F083800121201DFFF726FE23680546D0
:10268800002D40F025834449206E0A6D22F4E02293
:1026980002430A655A041BD5D4F8AC20B2F1005F96
:1026A80000F062836CD842B1B2F1805F70D1012131
:1026B800201DFFF709FE23680546002D40F00A8318
:1026C8003549D4F8AC008A6D22F0E04202438A65AD
:1026D8001F040DD5E26EB2F1805F00F04F83B2F1B6
:1026E800005F00F00B82002A00F00E8201263546BA
:1026F800D8015DD5626C032A00F21884DFE812F075
:1027080054005A034E005400C02A3FF41DAFB2F5DE
:10271800807F3FF419AF012635461FE7B2F5C00F99
:102728003FF433AFB2F5000F3FF42FAF0126354623
:1027380036E7B2F1407F3FF44AAFB2F1806F3FF421
:1027480046AF012635464DE7302A3FF45CAF0126F7
:10275800354662E7B2F5405F3FF475AFB2F5804F9A
:102768003FF471AF0126354677E722F48031B1F5A1
:10277800802F85D0B2F5403F82D00126354689E7C3
:1027880022F08051B1F1804F97D0B2F1405F94D0E0
:10279800012635469CE700BF004402580221201D4F
:1027A800FFF792FD23680546002D00F072822E4641
:1027B800590200F1EE81DF072FD5A26F282A2AD807
:1027C800DFE812F0DC01290029002900290029008E
:1027D8002900290078032900290029002900290057
:1027E80029002900D50129002900290029002900EC
:1027F80029002900DC0129002900290029002900D5
:1028080029002900DC0129002900290029002900C4
:1028180029002900DC0101263546980716D5626F84
:10282800052A00F28083DFE812F00D00310306006C
:102838000D000D000D00012104F12400FFF7BEFD7D
:1028480023680546002D00F02E822E46590717D51D
:10285800D4F89020052A00F26C83DFE812F00D000E
:10286800210306000D000D000D00012104F12400D4
:10287800FFF7A4FD23680546002D00F01C822E46B4
:102888009A061DD5D4F88C20B2F1005F00F087823B
:1028980000F2E6804AB1B2F1805F40F0EB8000219F
:1028A800201DFFF711FD23680546002D40F0EF813C
:1028B800A449D4F88C004A6D22F0E04202434A65EC
:1028C8005F061DD5D4F89820B2F5006F00F02E826F
:1028D80000F2D3804AB1B2F5806F40F0D880002171
:1028E800201DFFF7F1FC23680546002D40F0F48118
:1028F8009449D4F898008A6D22F4E05202438A651C
:1029080018061DD5D4F89C20B2F5804F00F0188227
:1029180000F2C0804AB1B2F5005F40F0C5800021E6
:10292800201DFFF7D1FC23680546002D40F0B98132
:102938008449D4F89C008A6D22F4604202438A6577
:1029480019070BD5D4F88010B1F5805F00F03B82F1
:102958007C48426D22F440520A434265DA060BD5A0
:10296800D4F89410B1F5807F00F03A827548826DF2
:1029780022F440720A4382651F030ED5D4F8A010D2
:10298800B1F5803F00F0E080B1F5003F00F0E38052
:10299800002900F0C3810126354658030FD5D4F825
:1029A8008420B2F5001F00F0BA80B2F5401F00F095
:1029B800BD80B2F5801F00F0A98101263546D903F4
:1029C80009D5E26C002A00F08F81B2F5803F00F053
:1029D8003681012635469A0000F11C819F0366D492
:1029E800301E18BF0120DE0206D55649256F0A6D34
:1029F80022F000422A430A65DD0007D55149D4F880
:102A0800B4500A6922F480422A430A61990206D521
:102A18004C49A56E0A6D22F080722A430A655A0055
:102A280009D5484A116921F4004111611169D4F8A6
:102A3800B85029431161002B06DA4249256DCA6C4A
:102A480022F040522A43CA641B0207D53D4AD4F8F3
:102A58008810536D23F440030B435365BDE8F88396
:102A680022F08051B1F1804F3FF41FAFB2F1405FC7
:102A78003FF41BAF0126354622E722F48061B1F509
:102A8800805F3FF432AFB2F5406F3FF42EAF0126BE
:102A9800354635E722F40051B1F5004F3FF445AF14
:102AA800B2F5C04F3FF441AF0126354648E7E26F23
:102AB800B2F5807F00F0218106D922F48071B1F54A
:102AC800007F03D001208EE7002AFBD1002DF9D129
:102AD8001C4D301E696D18BF012021F440710A4356
:102AE8006A6580E73546002D40F0A5801549606D80
:102AF8000A6D22F0070202430A6511E50121201D33
:102B0800FFF7E2FB23680546002D40F0DD800D4904
:102B1800E06E0A6D22F0405202430A65E8E50121A1
:102B280004F12400FFF74AFC23680546002D40F015
:102B3800D9800449D4F884004A6D22F44012024333
:102B48004A653CE700440258022104F12400FFF7DB
:102B580035FC23680546002D40F0C280AC49D4F806
:102B6800A0008A6D22F4403202438A6515E70121EC
:102B780004F12400FFF722FC23680546002D40F0ED
:102B8800AD80A349A06F4A6D22F0380202434A651E
:102B980043E6A04F3B6843F480733B6001F0B6F90D
:102BA800804606E001F0B2F9A0EB0800642800F2C4
:102BB8008B813B68DA05F5D5002D40F0B181944A48
:102BC800D4F8B030116F594011F4407F0BD0116F19
:102BD800106F21F4407140F480301067106F20F4BA
:102BE800803010671167B3F5807F00F07B8103F4B4
:102BF8004072B2F5407F00F0898185490A6922F464
:102C08007C520A61824AC3F30B03116F0B431367AB
:102C18002368D0E5022104F12400FFF7CFFB2368E5
:102C280000283FF4DBAE0126D8E62E4696E42E4671
:102C380013E52E46B4E42E4672E42E46D2E4022171
:102C4800201DFFF741FB05462368002D53D170492D
:102C5800E06CCA6C22F480320243CA64BBE66C4959
:102C6800CA6A42F40032CA626EE46949CA6A42F426
:102C78000032CA6289E46649CA6A42F40032CA620A
:102C8800A5E46349CA6A42F40032CA62DBE42E460C
:102C980016E65F49606CCA6C22F003020243CA64FC
:102CA80086E52E464CE65A49606F4A6D22F00702C7
:102CB80002434A65CAE55649D4F890008A6D22F065
:102CC800070202438A65DBE52E4611E52E46A4E499
:102CD8002E46DFE42E46FBE42E4611E62E469CE502
:102CE8002E465AE62E466AE64949CA6A42F4003236
:102CF800CA62002DABD02E466DE64548C16A41F444
:102D08000031C162002D7FF4DDAEE1E64049CA6AB8
:102D180042F40032CA62002DE4D10AE7201DFFF711
:102D2800D3FA05462368002DDAD117E7022104F10A
:102D38002400FFF743FB05462368002DCCD1D7E5D7
:102D4800022104F12400FFF739FB05462368002D12
:102D5800A7D1EDE5012104F12400FFF72FFB05467B
:102D68002368002DB4D18EE4012104F12400FFF77B
:102D780025FB05462368002DACD1A1E42449CA6A85
:102D880042F40032CA62002D9ED1C0E60221201D05
:102D9800FFF79AFA05462368002D97D136E40221F9
:102DA80004F12400FFF70AFB05462368002D7FF491
:102DB8006EAF7DE51649CA6A42F40032CA62002D38
:102DC8007FF4F5AC65E7022104F12400FFF7F6FA79
:102DD800D4F88010236800283FF4BAAD0126B7E57F
:102DE800022104F12400FFF7E9FAD4F894102368CB
:102DF80000283FF4BBAD0126B8E502212430FFF7D7
:102E0800DDFA0646002E3FF46FAB2368FFF77ABB66
:102E18000044025800480258002104F12400FFF73A
:102E2800CDFA23680546FFF7B0BB0021201DFFF748
:102E38004BFA2368054656E6002104F12400FFF703
:102E4800BDFA236805464EE6002104F12400FFF789
:102E5800B5FA23680546FFF7F6BB002104F1240004
:102E6800FFF7ACFA23680546FFF76EBB32493546D3
:102E7800CA6A42F40032CA6235E6002104F124002D
:102E8800FFF79CFA23680546FFF7A1BB0121201D27
:102E9800FFF71AFA05462368002D7FF4D6AC02E73F
:102EA8000121201DFFF710FA05462368002D7FF445
:102EB800E6AC00E70121201DFFF706FA0546236866
:102EC800002D7FF40BAF5CE603262368354672E4D9
:102ED8000126FFF717BB1848C16A41F40031C162E7
:102EE800FFF709BB01F012F8DFF84C80074641F202
:102EF800883904E001F00AF8C01B4845E4D8D8F83E
:102F080070309B07F6D5D4F8B03070E60A480B4A03
:102F1800016902EA131221F47C510A43026171E645
:102F280023682E4647E4012635468FE401263546B8
:102F38003EE401263546A3E400440258CFFFFF00D3
:102F480008B5FFF75DF9054B054A1B6AC3F3021381
:102F5800D35C03F01F03D84008BD00BF00440258EB
:102F680088540008584B70B4996A9D6ADE6A15F453
:102F78007C3FC5F30532DC6B5CD0C4F3CC04C6F3EC
:102F8800001601F0030106FB04F4012907EE904A3C
:102F9800B8EEE77A03D0022975D000294FD007EEA2
:102FA800902ADFED4A6AF8EEE77A9B6B86EEA76A0D
:102FB8009FED475AC3F3080306EE903AF7EE005A1E
:102FC800F8EEE66AE7EE056A76EEA56A66EE266A28
:102FD8003D4AB7EE006A936BC3F3462307EE103AF7
:102FE800B8EEC77A70BC37EE067AC6EE877AFCEE82
:102FF800E77AC0ED007A936BC3F3064307EE103A05
:10300800B8EEC77A37EE067AC6EE877AFCEEE77A2C
:10301800C0ED017A936BC3F3066307EE903AF8EEBE
:10302800E77A77EE867A86EEA77ABCEEC77A80EDE5
:10303800027A704770BCC0E9002282607047196844
:10304800890627D51C6807EE902A2249F7EE005A10
:103058009B6BC4F3C102F8EEE77A9FED1D5AC3F3E8
:103068000803D14006EE903A06EE101AF8EEE66A2A
:10307800B8EEC66AE7EE056A86EE277A76EEA56AA6
:1030880066EE876AA4E707EE902ADFED136AF8EE8A
:10309800E77A8AE707EE902A9FED105A9B6BB7EE06
:1030A800006AF8EEE77ADFED0A5AC3F30803C5EEC3
:1030B800276A07EE903AF8EEE77AE7EE257A77EE98
:1030C800867A66EEA76A83E7004402580024744AA9
:1030D800000000390090D00320BCBE4B0024744C83
:1030E800584B70B4996A9D6ADE6A15F07C7FC5F307
:1030F80005525C6C5CD0C4F3CC04C6F3002601F026
:10310800030106FB04F4012907EE904AB8EEE77ABA
:1031180003D0022975D000294FD007EE902ADFEDA1
:103128004A6AF8EEE77A1B6C86EEA76A9FED475A63
:10313800C3F3080306EE903AF7EE005AF8EEE66A93
:10314800E7EE056A76EEA56A66EE266A3D4AB7EEB0
:10315800006A136CC3F3462307EE103AB8EEC77A39
:1031680070BC37EE067AC6EE877AFCEEE77AC0EDD9
:10317800007A136CC3F3064307EE103AB8EEC77A29
:1031880037EE067AC6EE877AFCEEE77AC0ED017A6A
:10319800136CC3F3066307EE903AF8EEE77A77EE1E
:1031A800867A86EEA77ABCEEC77A80ED027A7047F7
:1031B80070BCC0E90022826070471968890627D56B
:1031C8001C6807EE902A2249F7EE005A1B6CC4F3DC
:1031D800C102F8EEE77A9FED1D5AC3F30803D14008
:1031E80006EE903A06EE101AF8EEE66AB8EEC66AEF
:1031F800E7EE056A86EE277A76EEA56A66EE876AB6
:10320800A4E707EE902ADFED136AF8EEE77A8AE77B
:1032180007EE902A9FED105A1B6CB7EE006AF8EE85
:10322800E77ADFED0A5AC3F30803C5EE276A07EE0B
:10323800903AF8EEE77AE7EE257A77EE867A66EE48
:10324800A76A83E7004402580024744A0000003942
:103258000090D00320BCBE4B0024744C0F4BDA689E
:10326800D20706D50E490F4A59605A60DB68DB075A
:1032780011D40A4BD3F80C0110F001000AD0084908
:10328800084AC3F80411C3F80421D3F80C0100F06C
:103298000100704770470120704700BF00200052AE
:1032A80023016745AB89EFCD0A4BDA6842F001028A
:1032B800DA60DA68D2070BD5D3F80C2142F00102A4
:1032C800C3F80C21D3F80C01C04300F0010070478B
:1032D80001207047002000522DE9F0410F460546B5
:1032E80000F014FE294C022F294E804618BF0424F2
:1032F80007E0D6F8103124EA03035B0706D4691CFB
:1033080018D1042CF5D133695A07F8D4012F26D0E7
:103318001F4A2049D2F810310B4015D1D2F81001BC
:1033280010F4803004D04FF480311846C2F81411DC
:10333800BDE8F08100F0EAFDA0EB0800A84201D842
:10334800002DDED10320F3E7134C0120A1691943B6
:1033580041F00041A161C2F81431BDE8F0810C4987
:103368000C4A0B691A4009D1086910F48030DFD083
:103378004FF4803310464B61BDE8F081064C384667
:10338800A3691343A3614A61BDE8F081040000808A
:10339800002000520000EE1748030020F8B52F4E19
:1033A800307D012850D001F1784301270D4614469D
:1033B800B3F5801F377536D3A1F10163B3F5801FCC
:1033C80040D2002302214CF25030B361FFF784FF52
:1033D80030BB234A0227D2F80C3143F00203C2F86B
:1033E8000C312246BFF36F8FBFF34F8F04F12001DA
:1033F8002B1B1068D05004328A42FAD1BFF36F8F6A
:10340800BFF34F8F4CF250303946FFF765FF012F5D
:10341800134A1BD0D2F80C3123F00203C2F80C3146
:1034280000233375F8BD002339464CF25030B361A0
:10343800FFF752FF0028F3D1094AD36843F002038B
:10344800D360CEE73846F8BD0220F8BDD36823F034
:103458000203D36000233375E4E700BF480300206C
:103468000020005201F00303032B22D0CA070BD51A
:103478001C4BDA6822F03002DA60DA680243DA605C
:10348800DA6842F08802DA608B0711D5154BD3F859
:103498000C2122F03002C3F80C21D3F80C21104380
:1034A800C3F80C01D3F80C2142F08802C3F80C21B0
:1034B80070470C4BDA6822F03002DA60D3F80C213E
:1034C80022F03002C3F80C21DA680243DA60D3F83C
:1034D8000C211043C3F80C019A6942F010029A615A
:1034E800704700BF0020005210B4CC070BD5104C19
:1034F800E36823F4E663E360E36843EA00231343E5
:1035080043F08403E3608B070FD50949D1F80C31E8
:1035180023F4E663C1F80C31D1F80C3143EA0020FA
:10352800024342F08402C1F80C215DF8044B704755
:10353800002000522DE9F0474E4F3B7D012B00F053
:10354800858000230126044689463E75BB61436891
:10355800DA074FD49A070BD502214CF25030FFF707
:10356800BBFE28B10126002330463B75BDE8F08735
:103578002568012D4ED04FF0FF33C9F80030D4E94B
:1035880002532B449D425FD2DFF8EC80DFF8ECA0B9
:1035980007E0980721D40135D4E902231344AB424C
:1035A80052D9284622696168FFF79EFF6368DE07E3
:1035B800EFD501214CF25030FFF78EFED8F80C30D1
:1035C800064603EA0A03C8F80C306368990704D46E
:1035D800002EE0D0C9F80050C5E702214CF2503067
:1035E800FFF77AFED8F80C31064603EA0A03C8F852
:1035F8000C31EDE731464CF25030FFF76DFE636851
:103608000028A7D09B07ADD502214CF25030FFF718
:1036180063FEA8E761682069FFF724FF636813F079
:10362800010617D19B079ED502214CF25030FFF7B7
:1036380053FE114A0028D2F80C3118BF012623F096
:103648000803C2F80C318EE700268CE702263046C4
:10365800BDE8F08729464CF25030FFF73DFE064A98
:10366800061ED36818BF012623F00803D3606368D9
:10367800D8E700BF4803002000200052FBF8FFFFF6
:103688002DE9F04F0C6883B0002C00F0A6804FF0B5
:10369800000C8E4F634601229A4012EA040E00F095
:1036A80095804D6805F0030909F1FF36012E40F2B7
:1036B8009780B9F1030F40F0D18009FA0CF26FEA54
:1036C8000208066815F4403F06EA080842EA0802BC
:1036D80002607BD0D7F8F42023F0030803F0030935
:1036E80042F0020208F1B0484FEA8909C7F8F4200D
:1036F80008F58068D7F8F42002F002020192019AD6
:103708000F22D8F8086002FA09F226EA0202704E7F
:10371800B04229D006F58066B04200F0AC806D4E0C
:10372800B04200F0AE806C4EB04200F09E806B4E0E
:10373800B04200F0B2806A4EB04200F0B480694EE8
:10374800B04200F0A480684EB04200F0B280674EEC
:10375800B04200F0B480664EB0420CBF09260A267B
:1037680006FA09F942EA0902C8F808204FF0B042FF
:10377800EE026FEA0E0812684FF0B04654BF08EA2E
:1037880002024EEA02023260AA0276684FF0B042A4
:1037980054BF08EA06064EEA06065660D2F8846068
:1037A800AA034FF0B04254BF08EA06064EEA0606DE
:1037B800ED034FF0B045C2F88460D2F8802054BFC2
:1037C80008EA02024EEA0202C5F8802001330CF131
:1037D800020C34FA03F27FF45EAF03B0BDE8F08F59
:1037E8004FF00308866808FA0CF826EA080ACE683B
:1037F8006FEA080806FA0CF646EA0A068660C5F378
:103808000016D0F804A09E402AEA02023243426021
:10381800C268B9F1020F8E6802EA080206FA0CF6CD
:1038280046EA020609FA0CF2C6607FF44AAF03F0D2
:1038380007064FEAD3094FEA860B0F2600EB8909E2
:1038480006FA0BF6D9F820A02AEA060A0E6906FA43
:103858000BF646EA0A06C9F8206032E74FF003087B
:1038680008FA0CF86FEA0808D2E7032606FA09F9FD
:1038780042EA090278E7012606FA09F942EA09024A
:1038880072E7022606FA09F942EA09026CE70626F7
:1038980006FA09F942EA090266E7042606FA09F96E
:1038A80042EA090260E7052606FA09F942EA09022E
:1038B8005AE7072606FA09F942EA090254E70826F0
:1038C80006FA09F942EA09024EE700BF0044025825
:1038D8000000025800080258000C02580010025854
:1038E8000014025800180258001C02580020025800
:1038F8000024025870B5054600F008FB002D00F0C2
:10390800248195F83530022B40F0DD802C6806467E
:103918008F4B9048904A844218BF9C4200F1300077
:103928008E490CBF01230023844208BF43F00103E2
:103938001830844208BF43F001031830844208BF9E
:1039480043F001031830844208BF43F0010300F537
:103958005670844208BF43F001031830844208BF00
:1039680043F001031830844208BF43F001031830C4
:10397800844208BF43F001031830844208BF43F073
:1039880001031830844208BF43F001031830844211
:1039980008BF43F001031830844208BF43F0010315
:1039A8008C4218BF94420CBF0122002202D0002B87
:1039B80000F09080216821F01E012160616921F0EA
:1039C80080016161002A00F0B0802A6E136823F438
:1039D80080731360236823F00103236005E000F07F
:1039E80095FA831B052B00F2A6802368DB07F6D423
:1039F8002A68574B57485A49824218BF9A4200F1E1
:103A080048000CBF012300238A4208BF43F001038A
:103A18003031824208BF43F0010330308A4208BF88
:103A280043F0010301F55C71824208BF43F00103D2
:103A380000F55C708A4208BF43F0010330318242CE
:103A480008BF43F0010330308A4208BF43F0010346
:103A58003031824208BF43F0010330308A4208BF48
:103A680043F001033031824208BF43F001038A4228
:103A780008BF43F0010318318A4208BF43F001032D
:103A880033B9A1F59561354B9A4218BF8A426FD177
:103A9800EA6D3F23A96D02F01F0293408B60EB6E25
:103AA800D5E91921516033B11A68D5E91C1022F4FF
:103AB80080721A60486000230122184685F8352074
:103AC80085F8343070BD8022002301206A6585F8AE
:103AD800343070BD2268234922F00E022260224A47
:103AE8008C4218BF944201F128010CBF0122002228
:103AF8008C4208BF42F0010214318C4208BF42F0E8
:103B0800010214318C4208BF42F0010214318C4288
:103B180008BF42F0010214318C4208BF42F0010292
:103B28001AB9124A94427FF455AF296E0A6822F4F2
:103B380080720A604EE72021032200230120696574
:103B480085F8343085F8352070BD012070BD00BF80
:103B58005800024040000240100002402800024085
:103B680070000240085402581C54025894540258D9
:103B7800E86D0121164B00F01F00164C8140A2424F
:103B880018BF9A42A86D0CBF012300234160124858
:103B98001249824208BF43F0010328308A4208BF15
:103BA80043F001032831824208BF43F001038A42EF
:103BB80008BF43F0010314318A4208BF43F00103F0
:103BC800002B7FF46CAF064B9A423FF468AF72E764
:103BD8001C5402580854025830540258445402588D
:103BE8009454025800285FD038B590F83520034621
:103BF800022A55D10168574A914248D01832914259
:103C080045D03032544C5548A14218BF914204F176
:103C180048040CBF01220022814208BF42F0010281
:103C28003030A14208BF42F001023034814208BF5F
:103C380042F0010200F55C70A14208BF42F00102A7
:103C480004F55C74814208BF42F001023030A142A1
:103C580008BF42F001023034814208BF42F001023D
:103C68003030A14208BF42F001023034814208BF1F
:103C780042F001023030A14208BF42F00102814205
:103C880008BF42F0010212B9354A91420ED104220E
:103C9800002083F835200B6823F001030B6038BD42
:103CA800802201205A6538BD012070472D4A2E4DCB
:103CB8000868A94218BF91422C4C20F00E0005F16B
:103CC8003C050CBF012200220860A14208BF42F057
:103CD800010208682834A94208BF42F0010220F016
:103CE8000100A14208BF42F0010214340860A14259
:103CF80008BF42F001021E48814208BF42F001029B
:103D080012B91C4A914217D101229D6DD3E91704BB
:103D1800216800F01F0021F48071824021606A60F0
:103D2800DA6ED3E91910486032B11168D3E91C047E
:103D380021F4807111604460012100241A6D83F818
:103D4800351083F834401AB118469047204638BDDC
:103D5800104638BD1000024040000240700002408A
:103D6800B80402401C5402580854025830540258EF
:103D7800805402589454025838B5104CE36813F034
:103D8800040FE36805D103F00703181A18BF0120D0
:103D980038BD23F007031843E06000F0B7F8054684
:103DA80005E000F0B3F8401BB0F57A7F04D86368EB
:103DB8009B04F6D5002038BD012038BD00480258C4
:103DC800704700BF10B5194B0024194940F2712003
:103DD800184AD9671821DC67C3F88020164AC3F847
:103DE8008040C3F884004FF49B70C3F88440C3F844
:103DF8008820124AC3F88840C3F88C10C3F88C4056
:103E08000F49C3F890200F4AC3F89040C3F89400B4
:103E1800C3F89440C3F89810C3F89840C3F89C209E
:103E2800C3F89C40FFF7CCFF204610BD0044025861
:103E38003150010023C0000AFF072803FFC3FFE831
:103E48003330D731AADE20000F4B1B780BB9012085
:103E5800704710B504464FF47A700C4AB0FBF3F380
:103E68001068B0FBF3F0FDF7F3F90F2C00D808B198
:103E7800012010BD002221464FF0FF30FDF79CF9CC
:103E8800034B00201C6010BD00000020080000202B
:103E98000400002010B50320124CFDF77BF9FEF753
:103EA80065F8114B11499A699B69C2F3032203F023
:103EB8000F038A5CCB5C02F01F020D4903F01F035D
:103EC800D04020FA03F308600F202360FFF7BCFFFF
:103ED80010B10124204610BD0446FDF749F92046DB
:103EE80010BD00BF0C000020004402588854000890
:103EF80008000020034A044B11681B780B44136028
:103F0800704700BF6403002000000020014B1868C0
:103F1800704700BF64030020014B1868000C70470D
:103F28000010005C026810B452E8003F23F490735C
:103F380042E800310029F7D1144C02F1080353E894
:103F4800003F234002F1080C4CE800310029F4D16D
:103F5800C36E012B08D0002320225DF8044BC0F863
:103F680088200367C366704752E8003F23F01003B8
:103F780042E800310029EED052E8003F23F0100358
:103F880042E800310029EFD1E5E700BFFEFFFFEF6F
:103F9800704700BF704700BF08B5806B0023A0F8CA
:103FA8005E30A0F85630FFF7F5FF08BD704700BF38
:103FB800036840F60F0CDA6912EA0C0F2DE9F0419C
:103FC8001D680446996800F0EA809C4E9C4805EA02
:103FD800060C08405CEA000673D1E06E01281ED08A
:103FE800D70202D54E0200F11081100606D501F461
:103FF800000105F08000014340F0FF80570602D51C
:104008006E0600F1DD80100202D5690000F1098119
:10401800D30102D5002DC0F24B81BDE8F081D60650
:10402800DED5E806DCD510221A629A68520640F1FD
:104038000B81E06F01684A6892B2002AEDD0B4F8AB
:104048005C109142E9D9A4F85E20C269B2F5807F7C
:104058002FD053E8002F22F4807243E80021002972
:10406800F7D103F1080252E8002F22F0010203F110
:10407800080545E800210029F3D103F1080252E8B8
:10408800002F22F0400203F1080545E8002100292D
:10409800F3D12022C4F88820E16653E8002F22F0EB
:1040A800100243E800210029F7D1FFF723FCB4F8F8
:1040B8005C10B4F85E302046C91A89B2FFF776FF63
:1040C800ABE7D6071F4609D5EE0507D501261E62C0
:1040D800D4F88C6046F00106C4F88C6096077FD54A
:1040E800CE0709D502261E62D4F88C6046F0040675
:1040F800C4F88C60560777D416070BD505F0200650
:10410800304307D008201862D4F88C0040F008002B
:10411800C4F88C0016050AD5680108D54FF400606C
:104128001862D4F88C3043F02003C4F88C30D4F8EB
:104138008C30002B3FF471AF930606D505F02005AF
:1041480001F0805155EA010370D1D4F88C50204613
:10415800BB6805F0280503F040031D4300F0AD805F
:10416800FFF7E0FE23689A68570656D503F1080260
:1041780052E8002F22F0400203F1080040E8002135
:104188000029F3D1E06F002847D02E4B0365FFF7D5
:1041980029FD00283FF441AFE06F036D0DE097065D
:1041A8007FF51BAF05F0200601F080573E433FF432
:1041B80014AF036F002B3FF430AFBDE8F041184750
:1041C80053E8002F22F0400243E800210029F7D1EC
:1041D800202320466167C4F88430FFF7D9FE1CE726
:1041E800560789D5CE0787D504261E62D4F88C6079
:1041F80046F00206C4F88C607EE7636F002B3FF43C
:104208000CAF2046BDE8F04118474FF48012204615
:104218001A62BDE8F04100F0E9BF2046FFF7BAFE98
:10422800FBE62046BDE8F04100F0E4BF236F002B19
:104238008BD020469847276887E700BF20010004F5
:1042480001000010A13F0008B4F85E00B4F85C104B
:10425800B4F85E20091A92B289B2002A3FF4DDAEA2
:1042680000293FF4DAAE53E8002F22F4907243E8B5
:1042780000200028F7D1134D03F1080252E8002F5F
:104288002A4003F1080646E800200028F4D120223D
:104298002067C4F88820E06653E8002F22F0100257
:1042A80043E800200028F7D12046FFF77FFEB4E658
:1042B8002046BDE8F04100F09BBFFFF76BFEC4F855
:1042C8008C50AAE6FEFFFFEF08B5D0F88830222B05
:1042D80005D00268936943F00803936108BD036839
:1042E800B0F860105B6A826D0B401370B0F85E30F6
:1042F800826D013B01329BB28265A0F85E30B0F856
:104308005E309BB2002BE9D1036853E8002F22F4FA
:10431800907243E800210029F7D103F1080252E81E
:10432800002F22F0010203F1080C4CE800210029BB
:10433800F3D120220167C0F88820C26E012A12D169
:10434800C16653E8002F22F0100243E8002100293B
:10435800F7D1DA69D20601D510221A62B0F85C10DA
:10436800FFF724FE08BDFCF7B3FD08BD08B5D0F87B
:104378008830222B05D00268936943F008039361C3
:1043880008BD0368B0F860C05A6A816D02EA0C0281
:1043980021F8022BB0F85E208165013A92B2A0F8AC
:1043A8005E20B0F85E2092B2002AE9D153E8002FCF
:1043B80022F4907243E800210029F7D103F10802A2
:1043C80052E8002F22F0010203F1080C4CE800210A
:1043D8000029F3D120220167C0F88820C26E012A83
:1043E80012D1C16653E8002F22F0100243E80021E1
:1043F8000029F7D1DA69D20601D510221A62B0F87D
:104408005C10FFF7D3FD08BDFCF762FD08BD00BFD7
:1044180002682DE9F0470446D06917689668D4F811
:104428008810222906D01346926942F008029A6140
:10443800BDE8F087B4F86830002B00F0B280810640
:1044480078D594F860A006F001064FF00008DFF870
:104458005C91536AA26D0AEA03031370B4F85E20F4
:104468002368013AA16D92B20131A4F85E20DD699A
:10447800A1656A071BD0E80709D5F90507D5012208
:104488001A62D4F88C2042F00102C4F88C20AA07E2
:1044980015D54EB1022268071A62D4F88C2042F072
:1044A8000402C4F88C200ED4D4F88C30BBB9B4F80C
:1044B8005E309BB2EBB1AB063CD52268C9E7690711
:1044C800F2D5002EF0D004221A62D4F88C3043F0D2
:1044D8000203C4F88C30D4F88C30002BE7D0204687
:1044E800FFF758FDC4F88C80B4F85E309BB2002BFF
:1044F800E1D1236853E8002F22F4807243E80021B9
:104508000029F7D103F1080252E8002F02EA090254
:1045180003F1080040E800210029F3D12022216797
:10452800C4F88820E26E012A27D02046FCF7D0FC88
:10453800AB06C2D4B4F85E309BB2002B3FF478AF20
:10454800B4F868209A427FF673AF236803F1080233
:1045580052E8002F22F0805203F1080040E80021C1
:104568000029F3D1104A226753E8002F42F02002B5
:1045780043E800210029F7D15AE7E16653E8002F04
:1045880022F0100243E800210029F7D1DA69D206A7
:1045980001D510221A62B4F85C102046FFF706FD18
:1045A80089E7B4F85E3043E7D1420008FEFFFFEF29
:1045B80003682DE9F047D9691E689D68D0F88820FE
:1045C800222A05D09A6942F008029A61BDE8F0876C
:1045D800B0F868208246002A00F0B88089067BD5AA
:1045E800B0F8609005F001050027DFF86C815A6A81
:1045F800DAF8581009EA020221F8022BBAF85E200C
:10460800CAF85810013A92B2AAF85E20DC6962072B
:104618001BD0E00709D5F10507D501221A62DAF89F
:104628008C2042F00102CAF88C20A20716D54DB1A1
:10463800022260071A62DAF88C2042F00402CAF8F3
:104648008C200FD4DAF88C30C3B9BAF85E309BB23C
:10465800F3B1A30640D5DAF80030C8E76107F1D511
:10466800002DEFD004221A62DAF88C3043F00203EE
:10467800CAF88C30DAF88C30002BE6D05046FFF7B9
:1046880089FCCAF88C70BAF85E309BB2002BE0D176
:10469800DAF8003053E8002F22F4807243E8002152
:1046A8000029F7D103F1080252E8002F02EA0802B4
:1046B80003F1080040E800210029F3D12022CAF8BC
:1046C8007010CAF88820DAF86C20012A29D05046E0
:1046D800FCF7FEFBA306BED4BAF85E309BB2002BF3
:1046E8003FF474AFBAF868209A427FF66FAFDAF8F1
:1046F800003003F1080252E8002F22F0805203F143
:10470800080040E800210029F3D1124ACAF87020B5
:1047180053E8002F42F0200243E800210029F7D196
:1047280054E7CAF86C1053E8002F22F0100243E84F
:1047380000210029F7D1DA69D20601D510221A62C0
:10474800BAF85C105046FFF731FC82E7B0F85E30EB
:104758003CE700BF75430008FEFFFFEF0169826870
:1047680003680A43C04930B545690446C06987B043
:104778002A431D6802432940BC4D0A43E168AB4205
:104788001A605A6822F4405242EA0102A1695A604A
:1047980000F0E080226A9D681143B54A2A40656AA4
:1047A80011439960DA6A22F00F022A43DA62B14AA9
:1047B800934223D0B04A934276D0B04A934200F055
:1047C8008F81AF4A934200F0E281AE4A934200F0F3
:1047D8002181AD4A934200F0E481AC4A934200F053
:1047E8003A82AB4A934200F0E881012000234FF05F
:1047F80001122367A266636707B030BDA54B5B6DE6
:1048080003F03803282BF0D8A34AD35CB0F5004F47
:1048180055D0202B00F24A81202BE6D801A252F86D
:1048280023F000BF6B4A0008654A0008F3470008F8
:10483800F3470008554A0008F3470008F347000803
:10484800F3470008474A0008F3470008F347000801
:10485800F3470008F3470008F3470008F347000848
:10486800F3470008314A0008F3470008F3470008F7
:10487800F3470008F3470008F3470008F347000828
:10488800F3470008F3470008F3470008F347000818
:10489800F3470008F3470008F3470008F347000808
:1048A800F3470008D74B00087A4B5B6D03F007030A
:1048B800052B9AD8794AB0F5004FD35CA9D1202BA3
:1048C80000F24681202B90D801A252F823F000BFB5
:1048D8004B4C0008454C0008F3470008F347000814
:1048E800514C0008F3470008F3470008F347000855
:1048F800334C0008F3470008F3470008F347000863
:10490800F3470008F3470008F3470008F347000897
:104918001F4C0008F3470008F3470008F347000856
:10492800F3470008F3470008F3470008F347000877
:10493800F3470008F3470008F3470008F347000867
:10494800F3470008F3470008F3470008F347000857
:104958005B4C00089868464A02404E480A439A60F1
:10496800DA6A616A22F00F020A43DA62836D03F0A1
:104978000703052B3FF639AF494AD35C202B00F2D9
:10498800B980012B7FF631AF023B1E2B3FF62DAFCE
:1049980001A252F823F000BF0F4C0008F3470008AB
:1049A800FF4B0008F3470008F3470008F3470008E7
:1049B800EF4B0008F3470008F3470008F3470008E7
:1049C800F3470008F3470008F3470008F3470008D7
:1049D800DB4B0008F3470008F3470008F3470008DB
:1049E800F3470008F3470008F3470008F3470008B7
:1049F800F3470008F3470008F3470008F3470008A7
:104A0800F3470008F3470008F3470008F347000896
:104A18001B4C00081F4B5B6D03F00703052B3FF68B
:104A2800E4AE204AD35CF1E61A4B1A68920640F1CC
:104A3800C2801B681C48C3F3C103D8403BE003A8ED
:104A4800FEF74EFB049838B90020CFE66846FEF71B
:104A580089FA01980028F7D0656A2CE0FDF722FC56
:104A6800F1E7FDF70DFCEEE7F369FFCF000C005806
:104A7800FFF4FF11001001400044004000480040CE
:104A8800004C0040005000400014014000780040F5
:104A9800007C004000440258245400085054000888
:104AA80058540008505400080090D003402B7FF45D
:104AB8009CAE4FF400406F4B4FF6EF71626833F8CD
:104AC8001530B0FBF3F303EB5203B3FBF2F3A3F19E
:104AD80010028A423FF689AE22680020D36085E63C
:104AE800654B5B6D03F00703052B3FF67EAE634A0B
:104AF800D35C8BE6402B7FF478AE4FF400405D4BDF
:104B0800626A656833F8122005EB4501B0FBF2F3E1
:104B180099423FF66AAEB3EB053F3FF666AE002317
:104B28001946FBF709FD2A460902030241EA10610A
:104B3800680818184FF0000341F10001FBF7FCFC6E
:104B48004F4AA0F54071034691423FF64EAEC3E787
:104B5800402B7FF44AAE474B626833F81510530870
:104B6800B0FBF1F003EB40004FF6EF73B0FBF2F04F
:104B7800A0F110029A423FF638AE20F00F03C0F3BE
:104B8800420022689BB203430020D3602EE63A4BD2
:104B98005B6D03F00703052B3FF627AE394AD35C5C
:104BA80034E6354B5B6D03F03803282B3FF61DAE1A
:104BB800354AD35C2AE635487DE72F4B5B6D03F019
:104BC8000703052B3FF611AE314AD35C1EE6314888
:104BD80071E7294B1A68900647D51B682B48C3F321
:104BE800C103D8408BE703A8FEF77AFA0498002897
:104BF8003FF42AAF83E76846FEF7B4F90198002826
:104C08003FF422AF7BE7FEF79BF900283FF41CAF87
:104C180075E7204873E7184B1A68910627D51B6873
:104C28001A48C3F3C103D84095E703A8FEF758FA1A
:104C3800049800283FF408AF656A8CE7FDF732FB5B
:104C4800F7E7FDF71DFBF4E76846FEF78BF90198D7
:104C5800EFE710487FE7084B5B6D03F00703052B70
:104C68003FF6C3AD0C4AD35CD0E5084847E7074890
:104C780071E700BF6054000800440258505400080F
:104C8800FFFC0F0050540008245400080090D00383
:104C98005054000800093D0050540008836ADA07A0
:104CA80010B406D50168C46A4A6822F40032224367
:104CB8004A609C0706D50168046B4A6822F4803272
:104CC80022434A60590706D50168446B4A6822F4B2
:104CD800802222434A601A0706D50168846B4A6815
:104CE80022F4004222434A60DC0606D50168C46B00
:104CF8008A6822F4805222438A60990606D50168A0
:104D0800046C8A6822F4005222438A605A060AD543
:104D18000168446C4A68B4F5801F22F4801242EAA4
:104D280004024A600BD01B0606D50268C16C5368A2
:104D380023F400230B4353605DF8044B70474A6823
:104D4800846C22F4C00222434A60ECE72DE9F04764
:104D5800DDF8208081460F4616469A46056802E02F
:104D6800B8F1FF3F0CD1EC6937EA04030CBF4FF0F0
:104D7800010C4FF0000CB445F2D00020BDE8F087DC
:104D8800FFF7C4F8A0EB0A0040452DD8B8F1000F92
:104D98002AD0D9F800502B682A465907E3D5EB6981
:104DA8001B05E0D54FF400632B6252E8003F23F463
:104DB800D07342E800310029F7D102F1080353E823
:104DC800003F23F0010302F1080040E80031002908
:104DD800F3D12023032089F88010C9F88430C9F85A
:104DE8008830C9F88C30C9E7D9F8002052E8003F6C
:104DF80023F4D07342E800310029F7D102F1080307
:104E080053E8003F23F0010302F1080040E80031B5
:104E18000029F3D12023032089F88010C9F88430B1
:104E2800C9F88830AAE700BF2DE9F0431E46D0F83C
:104E3800843083B0202B4CD10D46002945D0B2FADE
:104E480082F917464FEA5919002A3ED090F8803067
:104E58000446012B3DD00123C0F88C9080F88030A7
:104E68002123C0F88430FFF751F8A3688046A4F8DE
:104E78005470B3F5805FA4F8567041D0B4F856303A
:104E880000229BB284F8802073B92AE015F8012B20
:104E980023689A62B4F85620013A92B2A4F85620D0
:104EA800B4F8562092B2E2B143460022802120464F
:104EB8000096FFF74BFF80B9002DE7D139F8023B88
:104EC8002268C3F308039362E4E7012003B0BDE856
:104ED800F083022003B0BDE8F083032003B0BDE8EF
:104EE800F08343460022402120460096FFF72EFF1C
:104EF8000028F2D12023C4F8843003B0BDE8F08341
:104F08002369002BBAD1A9461D46B7E770B500261C
:104F1800044682B0C0F88C60FEF7F8FF23680546A7
:104F28001A6812070ED41B685B071AD400232022C4
:104F38001846C4F8842084F88030C4F88820E366D2
:104F480002B070BD6FF07E410346324620460091A4
:104F58004FF40011FFF7FAFE78B923681B685B0766
:104F6800E4D56FF07E402B4600224FF4800100907C
:104F78002046FFF7EBFE0028D8D0032002B070BD12
:104F880080B3D0F8843010B5044633B322682423A4
:104F98002046C4F88430136823F001031360FFF738
:104FA800DDFB012817D0A36A8BB9236820465A680D
:104FB80022F490425A609A6822F02A029A601A688B
:104FC80042F00102BDE810401A60FFF79FBF20467B
:104FD800FFF764FEE9E7012010BD80F88030FCF798
:104FE8005FF8D3E701207047836810B4B3F5805F9A
:104FF8004FF000048165A0F85C20A0F85E200467EB
:1050080057D0002B4BD0B3F1805F00F08380A0F81D
:105018006040002422230168C0F88C40C0F8883022
:1050280001F1080353E8003F43F0010301F1080CC4
:105038004CE80034002CF3D1436EB3F1005F40D04C
:105048008368B3F5805F12D03C4C00220369046783
:1050580080F8802093B151E8003F43F4907341E811
:105068000032002AF7D100205DF8044B704703692D
:10507800002B49D1324A80F88030026751E8003F5E
:1050880043F0200341E80032002AECD051E8003F09
:1050980043F0200341E80032002AEFD1E3E7036937
:1050A8001BB9FF23A0F86030B3E77F23A0F8603076
:1050B800AFE70369002BF4D140F2FF13A0F860308A
:1050C800A7E7B0F868309342BAD88368B3F5805F31
:1050D80027D01C4A036980F8804002673BB151E839
:1050E800003F43F4807341E80032002AF7D101F110
:1050F800080353E8003F43F0805301F1080040E8FB
:105108000032002AF3D1AEE70C4A0023026780F888
:105118008030A0E70369002BC7D03F23A0F8603098
:1051280077E7036923B9084A80F880300267DEE729
:10513800044B80F880400367D1E700BFD1420008E4
:105148007543000819440008B9450008D0F88830AC
:10515800202B21D1F1B1B2FA82F35B09D2B130B47C
:1051680090F88040012C19D004680125C3660D4BC6
:1051780080F880509C420AD063681B0207D554E827
:10518800003F43F0806344E80035002DF7D130BC80
:10519800FFF72ABF0120704702207047022030BC69
:1051A800704700BF000C005803680E4A99689B6856
:1051B800C1F342614FEA537C535C12F80C201B0187
:1051C800120110B4084C14F80CC0615C5DF8044B73
:1051D800B2FBFCF2B3FBF1F3A0F86A20A0F8683048
:1051E800704700BF8054000878540008704700BF1B
:1051F800704700BF704700BF90F88020012A17D081
:10520800026803462420002130B4C3F88400202516
:105218001068146820F0005024F0010414605966E6
:1052280010600846C3F8845083F8801030BC70477B
:105238000220704738B590F88030012B23D0012226
:105248000368044680F880202422C0F884201D6862
:105258001A6822F001021A609A6822F0604211432B
:10526800426E99605AB1FFF79FFF03680022202120
:105278001D601046C4F8841084F8802038BD4FF0B3
:1052880001128266F2E7022038BD00BF38B590F8F7
:105298008030012B23D001220368044680F8802047
:1052A8002422C0F884201D681A6822F001021A60BE
:1052B8009A6822F060621143426E99605AB1FFF712
:1052C80073FF0368002220211D601046C4F8841073
:1052D80084F8802038BD4FF001128266F2E7022080
:1052E80038BD00BF2749284AD1F8883043F47003F5
:1052F80010B4C1F88830136803F00F03062B05D8E3
:10530800136823F00F0343F0070313601F4B0024B7
:105318001F4A19681C4841F0010119601C6119688D
:105328000A401A6003681B0705D5036823F00F03BA
:1053380043F007030360154B00221649164C174823
:105348009A61DA611A629C62D86219635A63996336
:10535800DA6319645A641868114C20F480201149E2
:1053680018601A6623681940B1F1005F03D20E4B2A
:105378000122C3F808210D4B43F2D2025DF8044B19
:105388001A60704700ED00E0002000520044025807
:105398007FEDF6EA80020101000202020000FF012F
:1053A8000010005C0000FFFF008000510040005228
:1053B800DFF834D0FFF796FF0C480D490D4A00235B
:1053C80002E0D458C4500433C4188C42F9D30A4AB2
:1053D8000A4C002301E013600432A242FBD3FAF71F
:1053E8009BFFFBF759FD70470000022000000020DA
:1053F80010000020A85400081000002068030020B6
:10540800FEE70000F8B500BFF8BC08BC9E46704730
:0C541800F8B500BFF8BC08BC9E46704709
:105424000180808080808080048080808080808073
:105434000880808080808080108080808080808050
:10544400208080808080808040000000000408105C
:105454002040000002040810204000000100020067
:105464000400060008000A000C00100020004000A0
:105474008000000108040204080101010101010384
:1054840007010000000000000102030401020304FC
:0454940006070809F6
:08549800D8B0FF7F0100000005
:0454A00001030008FC
:0454A400D902000821
:1054A80001000000100000000090D0030090D0031D
:04000005080053B9E3
:00000001FF
