:020000040800F2
:100000000000022065480008BD180008C11800085B
:10001000C5180008C9180008CD1800080000000025
:10002000000000000000000000000000D1180008DF
:10003000D518000800000000D9180008DD180008D5
:10004000B5480008B5480008B5480008B54800089C
:10005000B5480008B5480008B5480008B54800088C
:10006000B5480008B5480008B5480008B54800087C
:10007000B5480008B5480008B5480008B54800086C
:10008000B5480008B5480008B5480008B54800085C
:10009000B5480008B5480008B5480008B54800084C
:1000A000B5480008B5480008B5480008B54800083C
:1000B000B5480008B5480008B5480008B54800082C
:1000C000B5480008B5480008B5480008B54800081C
:1000D000B5480008B5480008B5480008B54800080C
:1000E000B5480008B548000800000000B548000801
:1000F000B5480008B5480008B5480008B5480008EC
:10010000B5480008B5480008B5480008B5480008DB
:10011000B5480008B5480008B5480008B5480008CB
:10012000B5480008B5480008B5480008B5480008BB
:10013000B5480008B5480008B5480008B5480008AB
:1001400000000000000000000000000000000000AF
:10015000B5480008B5480008B5480008B54800088B
:10016000B5480008B5480008B5480008B54800087B
:10017000B5480008B5480008B54800080000000070
:10018000B5480008B5480008B5480008B54800085B
:10019000B5480008B5480008B5480008B54800084B
:1001A000B5480008B5480008B5480008B54800083B
:1001B000B5480008B5480008B5480008B54800082B
:1001C000B5480008B5480008B5480008B54800081B
:1001D000B5480008B5480008B5480008B54800080B
:1001E000B5480008B5480008B5480008B5480008FB
:1001F000B5480008B5480008B5480008B5480008EB
:10020000B5480008B5480008B5480008B5480008DA
:10021000B5480008B5480008B5480008B5480008CA
:10022000B5480008B5480008B548000800000000BF
:10023000B5480008B548000800000000B5480008AF
:10024000B5480008B5480008B5480008B54800089A
:10025000B5480008B5480008B5480008B54800088A
:10026000B5480008B5480008B5480008B54800087A
:10027000B5480008B5480008B5480008000000006F
:10028000B5480008B5480008B5480008000000005F
:0802900000000000B548000861
:1002C0000348044B834202D0034B03B118477047E5
:1002D000740000207400002000000000054806495A
:1002E0000B1AD90F01EBA301491002D0034B03B144
:1002F00018477047740000207400002000000000C0
:1003000010B5064C237843B9FFF7DAFF044B13B15D
:100310000448AFF300800123237010BD7400002057
:1003200000000000B848000808B5044B1BB10449A0
:100330000448AFF30080BDE80840CFE700000000AC
:1003400078000020B848000870B50D4E0D4D761BA2
:10035000B61006D0002455F8043B01349847A64255
:10036000F9D1094E094D761B04F0A6FAB61006D055
:10037000002455F8043B01349847A642F9D170BDDA
:10038000A4490008A4490008A8490008A449000895
:10039000830730B548D0541E002A3FD0CAB2034666
:1003A00001E0013C3AD303F8012B9D07F9D1032C5E
:1003B0002DD9CDB245EA05250F2C45EA054536D99C
:1003C000A4F1100222F00F0C03F1200EE6444FEAD4
:1003D000121C03F1100242E9045542E902551032A1
:1003E0007245F8D10CF1010214F00C0F03EB02126C
:1003F00004F00F0C13D0ACF1040323F00303043317
:10040000134442F8045B9342FBD10CF003042CB17B
:10041000CAB21C4403F8012B9C42FBD130BD644698
:100420001346002CF4D1F9E703461446BFE71A46F9
:10043000A446E0E70000000000000000000000000B
:1004400090F800F06DE9024520F007016FF0000C14
:1004500010F0070491F820F040F049804FF00004BC
:100460006FF00700D1E9002391F840F000F1080097
:1004700082FA4CF2A4FA8CF283FA4CF3A2FA8CF3CF
:100480004BBBD1E9022382FA4CF200F10800A4FA36
:100490008CF283FA4CF3A2FA8CF3E3B9D1E904238A
:1004A00082FA4CF200F10800A4FA8CF283FA4CF3C1
:1004B000A2FA8CF37BB9D1E9062301F1200182FA7B
:1004C0004CF200F10800A4FA8CF283FA4CF3A2FA81
:1004D0008CF3002BC6D0002A04BF04301A4612BA8F
:1004E000B2FA82F2FDE8024500EBD2007047D1E992
:1004F000002304F00305C4F100004FEAC50514F021
:10050000040F91F840F00CFA05F562EA05021CBFF1
:1005100063EA050362464FF00004A9E770B50B4E8D
:100520009AB004466FF00045CDE9044513460094A7
:100530000A463068064C02956946039400F0FCF8C0
:10054000009B00221A701AB070BD00BF000000208E
:100550000802FFFF10B59AB06FF00044CDE9041413
:10056000009102946946044C039400F0E5F8009B66
:1005700000221A701AB010BD0802FFFF2DE9F047E3
:100580008F689F420C461D46164638D88246888999
:1005900010F4906F0ED108683D462A46314600F0AF
:1005A000C1FCA2682368D21B2B44A26023600020F8
:1005B000BDE8F0874B69096903EB4308236808EB42
:1005C000D878A3EB01096B1C4FEA68084B444345FC
:1005D000424684BF98464246430513D511465046CD
:1005E00000F07EFD074608B321694A4600F000FC92
:1005F000A38923F4906343F08003A38107E0086894
:100600001F46CAE7504600F0C5FD074650B107EB4C
:100610000900A8EB09032761C4F81480A3602060D7
:100620002F46BAE72169504600F0F8FC0C23CAF8BF
:100630000030A38943F040034FF0FF30A381B7E7B8
:100640002DE9F04F936883B09146002B6ED0176868
:100650008D6880460C460868083744E0A38913F487
:10066000906F2ED0D4E90415A0EB010A05EB4505E7
:1006700005EBD5750AEB06006D100130A8422A463D
:1006800084BF05462A465B0537D51146404600F033
:1006900027FD00283BD052462169019000F0A8FBBD
:1006A000A289019B22F4906242F08002A281A5EB14
:1006B0000A0203EB0A006561A260236120603546EF
:1006C000B2465946524600F02DFCA068D9F80810F1
:1006D0002368451B8E1B03EB0A00A5602060C9F848
:1006E00008601EB3083757E902B6002EFAD0B542AB
:1006F000AA46B3D93546B246E3E7404600F04AFD84
:1007000003460028D3D12169404600F087FC0C2322
:10071000C8F80030A389002243F040034FF0FF30B7
:10072000A381C9E9012203B0BDE8F08F0020C9F818
:10073000040003B0BDE8F08F2DE9F04F92468A899E
:1007400015069DB0884681461C4603D50A69002AD5
:1007500000F0EF80002209929AF800307E4D039459
:1007600020228DF8292030228DF82A200126002B06
:1007700072D0544603E014F8013F002B76D0252BAD
:10078000F9D1B4EB0A0B74D12278002A64D000238B
:100790004FF0FF32CDE90523049307938DF85330D2
:1007A0001A93013404E0049A06FA03F31343049302
:1007B000A246052214F8011B284600F0C9FA431B83
:1007C0000028F0D1049BD80644BF20228DF8532086
:1007D00019079AF8001044BF2B228DF853202A29BC
:1007E00054D1039A11680432002903927CDB0791EB
:1007F0009AF801100AF1010A2E2959D0574C032208
:10080000204600F0A5FA40B1049B001B402404FAE6
:1008100000F0034304930AF1010A1AF8011B50483F
:100820008DF82810062200F093FA002862D04D4B74
:10083000002B52D003AA00924B4B424604A94846D3
:10084000AFF3008007467A1C06D0099B3B4409930E
:100850009AF80030002B8CD1B8F80C305B0654BFEE
:1008600009984FF0FF301DB0BDE8F08FB4EB0A0BD4
:10087000F2D05B46524641464846FFF77FFE0130C4
:10088000EAD0099B22785B4409937EE7A1F130020C
:10089000092AB1D8079B1AF8011F03EB830302EB67
:1008A0004303A1F13002092AF5D92E290793A5D1D6
:1008B0009AF801102A2927D1039B9AF802101A6886
:1008C00005920433002A0AF102000393B8BF4FF0E7
:1008D000FF338246B8BF059390E7039B073323F0AD
:1008E000070308330393B0E7494243F0020307913B
:1008F00004937DE703AA00921B4B424604A9484695
:1009000000F0CAF807469EE7A1F130020023092A49
:1009100005930AF1010A3FF671AF1AF8011F03EBC4
:10092000830302EB4303A1F13002092AF5D90593B1
:1009300064E7402100F0D4FBC8F80000C8F81000BC
:1009400018B14022C8F8142004E70C23C9F800307D
:100950004FF0FF3087E700BF604900086849000892
:100960006C490008000000007D0500082DE9F84FE3
:1009700092461F460A698B68DDF828909A42B8BFF4
:100980001A46CAF8002091F843300C46064613B1C7
:100990000132CAF80020226891065DD5DAF80030ED
:1009A0000233CAF80030226812F0060F11461ED139
:1009B000E168CB1A002BD8BF114618DD04F1190BE2
:1009C0004FF0000805E0E568DAF80030ED1A45451B
:1009D0000CDD01235A4639463046C847013008F13C
:1009E0000108F0D14FF0FF30BDE8F88F216894F88E
:1009F0004330003B18BF01238A060AD5E1185A1C70
:100A0000302081F84300224494F8451082F84310C6
:100A1000023304F1430239463046C8470130E1D081
:100A2000236803F00603042B1DD0A36822699342B8
:100A300025DD4FF000089B1A98441A34002501E088
:100A400045451CDA0123224639463046C847013065
:100A500005F10105F4D1C5E712F0060F12D0003BF5
:100A600018BF0123D5E7DAF80030E1682269C91A16
:100A7000A368934221EAE178DDDC0029DDDC002077
:100A8000BDE8F88FE168DAF80030CB1A002BD8BF48
:100A9000114693DCABE700BF2DE9F0470C4684B06C
:100AA0009046227E0C990746994604F14300002A9D
:100AB00033D0A2F15803DDB2202D67D8202B65D8A2
:100AC000DFE813F0DE00640064006400640064008A
:100AD00064006400640064006400A3006E006400AD
:100AE0006400640064006E006400640064006400DC
:100AF00021007F00C00064006400AE0064007F003D
:100B000064006400E50023681A0640F104810B6864
:100B100062691D1D0D601B681A60002382462361F7
:100B2000CDF80090434603AA21463846FFF71EFF42
:100B3000013020D02369524641463846C84701302B
:100B400019D02368E068039E9B0719D5831B002BEF
:100B500016DD04F1190A002504E0E068039E831BFA
:100B6000AB420DDD0123524641463846C8470130AD
:100B700005F10105F1D14FF0FF3004B0BDE8F08779
:100B8000B042B8BF304604B0BDE8F087012384F816
:100B90004220236104F1420A002384F84330BFE776
:100BA00023681A0602D45E0600F1C1800D682A6827
:100BB00004350D601546002A6BDBDFF884C10A2678
:100BC00010E023681D0640F19C800B681D1D0D6020
:100BD0001D68DFF86CC16F2A0CBF08260A260023A7
:100BE00084F843306268A260002A7FDB236823F028
:100BF00004032360002D5BD1002A79D18246082EA0
:100C000065D0A0EB0A0020618AE70B680122186812
:100C100004330B6004F1420A84F842002261BBE70E
:100C20000B686268181D0860D3F800A000215046C8
:100C300000F08EF8002800F08180A0EB0A006060D0
:100C40002061A9E7236843F0200323607822DFF8BE
:100C5000F4C084F845200A68151D0D601D0643D4B4
:100C6000590641D51588DE0744BF43F020032360B1
:100C7000002D44D1236823F0200323601026AEE723
:100C8000582384F84530DFF8B8C02368E3E72368C9
:100C9000DCE76268A2602D21002AC5F1000584F816
:100CA000431002DB23F004032360DFF894C00A261C
:100CB0008246B5FBF6F306FB13512A461CF80110D9
:100CC0000AF8011DB2421D46F3D2082E99D12368BD
:100CD000D90796D5626823699A4292DC30230AF8D4
:100CE000013C0AF1FF3A8CE71568BCE7002DDFD123
:100CF0009CF8003084F8423004F1420A7FE7102665
:100D00006DE713F0400F0B6803F104050D600CBF95
:100D10001D681D885DE713F0400F0B68626903F1E1
:100D200004050D601B6814BF1A801A60F5E60A6896
:100D3000B2F9005004320A602A463CE760687FE757
:100D40007449000888490008000000000000000005
:100D500001F0FF01102A2BDB10F0070F08D010F86C
:100D6000013B013A8B422DD010F0070F42B3F6D170
:100D7000F0B441EA012141EA014122F007047FF089
:100D800000070023F0E80256083C85EA010586EAE0
:100D9000010685FA47F5A3FA87F586FA47F6A5FA1C
:100DA00087F68EB9EED1F0BC01F0FF0102F0070228
:100DB00032B110F8013B013A83EA010313B1F8D1D3
:100DC0000020704701387047002D06BF35460338B4
:100DD000073815F0010F07D1013015F4807F02BFED
:100DE000013015F4C03F0130F0BC0138704700BF3E
:100DF000844641EA000313F003036DD1403A41D326
:100E000051F8043B40F8043B51F8043B40F8043BE4
:100E100051F8043B40F8043B51F8043B40F8043BD4
:100E200051F8043B40F8043B51F8043B40F8043BC4
:100E300051F8043B40F8043B51F8043B40F8043BB4
:100E400051F8043B40F8043B51F8043B40F8043BA4
:100E500051F8043B40F8043B51F8043B40F8043B94
:100E600051F8043B40F8043B51F8043B40F8043B84
:100E700051F8043B40F8043B51F8043B40F8043B74
:100E8000403ABDD2303211D351F8043B40F8043B14
:100E900051F8043B40F8043B51F8043B40F8043B54
:100EA00051F8043B40F8043B103AEDD20C3205D324
:100EB00051F8043B40F8043B043AF9D2043208D01C
:100EC000D2071CBF11F8013B00F8013B01D30B888E
:100ED00003806046704700BF082A13D38B078DD06C
:100EE00010F003038AD0C3F10403D21ADB071CBF3E
:100EF00011F8013B00F8013B80D331F8023B20F8A8
:100F0000023B7BE7043AD9D3013A11F8013B00F8E0
:100F1000013BF9D20B7803704B7843708B78837068
:100F20006046704788420DD98B1883420AD900EB7E
:100F3000020CBAB1624613F801CD02F801CD994214
:100F4000F9D170470F2A0ED8034602F1FF3C4AB18F
:100F50000CF1010C013B8C4411F8012B03F8012F1B
:100F60006145F9D1704740EA01039B0750D1A2F1D6
:100F7000100370B501F1200C23F00F0501F1100EE4
:100F800000F11004AC441B095EF8105C44F8105CDE
:100F90005EF80C5C44F80C5C5EF8085C44F8085C95
:100FA0005EF8045C44F8045C0EF1100EE64504F1B2
:100FB0001004E9D1013312F00C0F01EB031102F020
:100FC0000F0400EB031327D0043C24F003064FEA80
:100FD000940C1E441C1F8E465EF8045B44F8045FAC
:100FE000B442F9D10CF1010402F0030203EB8403D3
:100FF00001EB840102F1FF3C4AB10CF1010C013B11
:101000008C4411F8012B03F8012F6145F9D170BD13
:1010100002F1FF3C03469BE72246EBE7002958D04C
:1010200030B551F8043C83B0002BA1F10404B8BFE3
:10103000E418019000F0E8F8284A0198136833B1E9
:10104000A3420DD9216804EB010C63452FD06360E6
:10105000146003B0BDE8304000F0D8B8A34210D807
:101060001A465B68002BF9D1116802EB010C64454C
:1010700019D02FD36360546003B0BDE8304000F056
:10108000C5B8116802EB010CA44516D022D821681E
:1010900004EB010C6345EDD11D685B682944C4E98C
:1010A00000135460D5E7236819441160D1E71D6827
:1010B0005B682944C4E90013CAE724682144541832
:1010C000A3421160C5D1D3E900432144C2E9001312
:1010D000BFE770470C230360BBE700BF9000002010
:1010E000F8B5CD1C25F0030508350C2D38BF0C25AF
:1010F000002D064623DBA94221D8254F00F084F8B5
:101100003A6822B3144603E063682246FBB11C46EA
:1011100023685B1BF8D40B2B15D8636894420CBF73
:101120003B605360304600F071F804F10B00231D62
:1011300020F00700C21A01D01B1AA350F8BD0C23DF
:1011400033600020F8BD23601C442560EAE779681D
:10115000C9B12946304600F045F8431C0CD0C41CE8
:1011600024F00304A04205D0211A304600F03AF8DA
:10117000013001D02560D5E70C233046336000F004
:1011800045F80020F8BD304600F02CF87860E0E724
:1011900090000020F8B51446F9B1CAB106460D46D4
:1011A00000F036F8A04202D32F463846F8BD21465B
:1011B0003046FFF795FF07460028F6D0224629461D
:1011C000FFF716FE30462946FFF728FF3846F8BDE0
:1011D0002746FFF723FF3846F8BDBDE8F840114623
:1011E000FFF77EBF38B5074D0022044608462A6047
:1011F00000F018F8431C00D038BD2B68002BFBD042
:10120000236038BD98000020704700BF704700BFC2
:1012100051F8040C0028A0F10400BCBF0B58C01802
:10122000704700BF044A05491368002B08BF0B46EE
:1012300018441060184670479C0000208001002070
:1012400053B94AB9002908BF00281CBF4FF0FF312D
:101250004FF0FF3000F074B9ADF1080C6DE904CE29
:1012600000F006F8DDF804E0DDE9022304B0704781
:101270002DE9F047089D04468E46002B4DD18A4249
:10128000944669D9B2FA82F252B101FA02F3C2F17C
:10129000200120FA01F10CFA02FC41EA030E94400D
:1012A0004FEA1C48210CBEFBF8F61FFA8CF708FB2E
:1012B00016E341EA034306FB07F199420AD91CEB06
:1012C000030306F1FF3080F01F81994240F21C8138
:1012D000023E63445B1AA4B2B3FBF8F008FB103380
:1012E00044EA034400FB07F7A7420AD91CEB0404B5
:1012F00000F1FF3380F00A81A74240F20781644485
:10130000023840EA0640E41B00261DB1D440002309
:10131000C5E900433146BDE8F0878B4209D9002D6D
:1013200000F0EF800026C5E9000130463146BDE8F7
:10133000F087B3FA83F6002E4AD18B4202D3824261
:1013400000F2F980841A61EB030301209E46002D10
:10135000E0D0C5E9004EDDE702B9FFDEB2FA82F265
:10136000002A40F09280A1EB0C014FEA1C471FFAC3
:101370008CFE0126200CB1FBF7F307FB131140EAAA
:1013800001410EFB03F0884208D91CEB010103F177
:10139000FF3802D2884200F2CB804346091AA4B239
:1013A000B1FBF7F007FB101144EA01440EFB00FE0D
:1013B000A64508D91CEB040400F1FF3102D2A64572
:1013C00000F2BB800846A4EB0E0440EA03409CE711
:1013D000C6F12007B34022FA07FC4CEA030C20FABE
:1013E00007F401FA06F31C43F9404FEA1C4900FADE
:1013F00006F3B1FBF9F8200C1FFA8CFE09FB18115B
:1014000040EA014108FB0EF0884202FA06F20BD9CD
:101410001CEB010108F1FF3A80F08880884240F21D
:101420008580A8F102086144091AA4B2B1FBF9F061
:1014300009FB101144EA014100FB0EFE8E4508D95C
:101440001CEB010100F1FF346CD28E456AD90238E1
:10145000614440EA0840A0FB0294A1EB0E01A142C6
:10146000C846A64656D353D05DB1B3EB080261EB34
:101470000E0101FA07F722FA06F3F1401F43C5E90E
:10148000007100263146BDE8F087C2F12003D84044
:101490000CFA02FC21FA03F3914001434FEA1C4786
:1014A0001FFA8CFEB3FBF7F007FB10360B0C43EA78
:1014B000064300FB0EF69E4204FA02F408D91CEB28
:1014C000030300F1FF382FD29E422DD90238634426
:1014D0009B1B89B2B3FBF7F607FB163341EA0341C6
:1014E00006FB0EF38B4208D91CEB010106F1FF3815
:1014F00016D28B4214D9023E6144C91A46EA00460C
:1015000038E72E46284605E70646E3E61846F8E69D
:101510004B45A9D2B9EB020864EB0C0E0138A3E7E6
:101520004646EAE7204694E74046D1E7D0467BE7C7
:10153000023B614432E7304609E76444023842E73F
:10154000704700BF0FB470B5C0B00024124E44AA5B
:1015500001A801AD52F8041B0092FEF7DFFF01E085
:1015600002F0A2FF01A8FEF76BFFA042294604F19A
:10157000010405F101054FF47A734FF00102304682
:10158000EED8054C204602F023FC2128FAD040B0CA
:10159000BDE8704004B07047EC0000202DE9F04138
:1015A000104D114E2B68DFF84880104F5C6A00E048
:1015B0002B68596A3046611AFFF7C4FF41F288313F
:1015C000204600F08FF80028F2D04046FFF7BAFF1F
:1015D00000F0D2FC02F04CFB3B6883F308887B6888
:1015E0009847E5E7A0000020D04800080000020866
:1015F000E448000830B59DB04C22002109A8FEF750
:10160000C7FE2022002101A8FEF7C2FE022002F040
:1016100009FB1E4B00211E4A0091D96A21F00101ED
:10162000D962DB6A03F001030093936923F440431A
:1016300043F480439361936903F440430093009B18
:1016400093699B04FCD502230125402409A8099332
:101650000023CDE90C54129300F05EFD034608B15F
:1016600072B6FEE73F22294601A8CDE901234FF4D7
:101670008062CDE90333CDE90534CDE9072301F0DC
:1016800041F808B172B6FEE71DB030BD0004005845
:101690000048025808B502F053FBFFF7ABFF00F01B
:1016A0000FF800F07BF800F029F8034800F090F9FB
:1016B000FFF774FFFEE700BFA000002072B6FEE750
:1016C000074B82B0D3F8E02042F00102C3F8E020DB
:1016D000D3F8E03003F001030193019B02B070479F
:1016E00000440258044B1B685A6A5B6A181A884205
:1016F00094BF002001207047A000002010B50023F7
:1017000088B019484FF080444FF6FF114FF0FF3278
:1017100004930193036183610793C0E90041C0E929
:101720000232CDE90533CDE9023300F001FB88B97F
:101730004FF4805304A90C48049300F0A1F980B938
:10174000002301A908480193039300F023FB20B96B
:1017500008B010BDFFF7B2FFEAE7FFF7AFFF08B030
:1017600010BDFFF7ABFFEBE7A00000200368B3F16B
:10177000804F00D07047084B82B0D3F8E82042F089
:101780000102C3F8E820D3F8E83003F00103019325
:10179000019B02B0704700BF0044025810B51F48BB
:1017A00000231F4C4FF4E1310C228360C0E900415B
:1017B000C0E90333C0E90523C0E90733C0E90933B1
:1017C00002F01EFF70B90021144802F08DFF88B9A5
:1017D0000021124802F0B4FFA0B9104802F066FFE1
:1017E000B8B910BDFFF76AFF00210C4802F07CFF7A
:1017F0000028EDD0FFF762FF0021084802F0A0FFAB
:101800000028EAD0FFF75AFF044802F04FFF0028F3
:10181000E7D0BDE81040FFF751BF00BFEC0000204B
:101820000010014030B5B7B000210446BC2207A823
:101830000691CDE90211CDE90411FEF7A9FD1C4B7B
:1018400022689A4201D037B030BD012307A8079320
:1018500001F0D8F940BB174B022000244FF4C065BB
:10186000D3F8F02002A942F01002C3F8F020D3F818
:10187000F02002F010020092009AD3F8E02042F02B
:101880000102C3F8E0200722D3F8E030039003F010
:101890000103094802950193019B0692CDE9044496
:1018A00002F086F837B030BDFFF708FFD3E700BF7E
:1018B000001001400044025800000258FEE700BF3B
:1018C000FEE700BFFEE700BFFEE700BFFEE700BF88
:1018D000704700BF704700BF704700BF02F060BA9A
:1018E000074B82B0D3F8F42042F00202C3F8F42090
:1018F000D3F8F43003F002030193019B02B0704768
:101900000044025806494FF6FF0C0002054BCA6816
:1019100000F4E06002EA0C0210430343CB6070471E
:1019200000ED00E00000FA051B4BDB68C3F3022367
:1019300000B5C3F1070E03F1040CBEF1040F28BF7C
:101940004FF0040EBCF1060F1AD9033B4FF0FF3CD9
:101950000CFA03FC22EA0C024FF0FF3C00280CFAC0
:101960000EFC21EA0C0101FA03F141EA02010ADB53
:1019700009010A4BC9B2034483F800135DF804FB64
:1019800000221346E8E700F00F000901044BC9B23A
:10199000034419765DF804FB00ED00E000E100E08F
:1019A000FCEC00E0431EB3F1807F0CD24FF0E0224C
:1019B000002006494FF0F00C5361072381F823C043
:1019C0009061136170470120704700BF00ED00E097
:1019D00090F83D30012B3DD10268234B2349B2F1F1
:1019E000804F18BF9A4230B40CBF01230023204D12
:1019F0000224AA4208BF43F0010380F83D401D4C79
:101A00008A4208BF43F001031B4801F58051A242FE
:101A100008BF43F00103824208BF43F001038A423A
:101A200008BF43F0010333B900F57050101AB0FA43
:101A300080F0400998B19168104B0B40062B0BD0F9
:101A4000B3F5803F08D01368002043F00103136012
:101A500030BC704701207047002030BC70471368CD
:101A600043F001031360F3E7000001400008004069
:101A700000040040000C0040000401400700010089
:101A800090F83C30012B00F081800246022370B4B4
:101A90000468012082F83D3082F83C005A4BA5686A
:101AA0002B40A3600B68702B00F09C8025D8502B36
:101AB0006ED039D9602B18D1206A4D6820F0100003
:101AC000C96820620020A36923F4704343EA01330C
:101AD000216A21F0A001A3614C4B41EA051121626A
:101AE000A1680B4043F06703A3600121002382F843
:101AF0003D1082F83C3070BC7047B3F5005F60D099
:101B000033D943498B4206D029D942498B4202D06E
:101B100010318B42E9D1A0683C49014000200B43C1
:101B200043F00703A360E0E7402B23D1236A256A33
:101B3000486823F00A0325F00105CE681843334BAB
:101B40002562A16921F0F00141EA0611A16120623C
:101B50000020A1680B4043F04703A360C5E723F0D2
:101B60001001B1F5801FC0D1D5E7B3F5805018BF83
:101B70000120BAE7B9D8202BCDD003D9302BCAD059
:101B80000120B2E733F01001AFD1C4E70220704763
:101B9000236A256A486823F00A0325F00105CE6808
:101BA00018431A4B2562A16921F0F00141EA0611A0
:101BB000A16120620020A1680B4043F05703A3609D
:101BC00093E7D1E90153A0682B43CD6820F47F410E
:101BD000002043EA05230B43A360A36843F480433A
:101BE000A36082E7D1E90153A0682B43CD6820F4BC
:101BF0007F41002043EA05230B43A360A36843F021
:101C00007703A36071E700BF8800CEFF8FFFCFFF8F
:101C100020001000300010003F4AB0F1804F0368F0
:101C2000A0EB0202B2FA82F230B44FEA521223D091
:101C300012BB3A4CA04247D004F58064A04243D086
:101C400004F58064A04249D004F57844A04245D010
:101C5000334C344A904218BFA0424FD002F5806204
:101C600090424BD04D6923F080038C680A682B4367
:101C70000360C462826223E04C6823F07003234354
:101C8000294C041BB4FA84F46409CD6823F440732E
:101C90002B434D6923F080032B4303608B68C362A1
:101CA0000B68836252B94CB91D4A1E4B984218BF4B
:101CB000904203D003F58063984201D10B6903631E
:101CC000012330BC43617047174C23F070034D680B
:101CD000041B2B43B4FA84F46409D6E74D6823F05F
:101CE0007003114C2B43114D041BA842B4FA84F429
:101CF0004FEA5414C9D0002CC7D1A9E7CC6823F40B
:101D000040734A6923438C6823F0800313430A68B5
:101D10000360C4628262C7E7000001400004004023
:101D2000004001400044014000040140000C00401C
:101D300070B310B590F83D30044603F0FF0213B3C2
:101D40002146022384F83D3051F8040BFFF764FF6D
:101D50000123002084F8483084F83E3084F83F3076
:101D600084F8403084F8413084F8423084F84330BD
:101D700084F8443084F8453084F8463084F847309D
:101D800084F83D3010BD80F83C20FFF7EFFCD7E72A
:101D90000120704790F83C30012B4BD0036802467D
:101DA000022030B4244D82F83D00AB4258689C6854
:101DB00029D005F58065AB4225D0204D20F070007C
:101DC000AB4218BFB3F1804F05F580650CBF4FF0F3
:101DD000010C4FF0000CAB4208BF4CF0010C05F5B4
:101DE0008065AB4208BF4CF0010C0D682843144DD0
:101DF0005860AB4214BF60464CF0010060B9114816
:101E0000834209D00DE04D6820F4700028430D682E
:101E100020F0700028435860896824F080040C4347
:101E20009C6000230121184682F83D1082F83C3066
:101E300030BC7047022070470000014000040040A1
:101E40000018004000400140454B30B49A6A9C6A3B
:101E5000DD6A14F47C7F596BC4F3051038D0C1F3EC
:101E6000CC0105F0010502F0030205FB01F1012A96
:101E700007EE901AB8EEE77A02D0022A4ED04AB3A3
:101E800007EE900ADFED376AF8EEE77A1B6B86EE15
:101E9000A76A9FED355AC3F3080306EE903AF7EEB2
:101EA000005AF8EEE66AE7EE056A76EEA56A66EE97
:101EB000266A2B4B1B6BC3F34623013307EE903A84
:101EC000B8EEE77AC6EE877AFCEEE77A17EE900A6C
:101ED00030BC70471A68920627D5196807EE900A39
:101EE000224AF7EE005A1B6BC1F3C101F8EEE77A04
:101EF0009FED1D5AC3F30803CA4006EE903A06EE62
:101F0000102AF8EEE66AB8EEC66AE7EE056A86EED3
:101F1000277A76EEA56A66EE876ACAE707EE900A28
:101F2000DFED136AF8EEE77AB0E707EE900A9FED6F
:101F3000115A1B6BB7EE006AF8EEE77ADFED0A5A2A
:101F4000C3F30803C5EE276A07EE903AF8EEE77A86
:101F5000E7EE257A77EE867A66EEA76AA9E700BFF4
:101F6000004402580024744A000000390090D00355
:101F700020BCBE4B0024744C5D4AF8B5136803F0D6
:101F80000F03062B0AD8136823F00F0343F007034F
:101F90001360136803F00F03072B21D1554C01F098
:101FA0000BFF0546236843F00103236004E001F0C2
:101FB00003FF401B022816D823685E07F7D5636825
:101FC00000254D4843F080434C4A4D4963604D4BDA
:101FD000256100680A601A6001F08CFE044628B191
:101FE00001242046F8BD03242046F8BD01F0E4FE9C
:101FF000404E41F28837054604E001F0DDFE431B08
:10200000BB42F0D8336913F0380FF6D101F0D4FE9B
:1020100032683D4B0546374F1340336004E001F012
:10202000CBFE401B6428DED83B689803F7D401F050
:10203000C3FE3B682F4E054623F080733B6004E0EF
:1020400001F0BAFE401B0228CDD833689901F7D4BD
:1020500001F0B2FE3368274F054623F080633360FA
:1020600004E001F0A9FE401B0228BCD83B681A011D
:10207000F7D401F0A1FE3B681E4D064623F08053C5
:102080003B6004E001F098FE801B0228ABD82B686F
:1020900013F00053F6D11D49AB611D4AEB612B6271
:1020A000A9621C49E9624FF0FF312A636B63AA639E
:1020B000EB632A646B642A6822F480222A602B6610
:1020C000A966D5F8D0300A4A43F48033C5F8D03039
:1020D00013681B0785D5136823F00F0343F007032C
:1020E0001360146804F00F04073C18BF012478E75C
:1020F0000020005200440258680000200090D003E5
:102100006C0000207000002045EDF6FF0002020286
:10211000800201010000FF01002800F0E881F8B50D
:1021200003680446D9072ED5A4490A69896A02F0D2
:102130003802102A00F00781182A00F0FF80636837
:10214000B3F5803F00F02A81002B00F06881B3F5E1
:10215000A02F9A4B1A6800F0698222F480321A602C
:102160001A6822F480221A6001F026FE934E05467A
:1021700005E001F021FE401B642800F24E81336827
:102180009B03F6D523689D0700F18A80D90633D5D5
:102190008A4A1369926A03F03803082B00F0E3803F
:1021A000182B00F0DB80E369844D002B00F06F8179
:1021B0002B6843F080032B6001F0FEFD064605E02E
:1021C00001F0FAFD801B022800F227812B68DB0555
:1021D000F6D501F0F7FD41F20303984200F2478281
:1021E000226A6B68202A23F0F8430CBF43F0804337
:1021F00043EA82636B6023681D0716D563696F4DE0
:10220000002B00F022816B6F43F001036B6701F03C
:10221000D3FD064605E001F0CFFD801B022800F249
:10222000FC806B6F9807F6D523689A0616D5A369CC
:10223000624D002B00F01A812B6843F480532B6011
:1022400001F0BAFD064605E001F0B6FD801B02284C
:1022500000F2E3802B689F04F6D52368590700F14C
:10226000A380606AD0B1554D2B6903F03803182B59
:1022700000F0AE812B68022823F080732B6000F001
:10228000428101F099FD044605E001F095FD001B37
:10229000022800F2C2802B689B01F6D40020F8BD12
:1022A000464A1369926A13F038032DD1434BE26812
:1022B0001B68590701D5002A4ED0404D2B6823F0EA
:1022C000190313432B6001F077FD064605E001F08A
:1022D00073FD801B022800F2A0802B685B07F6D5F7
:1022E00001F070FD41F20303984200F2F780226989
:1022F0006B68402A23F47C330CBF43F4003343EA79
:1023000002336B60236841E7182B00F0E3802B4D0C
:10231000E2682B68002A00F0CC8023F019031343F5
:102320002B6001F049FD064604E001F045FD801BED
:10233000022872D82B685F07F7D5D1E701F00301B7
:1023400002297FF4FCAE1D4A126892037FF51BAF91
:102350006268002A7FF417AF0120F8BD02F0030283
:10236000012A7FF420AF154B1B68DA0502D5E3691B
:10237000802BF1D101F026FD41F20303984200F2D7
:10238000B880226A202A00F087810C494B6823F02C
:10239000F84343EA82634B6023682DE7074A1368DA
:1023A00043F480331360DFE6054D2B6843F48073FC
:1023B0002B6001F001FD064609E000BF0044025811
:1023C0000048025801F0F8FC801B642825D82B68CF
:1023D000DA05F7D5A368012B00F05881002B00F037
:1023E0002D81052BA64B1A6F00F05F8122F00102B0
:1023F0001A671A6F22F004021A6701F0DDFCA04E82
:1024000041F28837054604E001F0D6FC401BB84293
:1024100003D8336F9B07F7D523E70320F8BD984D0A
:102420002B6823F480332B602B6823F480232B60EC
:1024300001F0C2FC064604E001F0BEFC801B6428EB
:10244000EBD82B689F03F7D49CE66B6F23F0010356
:102450006B6701F0B1FC064604E001F0ADFC801BA7
:102460000228DAD86B6F9907F7D4DDE62B6823F4DE
:1024700080532B6001F0A0FC064604E001F09CFCB8
:10248000801B0228C9D82B689804F7D4E5E62B688E
:1024900023F080032B6001F08FFC064604E001F07E
:1024A0008BFC801B0228B8D82B68DF05F7D4236883
:1024B000A2E623F001032B6001F07EFC064604E057
:1024C00001F07AFC801B0228A7D82B685807F7D4A4
:1024D00023685BE690077FF41AAFE7E66B68226932
:1024E00023F0FE4343EA02636B6023684EE601205B
:1024F0007047634A216AD36823F07C5343EA01633F
:10250000D360236878E601F057FC064604E001F04A
:1025100053FC801B022880D82B689901F7D4A96A44
:10252000584BA26A0B405849554E1343E26A43EA9E
:102530000213AB62D4E90D32013B013A5B02120493
:102540009BB202F4FE021343226B013AC2F308026B
:102550001343E26B013A120602F0FE4213432B636F
:10256000EB6A23F00103EB626A6BA36C114041EA52
:10257000C3016963EB6A226C23F00C031343EB6223
:10258000EB6A626C23F002031343EB62EB6A43F4E1
:102590008033EB62EB6A43F40033EB62EB6A43F4A3
:1025A0008023EB62EB6A43F00103EB622B6843F09C
:1025B00080732B6001F000FC044605E001F0FCFB99
:1025C000001B02283FF629AF33689A01F6D565E66D
:1025D0000128AA6A2D6B3FF462AE02F00303A16AE0
:1025E0008B427FF4B9AEC2F30512E36A9A427FF4DC
:1025F000B3AE236BC5F30802013B9A427FF4ACAE45
:10260000636BC5F34622013B9A427FF4A5AEA36BF0
:10261000C5F30642013B9A427FF49EAEE06BC5F3E0
:1026200006650138281A18BF0120F8BD42F480223F
:102630001A601A6842F480321A6095E5104D41F232
:1026400088372B6F23F001032B672B6F23F00403D4
:102650002B6701F0B1FB064605E001F0ADFB801BE6
:10266000B8423FF6DAAE2B6F9807F6D4F9E5EB687F
:10267000226A23F07C5343EA0263EB602368BBE5E4
:10268000004402580CFCFFFF0700FFFF0B4A136FCA
:1026900043F001031367B0E6084A536823F0F84398
:1026A00043F0804353602368A6E542F004021A67B2
:1026B0001A6F42F001021A679FE600BF00440258F9
:1026C0000C4A136903F03803102B04D0182B0DD0DB
:1026D0001BB1094870470948704713689B0607D526
:1026E00013680748C3F3C103D8407047FFF7ACBB7A
:1026F000034870470044025800093D0040787D01BE
:102700000090D003002800F00C818C4A136803F07D
:102710000F038B422DE9F04104460D460CD213689D
:1027200023F00F030B431360136803F00F038B4276
:1027300002D00120BDE8F08123685F070BD58049F6
:1027400020698A6902F07002904204D98A6922F0F5
:10275000700202438A611E070BD579496069CA6914
:1027600002F07002904204D9CA6922F0700202435A
:10277000CA61D8060BD57249A069CA6902F4E06241
:10278000904204D9CA6922F4E0620243CA61990600
:102790000BD56B49E0690A6A02F07002904204D9D5
:1027A0000A6A22F0700202430A629A0740F1AB8083
:1027B0006348E168826902F00F02914204D982699C
:1027C00022F00F020A438261D80730D55C4AA16823
:1027D000936923F470630B43936161681368022962
:1027E00000F0A180032900F09880012900F0A18069
:1027F00058079ED5524E41F28838336923F00703BB
:102800000B43336101F0D8FA074605E001F0D4FA32
:10281000C01B404500F28B803369626803F03803C7
:10282000B3EBC20FF2D12368990706D5E16844489B
:10283000826902F00F028A4269D840490A6802F0B0
:102840000F02AA420AD90A6822F00F022A430A603C
:102850000A6802F00F02AA427FF46BAF5A070BD549
:10286000374920698A6902F07002904204D28A696D
:1028700022F0700202438A611F070BD5304960695C
:10288000CA6902F07002904204D2CA6922F0700252
:102890000243CA61DE060BD52949A069CA6902F460
:1028A000E062904204D2CA6922F4E0620243CA6143
:1028B0009D060BD5224AE169136A03F07003994221
:1028C00004D2136A23F070030B431362FFF7F8FE80
:1028D0001B4A03461B4891699269C1F303211A4DB3
:1028E00002F00F02194C415C825C01F01F01184894
:1028F00002F01F02CB4000682B60D3402360BDE88C
:10290000F04101F0F7B9DA073FF560AF95E782696A
:1029100022F00F02114381618FE79F013FF56AAFFB
:1029200007E7012070479B033FF564AF01E70320F1
:1029300000E7DE053FF55EAFFBE600BF002000527A
:1029400000440258504900086C000020700000202C
:1029500068000020184A38B5136903F03803102BBB
:102960001AD0182B23D0CBB11448134B14499A69B1
:102970009B69C2F30322134C03F00F03124D8A5CD0
:10298000CB5C02F01F0220FA02F203F01F0022FAD1
:1029900000F02A60206038BD0C48E6E713689B060B
:1029A00008D512680A48C2F3C102D040DDE7FFF73C
:1029B0004BFADAE70648D8E70044025800093D0020
:1029C00050490008700000206C00002040787D0114
:1029D0000090D00308B5FFF7BDFF054B054ADB6942
:1029E000C3F30213D35C03F01F03D84008BD00BF3C
:1029F000004402585049000808B5FFF7ABFF054BEB
:102A0000054ADB69C3F30223D35C03F01F03D840FC
:102A100008BD00BF0044025850490008F8B53A4CC0
:102A2000A36A03F00303032B67D0236806460F460F
:102A300023F08063236001F0BFF9054604E001F054
:102A4000BBF9431B022B56D823681A01F7D4A36A9B
:102A5000326823F47C3343EA0233A362D6E90232BC
:102A6000013B013A5B0212049BB202F4FE021343E3
:102A70007268013AC2F3080213433269013A12063E
:102A800002F0FE421343A363E36A726923F0C003BA
:102A90001343E362E26AB36922F020021A431B4B3C
:102AA000E262E26A22F01002E262E16BF2690B403C
:102AB00043EAC203E363E36A43F01003E362E36AB9
:102AC000EFB1012F0CBF43F4801343F40013E36212
:102AD0000D4C236843F08063236001F06DF90546D7
:102AE00004E001F069F9401B022804D823681B01A7
:102AF000F7D50020F8BD0320F8BD0120F8BD43F450
:102B00000023E362E4E700BF004402580700FFFF30
:102B1000F8B53A4CA36A03F00303032B67D023688C
:102B200006460F4623F08053236001F045F9054621
:102B300004E001F041F9431B022B56D823689A00A8
:102B4000F7D4A36A326823F07C7343EA0253A3628A
:102B5000D6E90232013B013A5B0212049BB202F455
:102B6000FE0213437268013AC2F30802134332694A
:102B7000013A120602F0FE4213432364E36A7269CB
:102B800023F440631343E362E26AB36922F4007200
:102B90001A431B4BE262E26A22F48072E262616CC9
:102BA000F2690B4043EAC2036364E36A43F480734F
:102BB000E362E36AEFB1012F0CBF43F4000343F07B
:102BC0008073E3620D4C236843F08053236001F06F
:102BD000F3F8054604E001F0EFF8401B022804D8A2
:102BE00023689B00F7D50020F8BD0320F8BD012025
:102BF000F8BD43F48003E362E4E700BF00440258F9
:102C00000700FFFF2DE9F8430368044613F0006650
:102C100022D0426EB2F5001F00F0998411D8002A2C
:102C200000F00385B2F5801F40F0FC8402210430DF
:102C3000FFF7F4FE0646002E40F09184626E236892
:102C400003E0B2F5401F40F0ED84A8480026016D76
:102C500021F440110A430265DD050AD5626D042A9C
:102C600006D8DFE812F0AD048C049304E902E9020F
:102C70000126354698051BD5A26D802A00F0978461
:102C800000F2EC80002A00F09483402A40F0ED80AE
:102C90000021201DFFF7C2FE23680546002D40F0ED
:102CA0006E839249A06D0A6D22F4E07202430A65B8
:102CB00059051FD5D4F8A420B2F5800F00F0568432
:102CC00000F2D680002A00F07A83B2F5001F40F0AF
:102CD000D7800021201DFFF7A1FE23680546002DA7
:102CE00040F051838149D4F8A4008A6D22F4600237
:102CF00002438A651A051FD5D4F8A820B2F1007FD7
:102D000000F0658400F2BF80002A00F05E83B2F11B
:102D1000807F40F0C0800021201DFFF77FFE2368E8
:102D20000546002D40F033837049D4F8A8008A6D21
:102D300022F0E06202438A659F0118D5A26C202A26
:102D400000F0CE8300F2AA803AB1102A40F0A980A8
:102D50006649CA6A42F40032CA62002D40F06083BC
:102D60006249A06CCA6C22F030020243CA64D804E3
:102D70001DD5E26DB2F5005F00F0108400F2948082
:102D8000002A00F02883B2F5805F40F09580002192
:102D9000201DFFF743FE23680546002D40F0F18219
:102DA0005249E06D0A6D22F4E04202430A6599043B
:102DB0001AD5226EB2F5003F00F076837FD84AB173
:102DC000B2F5803F40F083800121201DFFF726FEF1
:102DD00023680546002D40F025834449206E0A6D86
:102DE00022F4E02202430A655A041BD5D4F8AC2031
:102DF000B2F1005F00F062836CD842B1B2F1805F43
:102E000070D10121201DFFF709FE23680546002D22
:102E100040F00A833549D4F8AC008A6D22F0E042D4
:102E200002438A651F040DD5E26EB2F1805F00F0A7
:102E30004F83B2F1005F00F00B82002A00F00E8297
:102E400001263546D8015DD5626C032A00F218844C
:102E5000DFE812F054005A034E005400C02A3FF439
:102E60001DAFB2F5807F3FF419AF012635461FE74D
:102E7000B2F5C00F3FF433AFB2F5000F3FF42FAF00
:102E80000126354636E7B2F1407F3FF44AAFB2F152
:102E9000806F3FF446AF012635464DE7302A3FF4B8
:102EA0005CAF0126354662E7B2F5405F3FF475AF8F
:102EB000B2F5804F3FF471AF0126354677E722F433
:102EC0008031B1F5802F85D0B2F5403F82D0012608
:102ED000354689E722F08051B1F1804F97D0B2F1A9
:102EE000405F94D0012635469CE700BF004402585D
:102EF0000221201DFFF792FD23680546002D00F0FA
:102F000072822E46590200F1EE81DF072FD5A26FA3
:102F1000282A2AD8DFE812F0DC012900290029003C
:102F20002900290029002900780329002900290007
:102F30002900290029002900D5012900290029009C
:102F40002900290029002900DC0129002900290085
:102F50002900290029002900DC0129002900290075
:102F60002900290029002900DC010126354698079F
:102F700016D5626F052A00F28083DFE812F00D009B
:102F8000310306000D000D000D00012104F12400A5
:102F9000FFF7BEFD23680546002D00F02E822E4669
:102FA000590717D5D4F89020052A00F26C83DFE882
:102FB00012F00D00210306000D000D000D0001218F
:102FC00004F12400FFF7A4FD23680546002D00F05E
:102FD0001C822E469A061DD5D4F88C20B2F1005FD3
:102FE00000F0878200F2E6804AB1B2F1805F40F0E3
:102FF000EB800021201DFFF711FD23680546002D01
:1030000040F0EF81A449D4F88C004A6D22F0E042F0
:1030100002434A655F061DD5D4F89820B2F5006FCB
:1030200000F02E8200F2D3804AB1B2F5806F40F0FA
:10303000D8800021201DFFF7F1FC23680546002DF4
:1030400040F0F4819449D4F898008A6D22F4E0525B
:1030500002438A6518061DD5D4F89C20B2F5804F2E
:1030600000F0188200F2C0804AB1B2F5005F40F073
:10307000C5800021201DFFF7D1FC23680546002DE7
:1030800040F0B9818449D4F89C008A6D22F46042F2
:1030900002438A6519070BD5D4F88010B1F5805F1B
:1030A00000F03B827C48426D22F440520A43426564
:1030B000DA060BD5D4F89410B1F5807F00F03A828F
:1030C0007548826D22F440720A4382651F030ED553
:1030D000D4F8A010B1F5803F00F0E080B1F5003FDA
:1030E00000F0E380002900F0C38101263546580333
:1030F0000FD5D4F88420B2F5001F00F0BA80B2F5E5
:10310000401F00F0BD80B2F5801F00F0A9810126AC
:103110003546D90309D5E26C002A00F08F81B2F55B
:10312000803F00F03681012635469A0000F11C816F
:103130009F0366D4301E18BF0120DE0206D5564913
:10314000256F0A6D22F000422A430A65DD0007D58B
:103150005149D4F8B4500A6922F480422A430A61E2
:10316000990206D54C49A56E0A6D22F080722A4359
:103170000A655A0009D5484A116921F400411161D4
:103180001169D4F8B85029431161002B06DA42497D
:10319000256DCA6C22F040522A43CA641B0207D52F
:1031A0003D4AD4F88810536D23F440030B43536514
:1031B000BDE8F88322F08051B1F1804F3FF41FAF9A
:1031C000B2F1405F3FF41BAF0126354622E722F4FF
:1031D0008061B1F5805F3FF432AFB2F5406F3FF4EC
:1031E0002EAF0126354635E722F40051B1F5004FE8
:1031F0003FF445AFB2F5C04F3FF441AF012635462D
:1032000048E7E26FB2F5807F00F0218106D922F411
:103210008071B1F5007F03D001208EE7002AFBD139
:10322000002DF9D11C4D301E696D18BF012021F40D
:1032300040710A436A6580E73546002D40F0A5805D
:103240001549606D0A6D22F0070202430A6511E517
:103250000121201DFFF7E2FB23680546002D40F009
:10326000DD800D49E06E0A6D22F0405202430A658E
:10327000E8E5012104F12400FFF74AFC2368054634
:10328000002D40F0D9800449D4F884004A6D22F41E
:10329000401202434A653CE700440258022104F10F
:1032A0002400FFF735FC23680546002D40F0C2805E
:1032B000AC49D4F8A0008A6D22F4403202438A65FA
:1032C00015E7012104F12400FFF722FC23680546DD
:1032D000002D40F0AD80A349A06F4A6D22F0380266
:1032E00002434A6543E6A04F3B6843F480733B606A
:1032F00000F062FD804606E000F05EFDA0EB0800F5
:10330000642800F28B813B68DA05F5D5002D40F08A
:10331000B181944AD4F8B030116F594011F4407F14
:103320000BD0116F106F21F4407140F480301067A2
:10333000106F20F4803010671167B3F5807F00F0C4
:103340007B8103F44072B2F5407F00F089818549AA
:103350000A6922F47C520A61824AC3F30B03116F9B
:103360000B4313672368D0E5022104F12400FFF723
:10337000CFFB236800283FF4DBAE0126D8E62E46BB
:1033800096E42E4613E52E46B4E42E4672E42E460D
:10339000D2E40221201DFFF741FB05462368002DE2
:1033A00053D17049E06CCA6C22F480320243CA6483
:1033B000BBE66C49CA6A42F40032CA626EE46949EB
:1033C000CA6A42F40032CA6289E46649CA6A42F4AF
:1033D0000032CA62A5E46349CA6A42F40032CA6292
:1033E000DBE42E4616E65F49606CCA6C22F00302ED
:1033F0000243CA6486E52E464CE65A49606F4A6D20
:1034000022F0070202434A65CAE55649D4F8900003
:103410008A6D22F0070202438A65DBE52E4611E53C
:103420002E46A4E42E46DFE42E46FBE42E4611E6AB
:103430002E469CE52E465AE62E466AE64949CA6A59
:1034400042F40032CA62002DABD02E466DE64548EC
:10345000C16A41F40031C162002D7FF4DDAEE1E6C6
:103460004049CA6A42F40032CA62002DE4D10AE738
:10347000201DFFF7D3FA05462368002DDAD117E7A0
:10348000022104F12400FFF743FB05462368002DC9
:10349000CCD1D7E5022104F12400FFF739FB054622
:1034A0002368002DA7D1EDE5012104F12400FFF7E9
:1034B0002FFB05462368002DB4D18EE4012104F1D1
:1034C0002400FFF725FB05462368002DACD1A1E4BD
:1034D0002449CA6A42F40032CA62002D9ED1C0E675
:1034E0000221201DFFF79AFA05462368002D97D187
:1034F00036E4022104F12400FFF70AFB05462368A5
:10350000002D7FF46EAF7DE51649CA6A42F40032A1
:10351000CA62002D7FF4F5AC65E7022104F12400B6
:10352000FFF7F6FAD4F88010236800283FF4BAAD0C
:103530000126B7E5022104F12400FFF7E9FAD4F8E7
:103540009410236800283FF4BBAD0126B8E50221A2
:103550002430FFF7DDFA0646002E3FF46FAB2368F8
:10356000FFF77ABB0044025800480258002104F1DA
:103570002400FFF7CDFA23680546FFF7B0BB002112
:10358000201DFFF74BFA2368054656E6002104F19B
:103590002400FFF7BDFA236805464EE6002104F13A
:1035A0002400FFF7B5FA23680546FFF7F6BB0021B4
:1035B00004F12400FFF7ACFA23680546FFF76EBB61
:1035C00032493546CA6A42F40032CA6235E6002101
:1035D00004F12400FFF79CFA23680546FFF7A1BB1E
:1035E0000121201DFFF71AFA05462368002D7FF4FC
:1035F000D6AC02E70121201DFFF710FA054623682B
:10360000002D7FF4E6AC00E70121201DFFF706FA4C
:1036100005462368002D7FF40BAF5CE60326236884
:10362000354672E40126FFF717BB1848C16A41F41A
:103630000031C162FFF709BB00F0BEFBDFF84C8030
:10364000074641F2883904E000F0B6FBC01B48454C
:10365000E4D8D8F870309B07F6D5D4F8B03070E6CF
:103660000A480B4A016902EA131221F47C510A4309
:10367000026171E623682E4647E4012635468FE451
:10368000012635463EE401263546A3E400440258AF
:10369000CFFFFF0008B5FFF75DF9054B054A1B6A30
:1036A000C3F30213D35C03F01F03D84008BD00BF6F
:1036B0000044025850490008584B70B4996A9D6AFA
:1036C000DE6A15F47C3FC5F30532DC6B5CD0C4F3D5
:1036D000CC04C6F3001601F0030106FB04F4012933
:1036E00007EE904AB8EEE77A03D0022975D0002998
:1036F0004FD007EE902ADFED4A6AF8EEE77A9B6B2F
:1037000086EEA76A9FED475AC3F3080306EE903A88
:10371000F7EE005AF8EEE66AE7EE056A76EEA56A7D
:1037200066EE266A3D4AB7EE006A936BC3F3462302
:1037300007EE103AB8EEC77A70BC37EE067AC6EEDE
:10374000877AFCEEE77AC0ED007A936BC3F3064309
:1037500007EE103AB8EEC77A37EE067AC6EE877AE9
:10376000FCEEE77AC0ED017A936BC3F3066307EED4
:10377000903AF8EEE77A77EE867A86EEA77ABCEE94
:10378000C77A80ED027A704770BCC0E9002282607F
:1037900070471968890627D51C6807EE902A2249C8
:1037A000F7EE005A9B6BC4F3C102F8EEE77A9FED87
:1037B0001D5AC3F30803D14006EE903A06EE101AE4
:1037C000F8EEE66AB8EEC66AE7EE056A86EE277A94
:1037D00076EEA56A66EE876AA4E707EE902ADFED2B
:1037E000136AF8EEE77A8AE707EE902A9FED105AFF
:1037F0009B6BB7EE006AF8EEE77ADFED0A5AC3F387
:103800000803C5EE276A07EE903AF8EEE77AE7EE8E
:10381000257A77EE867A66EEA76A83E70044025837
:103820000024744A000000390090D00320BCBE4B35
:103830000024744C584B70B4996A9D6ADE6A15F086
:103840007C7FC5F305525C6C5CD0C4F3CC04C6F33A
:10385000002601F0030106FB04F4012907EE904A5B
:10386000B8EEE77A03D0022975D000294FD007EED1
:10387000902ADFED4A6AF8EEE77A1B6C86EEA76ABB
:103880009FED475AC3F3080306EE903AF7EE005A4D
:10389000F8EEE66AE7EE056A76EEA56A66EE266A57
:1038A0003D4AB7EE006A136CC3F3462307EE103AA5
:1038B000B8EEC77A70BC37EE067AC6EE877AFCEEB1
:1038C000E77AC0ED007A136CC3F3064307EE103AB3
:1038D000B8EEC77A37EE067AC6EE877AFCEEE77A5C
:1038E000C0ED017A136CC3F3066307EE903AF8EE6D
:1038F000E77A77EE867A86EEA77ABCEEC77A80ED15
:10390000027A704770BCC0E9002282607047196873
:10391000890627D51C6807EE902A2249F7EE005A3F
:103920001B6CC4F3C102F8EEE77A9FED1D5AC3F396
:103930000803D14006EE903A06EE101AF8EEE66A59
:10394000B8EEC66AE7EE056A86EE277A76EEA56AD5
:1039500066EE876AA4E707EE902ADFED136AF8EEB9
:10396000E77A8AE707EE902A9FED105A1B6CB7EEB4
:10397000006AF8EEE77ADFED0A5AC3F30803C5EEF2
:10398000276A07EE903AF8EEE77AE7EE257A77EEC7
:10399000867A66EEA76A83E7004402580024744AD8
:1039A000000000390090D00320BCBE4B0024744CB2
:1039B0002DE9F04F0C6883B0002C00F0A6804FF08A
:1039C000000C8E4F634601229A4012EA040E00F06A
:1039D00095804D6805F0030909F1FF36012E40F28C
:1039E0009780B9F1030F40F0D18009FA0CF26FEA29
:1039F0000208066815F4403F06EA080842EA080291
:103A000002607BD0D7F8F42023F0030803F0030909
:103A100042F0020208F1B0484FEA8909C7F8F420E1
:103A200008F58068D7F8F42002F002020192019AAA
:103A30000F22D8F8086002FA09F226EA0202704E54
:103A4000B04229D006F58066B04200F0AC806D4EE1
:103A5000B04200F0AE806C4EB04200F09E806B4EE3
:103A6000B04200F0B2806A4EB04200F0B480694EBD
:103A7000B04200F0A480684EB04200F0B280674EC1
:103A8000B04200F0B480664EB0420CBF09260A2650
:103A900006FA09F942EA0902C8F808204FF0B042D4
:103AA000EE026FEA0E0812684FF0B04654BF08EA03
:103AB00002024EEA02023260AA0276684FF0B04279
:103AC00054BF08EA06064EEA06065660D2F884603D
:103AD000AA034FF0B04254BF08EA06064EEA0606B3
:103AE000ED034FF0B045C2F88460D2F8802054BF97
:103AF00008EA02024EEA0202C5F8802001330CF106
:103B0000020C34FA03F27FF45EAF03B0BDE8F08F2D
:103B10004FF00308866808FA0CF826EA080ACE680F
:103B20006FEA080806FA0CF646EA0A068660C5F34C
:103B30000016D0F804A09E402AEA020232434260F6
:103B4000C268B9F1020F8E6802EA080206FA0CF6A2
:103B500046EA020609FA0CF2C6607FF44AAF03F0A7
:103B600007064FEAD3094FEA860B0F2600EB8909B7
:103B700006FA0BF6D9F820A02AEA060A0E6906FA18
:103B80000BF646EA0A06C9F8206032E74FF0030850
:103B900008FA0CF86FEA0808D2E7032606FA09F9D2
:103BA00042EA090278E7012606FA09F942EA09021F
:103BB00072E7022606FA09F942EA09026CE70626CC
:103BC00006FA09F942EA090266E7042606FA09F943
:103BD00042EA090260E7052606FA09F942EA090203
:103BE0005AE7072606FA09F942EA090254E70826C5
:103BF00006FA09F942EA09024EE700BF00440258FA
:103C00000000025800080258000C02580010025828
:103C10000014025800180258001C025800200258D4
:103C20000024025838B5104CE36813F0040FE36821
:103C300005D103F00703181A18BF012038BD23F07F
:103C400007031843E06000F0B7F8054605E000F010
:103C5000B3F8401BB0F57A7F04D863689B04F6D5AF
:103C6000002038BD012038BD00480258704700BF11
:103C700010B5194B0024194940F27120184AD96730
:103C80001821DC67C3F88020164AC3F88040C3F8C7
:103C900084004FF49B70C3F88440C3F88820124A14
:103CA000C3F88840C3F88C10C3F88C400F49C3F8A0
:103CB00090200F4AC3F89040C3F89400C3F8944092
:103CC000C3F89810C3F89840C3F89C20C3F89C40F0
:103CD000FFF7CCFF204610BD0044025831500100D0
:103CE00023C0000AFF072803FFC3FFE83330D731A2
:103CF000AADE20000F4B1B780BB90120704710B5CE
:103D000004464FF47A700C4AB0FBF3F31068B0FB32
:103D1000F3F0FDF747FE0F2C00D808B1012010BDCD
:103D2000002221464FF0FF30FDF7FEFD034B00203F
:103D30001C6010BD640000206C00002068000020A2
:103D400010B50320124CFDF7DDFDFEF7B9FC114B59
:103D500011499A699B69C2F3032203F00F038A5C3D
:103D6000CB5C02F01F020D4903F01F03D04020FA84
:103D700003F308600F202360FFF7BCFF10B101249C
:103D8000204610BD0446FDF7ABFD204610BD00BF28
:103D90007000002000440258504900086C000020C8
:103DA000034A044B11681B780B441360704700BF33
:103DB0007C01002064000020014B1868704700BFA0
:103DC0007C010020014B1868000C70470010005C5B
:103DD000D0F88420D0F888001043704701698268C9
:103DE00003680A43C04930B545690446C06987B0D5
:103DF0002A431D6802432940BC4D0A43E168AB4297
:103E00001A605A6822F4405242EA0102A1695A60DB
:103E100000F0E080226A9D681143B54A2A40656A35
:103E200011439960DA6A22F00F022A43DA62B14A3A
:103E3000934223D0B04A934276D0B04A934200F0E6
:103E40008F81AF4A934200F0E281AE4A934200F084
:103E50002181AD4A934200F0E481AC4A934200F0E4
:103E60003A82AB4A934200F0E881012000234FF0F0
:103E700001122367A266636707B030BDA54B5B6D77
:103E800003F03803282BF0D8A34AD35CB0F5004FD9
:103E900055D0202B00F24A81202BE6D801A252F8FF
:103EA00023F000BFE3400008DD4000086B3E00083F
:103EB0006B3E0008CD4000086B3E00086B3E0008DA
:103EC0006B3E0008BF4000086B3E00086B3E0008D8
:103ED0006B3E00086B3E00086B3E00086B3E00081E
:103EE0006B3E0008A94000086B3E00086B3E0008CE
:103EF0006B3E00086B3E00086B3E00086B3E0008FE
:103F00006B3E00086B3E00086B3E00086B3E0008ED
:103F10006B3E00086B3E00086B3E00086B3E0008DD
:103F20006B3E00084F4200087A4B5B6D03F00703BD
:103F3000052B9AD8794AB0F5004FD35CA9D1202B34
:103F400000F24681202B90D801A252F823F000BF46
:103F5000C3420008BD4200086B3E00086B3E0008EB
:103F6000C94200086B3E00086B3E00086B3E00082B
:103F7000AB4200086B3E00086B3E00086B3E000839
:103F80006B3E00086B3E00086B3E00086B3E00086D
:103F9000974200086B3E00086B3E00086B3E00082D
:103FA0006B3E00086B3E00086B3E00086B3E00084D
:103FB0006B3E00086B3E00086B3E00086B3E00083D
:103FC0006B3E00086B3E00086B3E00086B3E00082D
:103FD000D34200089868464A02404E480A439A6015
:103FE000DA6A616A22F00F020A43DA62836D03F033
:103FF0000703052B3FF639AF494AD35C202B00F26B
:10400000B980012B7FF631AF023B1E2B3FF62DAF5F
:1040100001A252F823F000BF874200086B3E00085F
:10402000774200086B3E00086B3E00086B3E0008BC
:10403000674200086B3E00086B3E00086B3E0008BC
:104040006B3E00086B3E00086B3E00086B3E0008AC
:10405000534200086B3E00086B3E00086B3E0008B0
:104060006B3E00086B3E00086B3E00086B3E00088C
:104070006B3E00086B3E00086B3E00086B3E00087C
:104080006B3E00086B3E00086B3E00086B3E00086C
:10409000934200081F4B5B6D03F00703052B3FF6AF
:1040A000E4AE204AD35CF1E61A4B1A68920640F15E
:1040B000C2801B681C48C3F3C103D8403BE003A87F
:1040C000FFF7B8FB049838B90020CFE66846FFF741
:1040D000F3FA01980028F7D0656A2CE0FEF78CFC13
:1040E000F1E7FEF777FCEEE7F369FFCF000C00582D
:1040F000FFF4FF1100100140004400400048004060
:10410000004C004000500040001401400078004086
:10411000007C004000440258EC48000818490008A0
:1041200020490008184900080090D003402B7FF474
:104130009CAE4FF400406F4B4FF6EF71626833F85E
:104140001530B0FBF3F303EB5203B3FBF2F3A3F12F
:1041500010028A423FF689AE22680020D36085E6CD
:10416000654B5B6D03F00703052B3FF67EAE634A9C
:10417000D35C8BE6402B7FF478AE4FF400405D4B70
:10418000626A656833F8122005EB4501B0FBF2F373
:1041900099423FF66AAEB3EB053F3FF666AE0023A9
:1041A0001946FDF74DF82A460902030241EA10615B
:1041B000680818184FF0000341F10001FDF740F8BE
:1041C0004F4AA0F54071034691423FF64EAEC3E719
:1041D000402B7FF44AAE474B626833F81510530802
:1041E000B0FBF1F003EB40004FF6EF73B0FBF2F0E1
:1041F000A0F110029A423FF638AE20F00F03C0F350
:10420000420022689BB203430020D3602EE63A4B63
:104210005B6D03F00703052B3FF627AE394AD35CED
:1042200034E6354B5B6D03F03803282B3FF61DAEAB
:10423000354AD35C2AE635487DE72F4B5B6D03F0AA
:104240000703052B3FF611AE314AD35C1EE6314819
:1042500071E7294B1A68900647D51B682B48C3F3B2
:10426000C103D8408BE703A8FFF7E4FA04980028BD
:104270003FF42AAF83E76846FFF71EFA019800284B
:104280003FF422AF7BE7FFF705FA00283FF41CAFAD
:1042900075E7204873E7184B1A68910627D51B6805
:1042A0001A48C3F3C103D84095E703A8FFF7C2FA41
:1042B000049800283FF408AF656A8CE7FEF79CFB82
:1042C000F7E7FEF787FBF4E76846FFF7F5F9019893
:1042D000EFE710487FE7084B5B6D03F00703052B02
:1042E0003FF6C3AD0C4AD35CD0E5084847E7074822
:1042F00071E700BF28490008004402581849000827
:10430000FFFC0F0018490008EC4800080090D0039B
:104310001849000800093D0018490008836ADA07B7
:1043200010B406D50168C46A4A6822F400322243F8
:104330004A609C0706D50168046B4A6822F4803203
:1043400022434A60590706D50168446B4A6822F443
:10435000802222434A601A0706D50168846B4A68A6
:1043600022F4004222434A60DC0606D50168C46B91
:104370008A6822F4805222438A60990606D5016831
:10438000046C8A6822F4005222438A605A060AD5D5
:104390000168446C4A68B4F5801F22F4801242EA36
:1043A00004024A600BD01B0606D50268C16C536834
:1043B00023F400230B4353605DF8044B70474A68B5
:1043C000846C22F4C00222434A60ECE72DE9F047F6
:1043D000DDF8208081460F4616469A46056802E0C1
:1043E000B8F1FF3F0CD1EC6937EA04030CBF4FF082
:1043F000010C4FF0000CB445F2D00020BDE8F0876E
:10440000FFF7DAFCA0EB0A0040452DD8B8F1000F09
:104410002AD0D9F800502B682A465907E3D5EB6912
:104420001B05E0D54FF400632B6252E8003F23F4F4
:10443000D07342E800310029F7D102F1080353E8B4
:10444000003F23F0010302F1080040E80031002999
:10445000F3D12023032089F88010C9F88430C9F8EB
:104460008830C9F88C30C9E7D9F8002052E8003FFD
:1044700023F4D07342E800310029F7D102F1080398
:1044800053E8003F23F0010302F1080040E8003147
:104490000029F3D12023032089F88010C9F8843043
:1044A000C9F88830AAE700BF2DE9F0431E46D0F8CE
:1044B000843083B0202B4CD10D46002945D0B2FA70
:1044C00082F917464FEA5919002A3ED090F88030F9
:1044D0000446012B3DD00123C0F88C9080F8803039
:1044E0002123C0F88430FFF767FCA3688046A4F856
:1044F0005470B3F5805FA4F8567041D0B4F85630CC
:1045000000229BB284F8802073B92AE015F8012BB1
:1045100023689A62B4F85620013A92B2A4F8562061
:10452000B4F8562092B2E2B14346002280212046E0
:104530000096FFF74BFF80B9002DE7D139F8023B19
:104540002268C3F308039362E4E7012003B0BDE8E7
:10455000F083022003B0BDE8F083032003B0BDE880
:10456000F08343460022402120460096FFF72EFFAD
:104570000028F2D12023C4F8843003B0BDE8F083D2
:104580002369002BBAD1A9461D46B7E770B50026AE
:10459000044682B0C0F88C60FFF70EFC2368054625
:1045A0001A6812070ED41B685B071AD40023202256
:1045B0001846C4F8842084F88030C4F88820E36664
:1045C00002B070BD6FF07E41034632462046009136
:1045D0004FF40011FFF7FAFE78B923681B685B07F8
:1045E000E4D56FF07E402B4600224FF4800100900E
:1045F0002046FFF7EBFE0028D8D0032002B070BDA4
:1046000080B3D0F8843010B5044633B32268242335
:104610002046C4F88430136823F001031360FFF7C9
:10462000DDFB012817D0A36A8BB9236820465A689E
:1046300022F490425A609A6822F02A029A601A681C
:1046400042F00102BDE810401A60FFF79FBF20460C
:10465000FFF764FEE9E7012010BD80F88030FDF728
:10466000E1F8D3E70120704703680E4A99689B6818
:10467000C1F342614FEA537C535C12F80C201B01DA
:10468000120110B4084C14F80CC0615C5DF8044BC6
:10469000B2FBFCF2B3FBF1F3A0F86A20A0F868309B
:1046A000704700BF484900084049000890F8802042
:1046B000012A17D0026803462420002130B4C3F831
:1046C000840020251068146820F0005024F00104B4
:1046D0001460596610600846C3F8845083F880104F
:1046E00030BC70470220704738B590F88030012BFD
:1046F00023D001220368044680F880202422C0F8D9
:1047000084201D681A6822F001021A609A6822F05B
:1047100060421143426E99605AB1FFF7A5FF0368EA
:10472000002220211D601046C4F8841084F88020E7
:1047300038BD4FF001128266F2E7022038BD00BF9B
:1047400038B590F88030012B23D00122036804464D
:1047500080F880202422C0F884201D681A6822F086
:1047600001021A609A6822F060621143426E9960F9
:104770005AB1FFF779FF0368002220211D6010461F
:10478000C4F8841084F8802038BD4FF0011282668E
:10479000F2E7022038BD00BF2749284AD1F8883007
:1047A00043F4700310B4C1F88830136803F00F03AA
:1047B000062B05D8136823F00F0343F0070313609B
:1047C0001F4B00241F4A19681C4841F00101196061
:1047D0001C6119680A401A6003681B0705D5036845
:1047E00023F00F0343F007030360154B0022164923
:1047F000164C17489A61DA611A629C62D862196392
:104800005A639963DA6319645A641868114C20F486
:104810008020114918601A6623681940B1F1005FC1
:1048200003D20E4B0122C3F808210D4B43F2D202F2
:104830005DF8044B1A60704700ED00E00020005264
:10484000004402587FEDF6EA8002010100020202F4
:104850000000FF010010005C0000FFFF008000511D
:1048600000400052DFF834D0FFF796FF0C480D49A6
:104870000D4A002302E0D458C4500433C4188C42BB
:10488000F9D30A4A0A4C002301E013600432A24221
:10489000FBD3FBF759FDFCF7FDFE7047000002203B
:1048A0000000002074000020AC49000874000020C3
:1048B00080010020FEE70000F8B500BFF8BC08BC8E
:1048C0009E467047F8B500BFF8BC08BC9E467047CE
:1048D00074696D65636F756E7465723A20256C64DA
:1048E0000000000054696D65737570000180808060
:1048F00080808080048080808080808008808080AC
:104900008080808010808080808080802080808077
:1049100080808080400000000004081020400000DB
:1049200002040810204000000100020004000600FC
:1049300008000A000C001000200040008000000168
:10494000080402040801010101010103070100003C
:104950000000000001020304010203040607080925
:10496000232D302B20000000686C4C0065666745E5
:10497000464700003031323334353637383941421A
:104980004344454600000000303132333435363779
:0C49900038396162636465660000000055
:08499C00D4C8FF7F01000000F8
:0449A40029030008DB
:0449A80001030008FF
:1049AC0004000020000000000000000000000000D7
:1049BC0000000000000000000000000000000000EB
:1049CC0000000000000000000000000000000000DB
:1049DC0000000000000000000000000000000000CB
:1049EC0000000000000000000000000000000000BB
:1049FC0000000000000000000000000000000000AB
:104A0C000000000001000000100000000090D00326
:044A1C000090D00333
:040000050800486542
:00000001FF
